:020000040000FA
:030000000200E318
:030013000206ECF6
:0300330002061EA4
:03003B0002074871
:03006B000204FE8E
:03007B000207AFCA
:100083000206AE00000080FB120113B90003020058
:10009300CDE4900301783579038002F0A3D8FCD92D
:1000A300FA900535AA82AB83900116781B790180FB
:1000B30015E493A3AC82AD838A828B83F0A3AA82D7
:1000C300AB838C828D83D8E9D9E77582DE75830E85
:1000D30074001200F575828675830074001200F5B2
:1000E30075D00075813F751001751103759F00026E
:1000F300008BC09FF59FE473D09F22D083D082C032
:100103009FE493C0E0740193C0E0740293F59F22CF
:10011300790122FF00000000000000000000000041
:1001230000000000C201002000004E65771200FEAF
:10013300D407001200FE7B08001200FEDC08001248
:1001430000FEF909001200FE820A001200FE1E0BD7
:10015300001200FE2E0B001200FED70B001200FE51
:10016300EB0F001200FEB50F001200FE0510001287
:1001730000FE0A10001200FE790F001200FE890F24
:10018300001200FEEB0B001200FE1A0C001200FE20
:100193001F0C001200FE350C001200FE4C0C001266
:1001A30000FE630C001200FE8F0C001200FEB30C65
:1001B300001200FEC40C001200FECD0C001200FE63
:1001C300D60C001200FEEB0C001200FE000D001214
:1001D30000FE1F0D001200FE320D001200FE3F0E46
:1001E300001200FE790E001200FE9F0E001200FEA8
:1001F300AF0E001200FED00E001200FE330F00E41B
:10020300936670130874019366700C087402936606
:100213007005087403936622C3E4939608740193EC
:10022300960874029396087403939622E0FAA3E067
:10023300FBA3E0FCA3E0FD22EAF0A3EBF0A3ECF0C8
:10024300A3EDF022CAC0E0E6F0A308DAFAD0E0FAA0
:1002530022700422600D18C6C333C608C633C6D540
:10026300E0F41822C0D0251010AF08F51050020595
:10027300118008F51050020511D2AFD0D0222510FD
:10028300F58210AF08F510400215118008F51040F3
:10029300021511D2AF851183222510F582E43511A1
:1002A300F58322E4732510C582C0E0E51134FFC550
:1002B30083C0E0E510C3958224F810AF088583114D
:1002C3008582108008858311858210D2AFCEF0A37A
:1002D300E520F0A37808E608F0A3DEFAEFF0A3E543
:1002E3008124FAF8E608F0A3E608F0A3E608F0A3F1
:1002F3000808E608F0A3E608F0A315811581D0E00D
:10030300FED0E0F8158115811581E8C0E0EEC0E06C
:1003130022851183851082E0A3FEE0A3F5207808EF
:10032300E0A3F608DFFAE0A3FFE0A3C0E0E0A3C088
:10033300E0E0A3C0E0E0A3C0E0E0A3C0E010AF08AA
:100343008582108583118008858210858311D2AF41
:10035300D083D0820200FBC0D02510C582C0E0E567
:100363001134FFC583C0E0E510C3958224F310AFB9
:10037300088583118582108008858311858210D2B8
:10038300AFC8F0A3E9F0A3EAF0A3EBF0A37908E781
:1003930009F0A3D8FAECF0A3EDF0A3EEF0A3EFF08D
:1003A300A3D0E0F0A3D0E0F0A3D0E0F0A3E520F0E9
:1003B300A3E5F0F0A322851183851082E0C0E0A3BA
:1003C300E0F9A3E0FAA3E0FBA37808E0F608A3DFD3
:1003D300FAE0FCA3E0FDA3E0FEA3E0FFA3E0C0E09E
:1003E300A3E0C0E0A3E0F5D0A3E0F520A3E0A3F5EC
:1003F300F010AF08858311858210800885831185ED
:100403008210D2AFD082D083D0E0F8D0E032740231
:100413008000C0E0F404120281D0E012024722D02F
:1004230083D082ECC0E0EDC0E0EEC0E0EFC0E0E4DA
:1004330093A3FCE493A3FDE493A3FEE493A3FFEF50
:100443004E4D4C601512049EEC24FFFCED34FFFD71
:10045300EE34FFFEEF34FFFF80E5E493A3FCE49367
:10046300A3FDE493A3FEE493A3FFEF4E4D4C60156D
:100473001204DBEC24FFFCED34FFFDEE34FFFEEF52
:1004830034FFFF80E5D0E0FFD0E0FED0E0FDD0E018
:10049300FCE493A3C0E0E493C0E022C0E0C0F08892
:1004A300F012021BA8F04007120202A8F0701AA370
:1004B300A3A3A312021BA8F0A3A3A3A34013D0F0EA
:1004C300D0E0D0E0D0E0020488A3A3A3A3A3A3A316
:1004D300A3A3A3D0F0D0E022C0E0C0F088F01202C2
:1004E30002A8F0A3A3A3A3700BD0F0D0E0D0E0D078
:1004F300E0020488A3A3D0F0D0E022C0E074F1129C
:10050300035AC2C5E589607E7E0080747508017553
:100513000900EE7808120254E508AF08E5895F6028
:100523005EEEF87900E875F002A4C8AAF075F00051
:10053300A42AFA75F002E9A42AF974FD28F5827455
:100543000339F583E0F8A3E0F9E849602EEEF87982
:1005530000E875F002A4C8AAF075F000A42AFA75A1
:10056300F002E9A42AF974FD28F582740339F583AE
:10057300E0F8A3E0F58388821202A6EFF452890E15
:10058300EEC3940840867F020203B9C0E074F112FF
:10059300035AC2EBE58A607E7E008074750801759C
:1005A3000900EE7808120254E508AF08E58A5F6097
:1005B3005EEEF87900E875F002A4C8AAF075F000C1
:1005C300A42AFA75F002E9A42AF9740D28F58274B5
:1005D3000439F583E0F8A3E0F9E849602EEEF879F1
:1005E30000E875F002A4C8AAF075F000A42AFA7511
:1005F300F002E9A42AF9740D28F582740439F5830D
:10060300E0F8A3E0F58388821202A6EFF4528A0E83
:10061300EEC3940840867F020203B9C0E074F1126E
:10062300035AC2E8E58B607E7E008074750801750D
:100633000900EE7808120254E508AF08E58B5F6005
:100643005EEEF87900E875F002A4C8AAF075F00030
:10065300A42AFA75F002E9A42AF9741D28F5827414
:100663000439F583E0F8A3E0F9E849602EEEF87960
:1006730000E875F002A4C8AAF075F000A42AFA7580
:10068300F002E9A42AF9741D28F582740439F5836C
:10069300E0F8A3E0F58388821202A6EFF4528B0EF2
:1006A300EEC3940540867F020203B9C0E074F212E0
:1006B300035AA2AFE433FEC2AFE5E9A2E6502090AD
:1006C3000427E0F8A3E0F9E849600E900427E0F876
:1006D300A3E0F58388821202A6759B0053E9BFEE5F
:1006E300A2E092AF7F010203B9C0E0C0D0E8C0E04E
:1006F300E9C0E0C082C083E5C1C0E09004AAE0F88D
:100703007900742928F582740439F583D0E0F090D8
:1007130004A9E0F89004AAE0687006E5959004AB9C
:10072300F09004AAE024019004AAF0C39480400648
:100733009004AA7400F0D083D082D0E0F9D0E0F81E
:10074300D0D0D0E032C0E0C0D0E8C0E0C008C009DB
:10075300C082C08390052CE0F890052DE068700BF3
:10076300539AFB90052E7401F08031C2E990052C59
:10077300E0F5087401250890052CF075090074ACA8
:100783002508F58274043509F583E0F5C190052C3D
:10079300E0C39480400690052C7400F0D083D0828F
:1007A300D009D008D0E0F8D0D0D0E032C0E074F265
:1007B30012035AE58AA2E2501179037C4C7D057A33
:1007C300157B10120148E9538AFBC2EB7F01020338
:1007D300B974F71202A8E9FEEAF8EBF9E8FAE9FBC3
:1007E300740B2E8A828B83F0900308E0F8A3E0F564
:1007F300838882A3A3A3A3A3E0600678617988809A
:100803000478417988E88A828B83A3F0E4E9F88A43
:10081300828B83A3A3F0900301E08A828B83A3A33B
:10082300A3F0900308E0F8A3E0F5838882A3A3E094
:10083300F8A3E0F98A828B83A3A3A3A3E8F0A3E937
:10084300F08A828B83A3A3A3A3A3A3ECF0A3EDF06D
:10085300900308E0F8A3E0F5838882E0F8A3E0F9C9
:100863008A828B83A3A3A3A3A3A3A3A3E8F0A3E9EF
:10087300F0790A7F0102031474F21202A8ECFEED70
:10088300FF8908A908EAFCEBFD7A0A7B0312013011
:10089300E9FB7A0080348A0A750B00EE250AF5829B
:1008A300EF350BF583E0C0E08B0A750B008A0C75FE
:1008B3000D00E50A250CF8E50B350DF9740A28F54A
:1008C30082740339F583D0E0F00AEAC3950840C681
:1008D300EB2508F97F0602031474F71202A87E7D44
:1008E3007F031201C012016C7901EEFAEFFB1201D2
:1008F300A88E828F83E0C2E7F08E828F83E0640547
:1009030070528E828F83E0F97A7E7B031201A88E68
:10091300828F83A3E0A2E55004D2F08002C2F0A24A
:10092300F0E43390053DF07881790388828983A3CD
:10093300E0A2E740030209EE8E828F83A3A3A3E024
:10094300F8900301E06860030209EE90030274016A
:10095300F00209EE8E828F83E024F590053AF08E43
:10096300828F83E0F97A7E7B031201A88E828F83C4
:10097300A3E0A2E55004D2F08002C2F0A2F0E43377
:1009830090053DF08E828F83A3A3A3A3A3A3A3A368
:10099300E0F8A3E0F9900536E8F0A3E9F090053B11
:1009A3007487F0A37403F090053AE0F83395E0F907
:1009B30090053BE028F8A3E039F988828983E09029
:1009C300053EF088828983A3E0A2E750128E828FCE
:1009D30083A3E054DF6441700690053F7401F08EF9
:1009E300828F83A3A3A3E0900535F0120172120155
:1009F300C67F0102031474F71202A8EAFEEBFF128A
:100A03000184E9640170047901806F12017290031B
:100A130008EEF0A3EFF090053B7400F0A37400F030
:100A23009003037401F090054112022F9003041206
:100A3300023B900308E0F8A3E0F5838882A3A3A315
:100A4300A3E0F9120190900308E0F8A3E0F583888E
:100A530082E0FAA3E0FB120196900308E0F8A3E01A
:100A6300F5838882A3A3E0FAA3E0FB12019C7A3CFE
:100A73007B011201CC12016C79007F010203147413
:100A8300F41202A8EAFEEBFF8C0A8D0B890890038F
:100A930003E070031201B4E508C3946750058508A9
:100AA3000980037509678509081201D21201C0A9DB
:100AB30008AC0AAD0BEEFAEFFB120136E9F97A0A3C
:100AC3007B031201A21201C61201AEE960027E018C
:100AD300900308E0F8A3E0F5838882A3A3A3A3A36C
:100AE300E0601C9003027400F07A4A7B0212017EDC
:100AF300900302E06004740080027401FE80027EB1
:100B030000900303E070031201BAEE700790030133
:100B1300E02401F0EEF97F04020314C082C0839045
:100B2300053FE0F9D083D0820200FB74F21202A8E1
:100B33008A0A8B0BECFEEDFF740E12029CE0F508A3
:100B4300A3E0F50912017290053AE0F83395E0F954
:100B5300C3E89EE99F500D90053AE0F50C3395E00C
:100B6300F50D80048E0C8F0D780C12041190053B4B
:100B7300E0FCA3E0FDAA0AAB0B1201FC7402120213
:100B830067E5084509602612018AE9F50A90053EE2
:100B9300E0F83395E0F9750B00E8C3950AF8E99599
:100BA3000BF9850882850983E8F0A3E9F090053FF6
:100BB3007400F012016C90053AE0F83395E0F9C344
:100BC300E89EE99F500790053AE0F98002EEF97F2D
:100BD30006020314C082C0839003037401F0120160
:100BE300B4D083D0820200FBC082C083906189E0CD
:100BF3004460F090619074D5F09061FA7409F090BC
:100C030061B27415F09061AE7400F01201C6790000
:100C1300D083D0820200FB79490200FBC082C083EB
:100C230075F005E9A424D490618FF0D083D08202BB
:100C330000FBC082C083EA906174F0E4EBFA906138
:100C430075F0D083D0820200FBC082C083EA90613A
:100C530072F0E4EBFA906173F0D083D0820200FB70
:100C630074F61202A875E1EE7591FD780080138881
:100C730008750900EA2508F582EB3509F583E0F5E7
:100C8300D908E8C39940E87F02020314C082C083F5
:100C93008011E5D98A828B83F08A828B83A3AA820F
:100CA300AB8319E9C3940150E9D083D0820200FBDE
:100CB30075E1E9E591A2E150FA7591FD7900020031
:100CC300FB75E1EC75E1E30200FB75E1EF75E1EC27
:100CD3000200FBC082C0839061A3E0C2E6F0539A96
:100CE300FED083D0820200FBC082C0839061A3E068
:100CF300D2E6F0439A01D083D0820200FBC082C0C7
:100D030083A2AFE433F8C2AF900427EAF0A3EBF079
:100D1300E8A2E092AFD083D0820200FBC082C083FE
:100D2300906193E0542270F8D083D0820200FB7468
:100D3300F41202A88A088B098C0A8D0B53F1FE4327
:100D4300F30C53F2F375868075C48078081204227D
:100D5300000000000C000000B0040000A50D6009B5
:100D63000000AD0DC0120000B50D80250000BD0DC3
:100D730040380000C50D004B0000CD0D8070000011
:100D8300D50D00960000DD0D00E10000E50D002CFF
:100D93000100ED0D00C20100F50D00840300FD0DFF
:100DA300050E75C23B75C505805E75C23B75C506EC
:100DB300805675C23B75C507804E75C23B75C50825
:100DC300804675C2D875C508803E75C23B75C50996
:100DD300803675C2D875C509802E75C23B75C50AA4
:100DE300802675C2D875C50A801E75C23B75C50BB2
:100DF300801675C2D875C50B800E75C2D875C50C23
:100E0300800675C23B75C50A75C402438640D2AAE3
:100E130075C1009004A97400F09004AA7400F090C6
:100E2300052C7400F090052D7400F09004AB740051
:100E3300F090052E7400F07F04020314C082C08377
:100E43009005317406F0A37480F0900533740BF0B1
:100E530090052F743AF0A374ACF09005347401F04C
:100E63007A2F7B05120142E9640160F412015AD022
:100E730083D0820200FB7800790080120000000C0E
:100E8300ECC394F040F6E82401F8E93400F9C3E830
:100E93009AE99B50047C0080E70200FB53F4E34390
:100EA300FE1853FEFBC293C2940200FBC082C083B0
:100EB300D2937A887B131201E4D294C2937A887B0B
:100EC300131201E4C294D083D0820200FB439A1030
:100ED300438D04438C02D2AF0200FB120160120166
:100EE300DE1201EA1201F67E00EE60031201F01237
:100EF300014EE960F4E4F508F50978081204117C61
:100F0300037D007A497B051201547402120267E9DA
:100F1300640370D5900549E0644E70CD90054AE0B6
:100F2300646570C590054BE0647770BD7E0180B940
:100F330074F61202A8740A12029CE0FEA3E0FFEA10
:100F4300F8EBF980188C828D83E088828983F0A383
:100F5300A882A9838C828D83A3AC82AD838E088FF4
:100F630009E50824FF1EE50934FFFFE5084509707C
:100F7300D47F02020314C082C0837900120166D0B9
:100F830083D0820200FBEBC313FBEA13FAEAF8EB0C
:100F9300F9E824FFFAE934FFFBE849601200000096
:100FA3000000000000000000000000000080DE02DE
:100FB30000FBE5C65480F853BEFBE59DA2E550FA5D
:100FC300E59DA2E240F4007401697007744948F595
:100FD300C68005E9700288C6E5C6F8E59EFAE86AA8
:100FE30070F943BE040200FBC082C08312017890F3
:100FF300054512022F1201D812016CD083D0820250
:0C10030000FBD2AF0200FBC2AF0200FBFA
:04000005000000E314
:00000001FF
