:020000040000FA
:0300000002008279
:10004B000200BB00000080FB1200ACB900030200F1
:10005B006CE4900001780279018002F0A3D8FCD9FE
:10006B00FA758226758301740012008E75824E75A7
:10007B008300740012008E75D0007581BF759F00D0
:10008B00020053C09FF59FE473D09F22D083D08290
:10009B00C09FE493C0E0740193C0E0740293F59F9A
:1000AB0022790122120097EE000012009714010032
:1000BB00C0E0C0D0E8C0E0C082C08353AFDF900087
:1000CB0001E02401F8E8900001F07404687008C2A4
:1000DB00939000017400F0D083D082D0E0F8D0D0A0
:1000EB00D0E0327800790080120000000CECC39451
:1000FB00F040F6E82401F8E93400F9C3E89AE99BEB
:10010B0050047C0080E702009443E40C75DA12750E
:10011B00DB7AD2B9D2DED2AF02009453F4F343FEB2
:10012B000853FEFB1200B5C293A29240FC7A647B8B
:0F013B00001200AFA29240F143E403D29380EA96
:040000050000008275
:00000001FF
