:020000040000FA
:0600000002120E0207AC23
:03002B0002260D9D
:0300430002105F49
:03004B00020E9B07
:030053000206FFA3
:03005B00020EAAE8
:03006300020EB6D4
:10008300020748010101010503010F10FEFF0300F0
:100093000300030003000300030003000300030045
:1000A30005000A00140028004F009E000000621A99
:1000B300621A621A621A18191219621A20290000A8
:1000C30000005C28000000000C0000000C00010A86
:1000D300D007AB07ED04FF01010030110000008BD6
:1000E30011E80364006400B8010202000010000577
:1000F3000207011E02051E020A03B80B02803E011D
:1001030003320002018888010A01E002020630314D
:100113003233343536373839414243444546002873
:100123006E756C6C20706F696E74657229003F3F49
:100133003F000000807F0000803FF9021550B74365
:10014300BA510000204100E7DB2E0000A040100060
:100153000000080000000A00000012123C60461272
:10016300125A603DE9687008F618F618F618F62278
:10017300748067F7120191090909748067F72212E5
:10018300125A601D12123C7005191919801A1210A7
:10019300CC701F1210F6C37003E6673319191940A8
:1001A300071818182208080874FFF618F618F61826
:1001B300F6221210F660171212BA702192F0121280
:1001C300B07019501720F014080808090909E7F658
:1001D3001819E7F61819E7F61819E7F6221212B0FC
:1001E30060E6E869701F0808E62480F608E436F63E
:1001F30018547FB47F0CE654806007F6E418F618B1
:10020300F622181822E9C6CC08C6CD08C6CE08C601
:10021300CFC0E0E8C0E0EAC0E0EBC0E009E9F809DC
:10022300E7FA09E7FBE6F918E6F8C3EC98ED99EE6F
:100233009AEBC2E7F5F0EFC2E795F0500E600CEBD6
:10024300CFFBEACEFAE9CDF9E8CCF8EAA2E7D2E7A8
:10025300FAEB33FB13F5F0EEA2E7D2E7FEEF33FF41
:10026300C5F013A2E730E601B313C5F0C3C0E0C085
:10027300F07F00C39BFB605B9418600C401AD0E0D6
:1002830023F9D0E0F80203608AF0E9486003D2F072
:10029300E4AFF0FAF9F8803BEB30E40D89F0EA6063
:1002A30003D2F0E4AFF0F9CAF8EB30E30D88F0EFD6
:1002B3006002D2F0AFF0E4CAC9F8EB54076014FB54
:1002C300C3EA13FAE913F9E813F8EF135002D2E083
:1002D300FFDBEDD0E0C0E030E739C3E49FFFF5F08A
:1002E300EC98FC42F0ED99FD42F0EE9AFE42F0D01C
:1002F300E0F9D0E0F8E5F0607AE923F9EE20E7428F
:10030300D8028067C3EF33FFEC33FCED33FDEE33EC
:10031300FE80EAEC28FCED39FDEE3AFED0E023F94D
:10032300D0E0F84002801BC3EE13FEED13FDEC1387
:10033300FCEF135002D2E0FF08B800067F7F74FF82
:10034300802EEF3350178CF020F00260100CBC00AD
:100353000C0DBD00080EBE000408E860DFE933E8B9
:1003630013FFEE2313FE4F4D4C8008E95480FFE446
:10037300FEFDFCEE33EF33F47004FCFD7E80D0E031
:10038300FBD0E0FAD0E0F8D0E0CFC618CEC618CD47
:10039300C618CCC6F92212125A7004181818221261
:1003A300123C700D74FFF61819F61819F61819F6A1
:1003B30022E7548066F61212B0700F1212BA70F070
:1003C30014F608F608F608F680D11212BA700CF685
:1003D30008F608768008E6447F80EC1210F9700C6A
:1003E3001210CF60BFE65480F6E480BB1210CF70CA
:1003F3000519191980A5E869700C763F18768018DD
:10040300F618F6E8F922E6CDC0E018ECC0E0E633D2
:10041300CD33CDD313F6E719FCE7191933CC33C326
:10042300947F400ECD9D502408E65480F6E418F6E0
:10043300800FF4043D14501408E6447FF6187680C8
:10044300E418F618F6D0E0FCD0E0FD22CCD313CCB0
:10045300FD18E4C6CBC0E018E4C6CAC0E00808ED46
:1004630008C633E613F618E433C675F003C3CA9718
:10047300CA09CB97CB199C40047D08802EBD00038D
:1004830002054216B6FF050606081618C3CA33CA84
:10049300CB33CB33CA27CA09CB37CB193CC37D082F
:1004A300803E187D0820E75CC633C6CA33CACB3307
:1004B300CB33DDF1D5F0EB30E77BCA97CA09CB9795
:1004C3004ACB199C406F4B7025E620E021806618CB
:1004D3007D08C3CA97CA09CB97CB199CD3C633C629
:1004E300CA33CACB33CB3350C9DDE7D5F0E1D3E40C
:1004F300C636C608C636C608C636C608C636C618C1
:1005030018188031C3CA97CA09CB97CB199CB3403B
:1005130097C633C6CA33CACB33CB33DD34D5F02EBB
:10052300C6A2E0C640C8CA27CA09CB37194A70BE5B
:10053300CB3CB480B90808E63308E633601F1818CB
:1005430018D0E0FAD0E0FBD0E0FCD0E0FD22187D2B
:1005530008CA27CA09CB37CB193CD3808013F618B6
:10056300E4B67F11F618B6FF0EF618C60470D2086B
:1005730008768080CAF618F618F680C50012125A5B
:10058300604F12123C6012E7548066F61210CC7072
:10059300111212BA703B090909F4F618F618F61885
:1005A300F6221210F670151212B008080860EAE677
:1005B300447FF618768018E4F618F6221212B0601B
:1005C300161212BA7012E4F608F608F608E654801A
:1005D300F609090918181822EAC0E0EBC0E0ECC0DC
:1005E300E0EDC0E0E687F0A4FBACF008E687F0A4FA
:1005F3002CFCE435F0FA1809E687F0A42C4B6002D2
:100603007401CA35F0FCE433FB09E687F0D2F7A4A2
:100613002CCB35F0FC1908E687F0A42BCC35F0FB86
:10062300E433FD0819E687F0D2E7A42C4ACB35F072
:10063300CD3400FC09E687F0D2E7A42DCC35F0FDDC
:10064300E433FA0918E687F0D2F7A42CCD35F0CAC3
:100653003400FC08E687F0D2E7D2F7A42ACC35F0C1
:100663007A7E20E70B0ACB33CBCD33CDCC33CC33DF
:10067300CB3350147004ED30E00ED2F1E4CD3DCD18
:10068300CC3CCC3B5005DA05C2F1EB547FC63308B2
:10069300E63392F0FBE73309E733C39A502D2B700F
:1006A300190C0D4C4D70151806E608C333700D2058
:1006B300F10AA2F013F6E418800B4024E4F630F0BC
:1006C30002768018F618F618F68024D33B145010DF
:1006D30074FFA2F013F6187680E418F618F6800F6C
:1006E300A2F013F618E63303F618ECF618EDF6D07D
:1006F300E0FDD0E0FCD0E0FBD0E0FA22C0E074F2F1
:10070300120AC5E5A7F8E5A1F958541060081221AB
:100713003453A1EF802AE8A2E0C0D0E9A2E092F02E
:1007230012116C158182F05017906198E0F89016C1
:1007330092E0C398A2D265D0335002E8F053A1FEF1
:100743007F01020B7CC0E074F2120AC59061A4E041
:10075300F8759B00E59158540860087591F71221CC
:1007630076802AE59158541060087591EF12217C28
:10077300801BE8A2E0C0D0E591A2E092F012116CD8
:10078300158182F05007E0C2E0F012229C9061A331
:10079300E0F8E5E9585404600E12227275E9FB9003
:1007A3006193E0A2E640F28097C0E074F2120AC5BA
:1007B3009061A5E0F8E5BF585404600653BFFB12EF
:1007C30022B4020743C3E498F8E499F912080980B4
:1007D30026C3E49AFAE49BFBE920E7E9120809E45B
:1007E30098F8E499F922C3E498F8E499F91208090E
:1007F300E498F8E499F9C3E49AFAE49BFB22EB202A
:10080300E7CFE920E7E0B90010BB0008E88AF084ED
:10081300F8AAF022E4FBC8FA22EB70227B10C8335B
:10082300C8C933C9335007C39AC3DBF280069A5051
:10083300012ADBEAC833F4C8C933F4C9FA2275F0D4
:1008430008E4C833C8C933C933C99AC99B5004C91A
:100853002AC93BD5F0ECFBC833F4C8E4C9FA221229
:1008630008A220F01430E72B74FFFCFBFA747F809E
:1008730022E4FCFBFA7480801AB48008BC00F2BB4B
:1008830000EF800F50EBF9E4C39AFAE49BFBE49C7E
:10089300FCE499C6CC18C6CB18C6CA18C6F922E41C
:1008A300C9C608CAC608CBC6D3330308CCC633921D
:1008B300F0C3947F402E94184019C9B90704CACBDA
:1008C300CC225025C309CA33CACB33CBCC33CC3368
:1008D300D9F422F4600DC9CCC313CB13CBCA13CA0A
:1008E300D9F6CC22E4FCFBFA2214FCFBFA2208081A
:1008F30008EAC0E0EBC0E086F0E7A4FA180986F046
:10090300E7A42AFA180986F0E7A42AFA180986F058
:10091300E7A42AFA1986F0E7A4FBE5F02AFA1908F6
:1009230086F0E7A42BFBE5F03AFA190886F0E7A472
:100933002BFBE5F03AFA18180986F0E7A4C5F02B6B
:10094300FBE43AFA1908E7C5F0C6A426F6E5F03B3E
:10095300FBE43AFA1886F0E7A4F6E5F00826F6E495
:100963003B08F6E43A08F6D0E0FBD0E0FA220808A8
:1009730008E630E71112111F120989080808C64456
:1009830080C618181822181818E9799EC608CAC60E
:1009930008CBC608CCC6C370207996CACBCC7019D5
:1009A300798ECBCC70137986CC700EF9802ACA333A
:1009B300CACB33CBCC33CC331930E7F2CCCBCA33ED
:1009C30050147004EA30E00DE4CA3ACACB3BCBCCF6
:1009D3003CCC500209C3E913C6CC182313C6CB1869
:1009E300C6CA18C6F922E4CFC0E0E4CEC0E0E4CD25
:1009F300C0E0E4CCC0E075F020C3E633F608E6338C
:100A0300F608E633F608E633F6181818EC33FCED6F
:100A130033FDEE33FEEF33FFC3EC9709ED9709EE99
:100A23009709EF97191919400FFFEC97FC09ED97F8
:100A3300FD09EE97FE191906D5F0BEECF709EDF79F
:100A430009EEF709EFF7191919D0E0FCD0E0FDD052
:100A5300E0FED0E0FF222518C582C0E0E51934FF8F
:100A6300C583C0E0E518C3958224F810AF088583D9
:100A7300198582188008858319858218D2AFCEF034
:100A8300A3E520F0A37808E608F0A3DEFAEFF0A3CD
:100A9300E58124FAF8E608F0A3E608F0A3E608F0F7
:100AA300A30808E608F0A3E608F0A315811581D092
:100AB300E0FED0E0F8158115811581E8C0E0EEC0B5
:100AC300E022C0D02518C582C0E0E51934FFC583F4
:100AD300C0E0E518C3958224F310AF088583198518
:100AE30082188008858319858218D2AFC8F0A3E9DC
:100AF300F0A3EAF0A3EBF0A37908E709F0A3D8FA8F
:100B0300ECF0A3EDF0A3EEF0A3EFF0A3D0E0F0A39D
:100B1300D0E0F0A3D0E0F0A3E520F0A3E5F0F0A34C
:100B23002212129BB90003020B66E490030178C200
:100B330079198002F0A3D8FCD9FA901BC2AA82AB20
:100B43008390008678D879018015E493A3AC82ADB5
:100B5300838A828B83F0A3AA82AB838C828D83D812
:100B6300E9D9E775824A7583C07403120F887582C9
:100B7300087583267400120F88851983851882E00F
:100B8300C0E0A3E0F9A3E0FAA3E0FBA37808E0F652
:100B930008A3DFFAE0FCA3E0FDA3E0FEA3E0FFA3CC
:100BA300E0C0E0A3E0C0E0A3E0F5D0A3E0F520A31C
:100BB300E0A3F5F010AF08858319858218800885B6
:100BC3008319858218D2AFD082D083D0E0F8D0E0E9
:100BD3003212125A601C12123C60171212B07007C4
:100BE3001212BA7001D322C0D01212BA7006D0D03A
:100BF300B322C32233D0D0501430E0F6C3E79608B3
:100C030009E7960809E7960809E796B32220E0D595
:100C1300E6970809E6970809E6970809E697B322D5
:100C2300D083D082ECC0E0EDC0E0E493A3FCE49376
:100C3300A3FDED4C600D120D47EC24FFFCED34FFDA
:100C4300FD80EFE493A3FCE493A3FDED4C600D1250
:100C53000E46EC24FFFCED34FFFD80EFD0E0FDD029
:100C6300E0FCE493A3C0E0E493C0E02212125A60D4
:100C73001B12123C60161212B070071212BA600CEB
:100C8300B322C0D01212BA7005D0D022C32233D0FF
:100C9300D0501330E0EBC3E7960809E7960809E75D
:100CA300960809E7962220E0E4E6970809E6970804
:100CB30009E6970809E69722D083D082E9C0E0E4E9
:100CC30093A3C386F0C5F095F0F908E493A386F0E7
:100CD300C5F095F0700BE493A3C3994005E9048034
:100CE30002A3E475F002A42582F582E5F03583F5CD
:100CF30083D0E0F9E493A3C0E0E493C0E022851934
:100D030083851882E0A3FEE0A3F5207808E0A3F62C
:100D130008DFFAE0A3FFE0A3C0E0E0A3C0E0E0A3A4
:100D2300C0E0E0A3C0E0E0A3C0E010AF08858218F4
:100D33008583198008858218858319D2AFD083D023
:100D430082020F8EC0E0C3E4939608740193961851
:100D5300400FE4936670080874019366187000707E
:100D630019A3A3C3E49396087401939618A3A3400D
:100D73000DD0E0D0E0D0E0020C5FA3A3A3A3A3A314
:100D8300D0E022D083D082C5F0E493A3C5F0C3950D
:100D9300F0F5F0E493A3C395F04005E5F00480017A
:100DA300E475F002A42582F582E5F03583F583E44A
:100DB30093A3C0E0E493C0E022740480047402802F
:100DC30000CCC0E0EDC0E0E518C39CCCAD195001E8
:100DD3001D10AF068C188D1980068C188D19D2AF93
:100DE300120F0AD0E0FDD0E0FC2274028000CCC0D8
:100DF300E0EDC0E0E518C39CCCAD1950011D10AF68
:100E0300068C188D1980068C188D19D2AF120EE836
:100E1300D0E0FDD0E0FC2212125A602512123C6091
:100E2300201212B070030212BA080808E7667010A5
:100E33001819E766700A1819E76670041819E76647
:100E430022F422C0E0C0F088F0E4936670080874CE
:100E5300019366187000A8F0A3A3700BD0F0D0E044
:100E6300D0E0D0E0020C5FA3A3D0F0D0E022D08387
:100E7300D082CCC0E0E493A36006120F691470FA29
:100E8300E493A360061210761470FAD0E0FCE493A6
:100E9300A3C0E0E493C0E022C0E074F2120AC512DA
:100EA30020747F01020B7CC0E074F2120AC5122089
:100EB3007A80EFC0E074F2120AC512208080E3C08A
:100EC30008C3E096F50808A3E096420808A3E09655
:100ED300420808A3E0964208A2D265D033E5087021
:100EE30001D3D00822CAC0E0E493A3C582CCC58253
:100EF300C583CDC583F0A3C582CCC582C583CDC5CB
:100F030083DAE5D0E0CA22CAC0E0E0A3C582CCC53B
:100F130082C583CDC583F0A3C582CCC582C583CDED
:100F2300C583DAE6D0E0CA22C008C3E096F5080814
:100F3300A3E096420808A3E096420808A3E096457A
:100F4300087001D3D0082270090808082260161817
:100F53001818C6C333C608C633C608C633C608C680
:100F630033C6D5E0EA22C0E0E493A3D39C5010E457
:100F730093A3C39C400AD0E0D0E0D0E0020E8EA33E
:100F8300A3A3D0E022C09FF59FE473D09F22D08318
:100F9300D082C09FE493C0E0740193C0E0740293D5
:100FA300F59F22C5822518C582C583351910AF0761
:100FB300F5198582188007F519858218D2AFC58384
:100FC300222518F58210AF08F5184002151980087C
:100FD300F51840021519D2AF851983227404800ACB
:100FE30074038006740280027401C0E0F404120FDB
:100FF300C4D0E012127622C0D0251810AF08F5181D
:10100300500205198008F51850020519D2AFD0D047
:1010130022BB0102E722C082C08389828A83BB008C
:1010230003E08002E493D083D0822260160808088C
:10103300C6C313C618C613C618C613C618C613C626
:10104300D5E0EA22C3E0C696F608A3E0C696F60802
:10105300A3E0C696F608A3E0C696F622C0E074F2B3
:10106300120AC5C2C0E5D1A2E450031220AA7F012F
:10107300020B7CC0E0E493A36C7009D0E0D0E0D015
:10108300E0020E8EA3A3D0E022251810AF08F518B6
:10109300400215198008F51840021519D2AF22C372
:1010A300E09608A3E09608A3E09608A3E096A2D2F0
:1010B30065D03322E066701008A3E066700A08A3C7
:1010C300E066700408A3E06622181818E6084608CC
:1010D300700AE608C3337005E633F4220822C3E737
:1010E300960809E7960809E7960809E796A2D265E4
:1010F300D03322191919E7094709700AE709C333DD
:101103007005E733F4220922C3E096F008A3E096C2
:10111300F008A3E096F008A3E096F022181818E46C
:10112300C396F608E496F608E496F608E496F622E3
:10113300E026F608A3E036F608A3E036F608A3E0B7
:1011430036F622E026F008A3E036F008A3E036F0F6
:1011530008A3E036F022E627F60809E637F6080981
:10116300E637F60809E637F622C0E0E8C0E0E58195
:1011730024FCF8E6A2E7D0E0F8D0E022E657F60830
:1011830009E657F60809E657F60809E657F622E096
:1011930056F008A3E056F008A3E056F008A3E05683
:1011A300F022700422600D18C6C333C608C633C6C6
:1011B300D5E0F41822E647F60809E647F60809E6FB
:1011C30047F60809E647F622E056F608A3E056F686
:1011D30008A3E056F608A3E056F622C6F4C608C6EE
:1011E300F4C608C6F4C608C6F4C622C3E09608A32C
:1011F300E09608A3E09608A3E09622C3E7960809C1
:10120300E7960809E7960809E7962275D0007581E5
:101213004075180175190300020B24600C08C6C33E
:1012230013C618C613C6D5E0F422E0F608A3E0F609
:1012330008A3E0F608A3E0F622E7094709C313472A
:1012430009336002E733F422E6F008A3E6F008A3CB
:10125300E6F008A3E6F022E6084608C3134608337F
:101263006002E633F422C5822518C582C583351989
:10127300C58322CAC0E0E6F0A308DAFAD0E0FA2276
:10128300E0FAA3E0FBA3E0FCA3E0FD22EAF0A3EB7A
:10129300F0A3ECF0A3EDF022E5C754F84401F5C741
:1012A3007901222518F582E43519F58322E6C33343
:1012B30018461846184622E7C333194719471947F2
:1012C30022120F91C63400120F914A3500120F916A
:1012D300B93500120F91623600120F916A3600126F
:1012E3000F910B3700120F916E3700120F91403898
:1012F30000120F91B73800120F91F43800120F91BA
:101303005B3900120F91A83A00120F91C43A0012F0
:101313000F911D3B00120F91BA3B00120F910A3C33
:1013230000120F91A53C00120F91523D00120F9134
:10133300903D00120F91003E00120F914B3E0012A0
:101343000F91843E00120F91B23F00120F91EC40B7
:1013530000120F914D4100120F91964100120F910F
:10136300BE4100120F91414200120F91C14200127F
:101373000F91344300120F91594300120F916A43A6
:1013830000120F91E04300120F91844400120F9159
:10139300C64400120F914C4500120F917345001281
:1013A3000F919B4600120F91AE4600120F91074713
:1013B30000120F91484700120F91D04800120F916D
:1013C300664A00120F91954A00120F91284B0012A2
:1013D3000F91814B00120F916D4C00120F91704EC3
:1013E30000120F917A4E00120F91844E00120F914A
:1013F3008E4E00120F91984E00120F91B24E0012B2
:101403000F91BC4E00120F91C64E00120F91D04E99
:1014130000120F91F14E00120F913F4F00120F91E6
:10142300494F00120F916D4F00120F91914F00120F
:101433000F91F04F00120F913B5000120F91595032
:1014430000120F91C95000120F91065100120F9113
:101453004D5100120F91B55100120F9127520012F6
:101463000F915B5300120F917E5300120F91415461
:1014730000120F91675400120F91475500120F91FC
:10148300A85700120F910F5900120F91D25A001250
:101493000F91245B00120F91075C00120F91545CB3
:1014A30000120F91BF5C00120F91C95C00120F91E3
:1014B300E85E00120F910D5F00120F915E5F001244
:1014C3000F915F6000120F91976000120F91D76028
:1014D30000120F913A6100120F91536200120F91A3
:1014E300B36200120F91996300120F919F6500126E
:1014F3000F91BB6500120F91606700120F91A667F1
:1015030000120F91846800120F91EE6800120F9180
:101513001F6900120F915B6900120F91E9690012B4
:101523000F91EC6900120F91586A00120F91068116
:1015330001120F91588101120F918F8301120F91A4
:10154300DB8301120F919D8401120F911485011207
:101553000F913C8601120F91798801120F91108926
:1015630001120F91B08F01120F91369001120F915A
:10157300B39201120F91979301120F913C940112B0
:101583000F91559501120F91869601120F9179973C
:1015930001120F91AA9A01120F916D9C01120F91E2
:1015A300CD9C01120F91839D01120F91309E011268
:1015B3000F915B9E01120F91E89E01120F91D59F2F
:1015C30001120F91A9A001120F9147A101120F91CE
:1015D30074A101120F9196A101120F918FA3011211
:1015E3000F916AA401120F91B7A401120F9118A5CC
:1015F30001120F91DAA501120F910FA601120F919B
:101603005DA601120F918DA601120F91CBA60112B7
:101613000F9123A701120F9128A701120F9183A7FE
:1016230001120F91ABA701120F91CAA801120F91DA
:1016330036A901120F91A0A901120F9129AA011233
:101643000F9148AC01120F9126AD01120F9195AE87
:1016530001120F9127B001120F91B7B001120F9130
:10166300BEB101120F9147B201120F918EB2011256
:101673000F9105B401120F9119B401120F9133B4F4
:1016830001120F914EB401120F915AB401120F912E
:1016930078B401120F912FB601120F9168B601129F
:1016A3000F9175B601120F91C4B601120F91B7B71E
:1016B30001120F91FBB701120F917EB801120F9126
:1016C30082B901120F913EBA01120F91B9BB0112F7
:1016D3000F9193BC01120F912ABD01120F91BCBD52
:1016E30001120F91D3BD01120F91F7BD01120F919A
:1016F30001BE01120F910DBE01120F912BBE0112FB
:101703000F916FBE01120F91C0BE01120F91E1BE86
:1017130001120F911EC001120F916AC001120F91A5
:1017230061C101120F9189C101120F91EBC1011225
:101733000F9164C201120F9175C301120F9121C45D
:1017430001120F910EC501120F9172C501120F9173
:1017530009C601120F91D9C601120F9108C70112D0
:101763000F9167C701120F9115C801120F913BC862
:1017730001120F91B3C801120F91D8C801120F9132
:10178300FBC801120F9136C901120F9114CB01123C
:101793000F9101CC01120F91B9CC01120F9150CED0
:1017A30001120F91A4CE01120F91C3CE01120F911A
:1017B30032CF01120F91A6CF01120F91FFCF011269
:1017C3000F9125D001120F9160D001120F918CD08F
:1017D30001120F91D7D001120F9130D101120F9145
:1017E300ACD101120F9190D201120F91FDD20112CF
:1017F3000F9126D301120F918CD301120F91E1D3D4
:1018030001120F911BD401120F9170D401120F9189
:1018130095D401120F91DBD401120F91F8D4011268
:101823000F91A2D501120F9171D803120F91BCD859
:1018330003120F916C8002120F91A08002120F917C
:10184300768102120F914A8202120F91758302125E
:101853000F91F98402120F91778502120F913E8640
:1018630002120F915F8702120F91D18702120F911B
:10187300338802120F91818802120F918B88021212
:101883000F91C98802120F91328902120F91D189E7
:1018930002120F914F8A02120F91048B02120F91C1
:1018A300768B02120F919C8B02120F91CC8B02123A
:1018B3000F91F98B02120F919F8C02120F91AF8C33
:1018C30002120F91028D02120F910E8D02120F91CF
:1018D3001A8D02120F91238D02120F91848D021221
:1018E3000F91E48D02120F91358E02120F91508EDB
:1018F30002120F91808E02120F91A18E02120F918C
:10190300AD8E02120F91EE8F02120F910C90021204
:101913000F91759002120F91889002120F919F9070
:1019230002120F91329102120F91319202120F9112
:101933002D9302120F91AF9302120F91B9930212DA
:101943000F911C9402120F912D9402120F91709417
:1019530002120F91B79402120F91ED9402120F919C
:10196300239502120F91419502120F916595021270
:101973000F91A69502120F91999602120F91DF967D
:1019830002120F911A9702120F91799702120F9177
:10199300A19702120F91DA9702120F91E8970212A0
:1019A3000F91499802120F91869802120F91C898CD
:1019B30002120F91F99802120F912D9902120F91B1
:1019C300389902120F91569902120F911E9A021220
:1019D3000F91289A02120F91679A02120F917D9A22
:1019E30002120F91E79A02120F91FB9A02120F91C2
:1019F300F39B02120F91069C02120F911B9C021281
:101A03000F91BB9C02120F911F9D02120F91E29D39
:101A130002120F91ED9D02120F910C9F02120F9172
:101A2300289F02120F91809F02120F91B79F0212FB
:101A33000F91D19F02120F9145A002120F91D6A0D0
:101A430002120F911EA102120F9139A302120F91DC
:101A5300A3A302120F910EA402120F9167A6021202
:101A63000F9177A602120F917AA602120F9186A602
:101A730002120F919AA602120F91A2A602120F91BF
:101A8300D7A602120F9185A702120F91F5A7021292
:101A93000F9159A802120F91F2A802120F918CA96B
:101AA30002120F91BAA902120F914AAA02120F91C0
:101AB30056AA02120F9185AA02120F91A7AA021227
:101AC3000F91CEAA02120F9134AB02120F919EAC6A
:101AD30002120F91A1AC02120F9118AD02120F91D5
:101AE30004AE02120F91DCAE02120F9166AF021226
:101AF3000F919BB002120F914DB102120F9186B15B
:101B030002120F91B7B102120F91C0B102120F91DD
:101B1300ACB202120F9128B302120F91B8B30212A2
:101B23000F9182B402120F9106B502120F913CB5C8
:101B330002120F9185B502120F91008003120F91CB
:101B43000E8003120F91778003120F91AF8003125F
:101B53000F91028103120F919E8203120F917E84D3
:101B630003120F915D8703120F91898703120F915F
:101B7300A98703120F91078803120F913D8803125F
:101B83000F91788803120F91B68803120F91DA2E02
:101B930000120F91009F03120F91279F03120F91C1
:101BA300389F03120F91499F03120F91BC34001207
:101BB3000F91F99F03120F9155A003120F919CA04F
:101BC30003120F918BA203120F9138D703120F91B7
:101BD300B1AD03120F9115AF03120F9118AF03129A
:101BE3000F9157AF03120F91A3AF03120F91D5AF0C
:101BF30003120F91D8AF03120F91DBAF03120F91B2
:101C0300DEAF03120F915F3400120F9194CB0312D6
:101C13000F91AFCB03120F9100CC03120F9145CC60
:101C230003120F91EFCC03120F91F8C903120F9116
:101C33003DCB03120F9117D803120F91559D031239
:101C43000F916E9D03120F91A69D03120F91539E48
:101C530003120F917B9E03120F91C0FC02120F918E
:101C630038FD02120F9143FD02120F9164FD02121F
:101C73000F91749103120F91BC9103120F912A9249
:101C830003120F914D9203120F91ED9203120F91D4
:101C9300F69203120F91439303120F916C93031265
:101CA3000F91CC9303120F91629403120F919694A8
:101CB30003120F91E39403120F913D9503120F91B9
:101CC3006B9503120F91F39503120F91389603123C
:101CD3000F91779603120F91AC9603120F91BE9654
:101CE30003120F91D09603120F91EF9603120F91E7
:101CF300B89703120F91CED203120F919DC2031214
:101D03000F9101C303120F9125C303120F911EC438
:101D130003120F91AB6A00120F918A6B00120F919D
:101D2300C66B00120F91636D00120F91A56D001227
:101D33000F91596F00120F919D6F00120F917E70DA
:101D430000120F910B7100120F91967100120F91F7
:101D5300EC7100120F912C7200120F91CE730012CE
:101D63000F91577500120F916E7700120F917C77C8
:101D730000120F91E17700120F912B7800120F914F
:101D8300047B00120F9173D903120F9189D90312A7
:101D93000F91F5B703120F9108B803120F91A6B86C
:101DA30003120F91E1B803120F91FCB803120F91C4
:101DB30021B903120F9166B903120F9197B9031258
:101DC3000F91C8B903120F913FBB03120F91B8D4FF
:101DD30003120F912CD503120F916ED503120F919D
:101DE3007ED503120F9188D503120F9185FF02123E
:101DF3000F91C6EE02120F910EEF02120F9109F02E
:101E030002120F9193F002120F91DDF002120F9163
:101E13002CF102120F9110F302120F912EF4021201
:101E23000F9169F402120F9164F602120F917FF67B
:101E330002120F91C0F602120F91FCF602120F91DB
:101E430055F702120F916EF702120F918BF70212E0
:101E53000F91EEF702120F917FF902120F91A1F980
:101E630002120F91D6F902120F91FEF902120F918D
:101E73000BFA02120F9110FA02120F917AFA021260
:101E83000F9135FB02120F9169FB02120F9173FB45
:101E930002120F9176FB02120F91EAFB02120F91CD
:101EA30005FC02120F916BFC02120F91A6FC0212A9
:101EB3000F91A9FC02120F91CCD303120F91DDD322
:101EC30003120F9165D403120F91CBB502120F9138
:101ED300F9B502120F9144B702120F91D2B7021251
:101EE3000F914EB802120F91B1B802120F91F3B8CD
:101EF30002120F916CB902120F9110BA02120F91D4
:101F030087BA02120F91C9BA02120F9176BE02125A
:101F13000F9143C002120F91F3C002120F913AC105
:101F230002120F911FC302120F918BC502120F9160
:101F330005C602120F91FBC602120F9164CA021268
:101F43000F9174CA02120F91D4CB02120F914FCC8E
:101F530002120F9169CD02120F91D4CE02120F918A
:101F6300EDDF02120F91ACE002120F9123E1021296
:101F73000F91A8E102120F91FFE102120F91FFE20C
:101F830002120F915CE302120F9161E602120F91AC
:101F93001BE702120F9180E702120F9127E9021249
:101FA3000F91DBE902120F9146EA02120F91F7EB50
:101FB30002120F9190EC02120F9186ED02120F9113
:101FC300BFD903120F91C1D903120F918CC403120D
:101FD3000F91DBC403120F9194C503120F91FAC53D
:101FE30003120F91C5C003120F911EC103120F916B
:101FF300A0D503120F91ECD503120F913AC8031227
:102003000F9148C803120F91C6D903120F91BFD67F
:1020130003120F91CFD603120F91E7D603120F913C
:102023002FD703120F91B0D003120F91D7D0031201
:102033000F915CD103120F91B5D103120F91DD9E65
:1020430003120F91F57F00120F9190B403120F91B9
:102053009EB403120F9118B503120F91E4B5031246
:102063000F9190B703120F9104CD03120F913DCD41
:1020730003120F915ACD03120F91B8CD03120F9192
:102083001DCE03120F91E19703120F914D98031286
:102093000F91069903120F91839903120F91A39A3B
:1020A30003120F91329C03120F919C9C03120F9108
:1020B300F59C03120F91019D03120F91109D0312C2
:1020C3000F91239D03120F91399D03120F91429D8E
:1020D30003120F91457B00120F91987B00120F9111
:1020E300A07D00120F91D27D00120F91F47D00129A
:1020F3000F910D7E00120F91267E00120F91287F03
:1021030000120F91B67F00120F916BC603120F914D
:102113009DC603120F91A9C603120F91DCC60312C9
:102123000F910DC703120F913BC703120F91B0C755
:1021330003120F91DFC703120F9156BB03120F91C6
:102143007CBB03120F91B9BB03120F91CBBB0312DC
:102153000F91E7BB03120F9155BC03120F915EBCA5
:1021630003120F91BDBC03120F91E1BC03120F9137
:10217300A0BD03120F91ADBD03120F91BEBD03129B
:102183000F91ABD703120F91F8D703120F9168B1D8
:1021930003120F91B0B203120F91BDB203120F914C
:1021A300D0B203120F91EFB203120F9105B30312D2
:1021B3000F9119B303120F9193B303120F9129B423
:1021C30003120F9171B403120F9181B403120F9193
:1021D30032FF01120F9156FF01120F917EFF011280
:1021E3000F91A6FF01120F91ECBD03120F9105BED3
:1021F30003120F9111BE03120F9125BE03120F910B
:1022030043BE03120F914DBE03120F9157BE03122B
:102213000F916ABE03120F91BEBE03120F91F7BE58
:1022230003120F9126BF03120F9174BF03120F9174
:10223300C3BF03120F91DEBF03120F91E8BF031256
:102243000F91F9BF03120F913FC003120F91C6D82C
:1022530003120F913A8903120F91668903120F91AA
:10226300828903120F91958903120F91AB8903128F
:102273000F91178A03120F914A8A03120F91A78DA8
:1022830003120F91D28E03120F91058F03120F9138
:102293006A8F03120F91529003120F917A900312D7
:1022A3000F918F9003120F919F9003120F91E39060
:1022B30003120F91389103120F91489103120F915A
:1022C3005CCE03120F9177CE03120F91A0CE0312AF
:1022D3000F91BACE03120F91DFCE03120F91FECEF0
:1022E30003120F9116CF03120F9144CF03120F91D4
:1022F3005ECF03120F910ED903120F9131AA03126D
:102303000F9138AA03120F9144AB03120F9174ABD0
:1023130003120F919AAB03120F91CDAB03120F91DE
:10232300DFAB03120F9119AC03120F917FAC0312B1
:102333000F91B8AC03120F9104AD03120F9131AD9D
:1023430003120F9151AD03120F918FCF03120F910F
:10235300B1CF03120F91ADD003120F91CED103125F
:102363000F912DD203120F916BD203120F91ACD2A6
:1023730003120F9177F501120F9181F501120F915D
:10238300C3F501120F91B1F701120F9197F80112E2
:102393000F91DBF801120F910EF901120F9198F9C9
:1023A30001120F910FFD01120F91FAFD01120F910E
:1023B30076FE01120F91B3FE01120F91FBFE011283
:1023C3000F914ED903120F9165D903120F91E1A218
:1023D30003120F9100A303120F914BA303120F914A
:1023E30067A303120F9198A303120F91AFA30312D4
:1023F3000F91BCA303120F91D9A303120F91BCA495
:1024030003120F91F3A403120F91FDA403120F9172
:1024130004A603120F910FA603120F9121A6031214
:102423000F912AA603120F9134A603120F919BA6B4
:1024330003120F9115AA03120F91CBFF01120F91F3
:1024430093D903120F9131D603120F915BD6031266
:102453000F919ECF02120F91BCD402120F918E2EB8
:1024630000120F916D2E00120F91302E00120F915A
:10247300F52D00120F91D12D00120F91B62D0012E0
:102483000F91462D00120F91742C00120F91D92B2E
:1024930000120F91682B00120F91AA3400120F91B2
:1024A300A29F03120F91492B00120F91372B001299
:1024B3000F91EB3300120F91C43200120F914CF5C0
:1024C30001120F912EF501120F915AF401120F917F
:1024D300BEF301120F914AF201120F91F6EF0112AE
:1024E3000F9191EF01120F914AEC01120F9122EC1F
:1024F30001120F91C7EB01120F91A4EB01120F917F
:10250300FEEA01120F91A6EA01120F9103E90112EB
:102513000F9100E901120F910FE801120F91EFE7FC
:1025230001120F913FE701120F91C1E501120F91C3
:1025330088E501120F9159E501120F919F320012A4
:102543000F914D3200120F91283200120F91E53195
:1025530000120F91F53000120F9156E501120F9101
:1025630048E501120F9134E501120F916530001215
:102573000F9127E501120F914FE401120F91DBE355
:1025830001120F91A1E301120F9149E301120F917F
:10259300823400120F91BEB003120F91B42F0012B8
:1025A3000F9118E301120F914AE001120F9108E015
:1025B30001120F91FCDF01120F916FDF01120F91D6
:1025C300BDDE01120F915CDC01120F91C6D901121D
:1025D3000F9190D901120F912ED801120F91DDD7CF
:1025E30001120F9116D701120F91E9D601120F9123
:1025F30043D601120F9116D601120F91DCD50112A9
:102603000F91FC880300000080FBC2C732E473878C
:10261300000100461C24000200201C2500020022A9
:102623001C26000200241C27000200261C2800018F
:1026330000281C29000100291C840004002A1C8690
:102643000001002E1C2A0001002F1C2B000100306A
:102653001C2C000100321C2D000800E0112E00018B
:1026630000331C2F000100341C30000100351C31E5
:10267300000100361C32000100E81133000100E9BB
:102683001134000100371C36000100EA11830002F7
:1026930000441C62001000F3116300010003126484
:1026A300000100DD1165000100311C6D00010043D4
:1026B3001C6E000200DE1143000100381C440002BE
:1026C30000391C450001003B1C460002003C1C472E
:1026D300000800EB11480001003E1C490001003FC7
:1026E3001C4A000200401C4B000100421C04000174
:1026F30000471CA1000100491C37000100481C00D1
:102703000000000000000136360101000102010053
:102713000103010001040106060502000007010090
:10272300340801000F090401010D0100FF0E080028
:102733000017020000190100FF1A0100011B01002C
:10274300FE1C0100081D0200001F01000120010002
:1027530001210200002301000F24020000260100D2
:102763000127010008280200FF2A0100072B0102AC
:10277300402C0100002D0100012E0100012F01005A
:10278300FF30010B1C310800003A0100083B010037
:102793000F2F010000030271023001600211027069
:1027A300020102020202028002100261023A0041A7
:1027B30000630273027202620243020002130238D0
:1027C30000000200020402120200020002000200E2
:1027D3000204020402370037003C024402000239BB
:1027E30000000200026502000235028102000205B8
:1027F3000282028302000201017101010101011140
:102803000101013101010101018001100161013B5D
:10281300001400630173017201620143010001139B
:102823000106013D01350004011201000100010010
:1028330001000104010401330133013C014401326D
:10284300013600000100016501000135008101002E
:1028530001050182018301000101037103010301E9
:102863000301030103010322030203010310030015
:1028730003000300030003000300030003420300FB
:1028830003240306030003000304031203250323A5
:102893000325032303040304030003000300034489
:1028A30003000300032303000365032100350381B1
:1028B3000300030503000300030003030471040280
:1028C30004600411047004020402040104020410ED
:1028D3000461040004140463047304720462044373
:1028E3000400041304060400040004040412040096
:1028F3000400040004000451046400000400040004
:1029030004440400040004000400046504000435C6
:1029130004810464000504000483040004030071BB
:102923000030016000110070003102200350048068
:102933000010006100000014006300730072006265
:102943000043000000130006000000000004001212
:1029530000000000000000000004000400370037FE
:10296300003C02440000000000000000006500007D
:1029730000350081000000050000008300000036E0
:10298300000100060000000F00000000000000002E
:10299300000000000003FFFF00000403FFFF00002E
:1029A300FFFF0FF4010005C4040320000100000B26
:1029B300000000000000000003010F0000841F134B
:1029C300001E1F0100841F0200E81E0300EE1E0408
:1029D30000F41E0500FA1E0600061FFFFF0000019B
:1029E3006A1506A015089A150BB21510F214027099
:1029F30015058E150776150C52150D5E15FF000093
:102A0300030003000400080010001F003E007B00C9
:102A1300F600EC01D703AF075D0FB91E713D00004F
:102A230003EAF5E5D5D5C5B5A59595858575756590
:102A33006555554545353525251515057219A219D1
:102A430078197E199C1990198A19A819AE19B41905
:102A5300C01984196C1966199C36063A703DD94021
:102A63004344AD47174B814EEA5100160F00000B4C
:102A7300150B020002220F320000060001020304BC
:102A830005060708090A0B0C0D0E0F621A741A7A51
:102A93001A3C19801A36194219DA1AF81AFE1AE082
:102AA3001AEC1AE61A76187018AC18B218A6185E43
:102AB300180C0E020B040B0A0708000F0003494809
:102AC300424D18172505020001191618161615236D
:102AD3000300303017181921301B1D1F3000383CFC
:102AE3003E363B3B352B432C303016181920231A26
:102AF3001C1E309619BA19F21AC619CC19CE1A86A9
:102B03001A8C1A981A921A821888187C18B8180006
:102B130005150D0910080400BE040A8E18A0180E2E
:102B23000004001500010309280C100A0900000520
:102B330004080F08C082C0838A828B83E0D2E7F047
:102B4300121E8E024B6BC082C083790012542D90EB
:102B5300032E125AC2C3EA9CEB9D500612320D603B
:102B63000109024B6B74F7120A59EA125AB9EB12B4
:102B73005EB8122D92AEF075F00BEDA42EFD90030E
:102B830030E02CFEA3E03DFFEA2403FCEB3400FD20
:102B9300740169600574026970278A828B83A312AA
:102BA30054378E828F83A31248CA740269701DEC56
:102BB300FAEDFB122476E97013E48E828F83F080A2
:102BC3000BEE2403FAEF3400FB12247CEEFAEFFB46
:102BD3001224AC023C0574F2120A598A088B09EAE2
:102BE300240BF50CEB125E9D79008A828B83E060E7
:102BF30070890A890B805FE50A75F00BA4FAACF0C3
:102C030075F00BE50B122F9F7049AE82AF838508D9
:102C13008285098312656E123059A3125E3BA3129B
:102C23004A89E5082403FCE5093400FDEE24030A80
:102C33000A0AEF3400FB12247C850C82850D83E5A0
:102C43000AF0A3E50B1250351224AC790190032E40
:102C5300125ACA122C67122F97E50A9AE50B9B406A
:102C63009602447FE50A2401F50AE50B3400F50BCF
:102C73002274F1120A59EAFEEBFF740F1212A61224
:102C830040AC750E01850882F583A385820C85838C
:102C93000DEE240BF8EF3400F9EC7001ED6030EC2D
:102CA300125AB9ED1248C07901EEFAEFFB122494DF
:102CB300E5087002E5097003022D3F850C82850D3E
:102CC30083125EA27902AA08AB09122494806DEEE6
:102CD3002403F50AEF122C6FE5087002E50960334F
:102CE300125AB7E5091248C0E5082403FAE5093486
:102CF30000122F8F700CEEFAEFFB12248EE9F50E03
:102D030080B9AA0AAB0B122F9070317903EEFAEF58
:102D1300FB80B78E828F83A3E064FE7004A3E0641C
:102D2300FF700A0A0A0AAB0B122F90700CEEFAEF2F
:102D3300FB12248EE9F50E8003750E00A90E7F07A2
:102D4300020D0174F7120A5990032E1248CAEA7051
:102D530001EB6031EA75F00BA4FAACF075F00BEB04
:102D6300A42CFBEAFEEBFF121D089003301248CAA5
:102D7300900330E07002A3E06012EEFCEFFD7900F7
:102D8300121C7E8007900330E4F0A3F0023C05128E
:102D93005E5FEC75F00BA4FC22E875F00BA4F8AAB7
:102DA300F075F00BE9A42AF9900330E02822EE989D
:102DB300EF9922C082C083EC7001ED600512236E8F
:102DC30080097C087D007900121C7E024B6B74F62F
:102DD300120A597900EA7001EB60147C008C081226
:102DE3006042600479017C080CECC3940840EE0255
:102DF3004B2374F7120A5974F312108CECFEEDFF97
:102E0300E4851882851983F074011212A61240E436
:102E1300121B8E74031212A6AC82AD83EEFAEFFB83
:102E230012247CEEFAEFFB122476023C0074F712B4
:102E33000A5974F312108CECFEEDFFE485188285B9
:102E43001983F0EAFCEBFD74031212A61241197404
:102E5300011212A6124A8674FE68700374FF696039
:102E630004790180027900023C0074F7120A59EADE
:102E7300FEEBFF122EBB7010122EC664FFFC8A827B
:102E83008B83E05CF01224AC0243DB74F7120A5923
:102E9300EAFEEBFF7508008E828F83E06017122E27
:102EA300BB7012122EC6FC8A828B83E05C7006E034
:102EB3004CF01224AC0243DB1224A6E9F50874019A
:102EC3006508221248B5124E6C122D9CFAA3E03904
:102ED300FB8E828F83E02274F0120A598A088B09D1
:102EE300EA2403FEEB3400FF7C007D000A0A0AFBA0
:102EF30012247CE508240BF50CE509125E9D79008C
:102F0300850882850983A385820A85830BE064FE95
:102F13007004A3E064FF6065890889098054E508AB
:102F230075F00BA4FAACF075F00BE509122F9F6056
:102F33003E850A82850B8312674DA3E06C7003A361
:102F4300E06D702BEA2403F50EEB3400F50F122F1E
:102F53008C700BAC0EAD0FEEFAEFFB12247C850CDC
:102F630082850D83125E74790190032E1240AC1298
:102F73004B0B122F97E5089AE5099B40A180057436
:102F83000D120FFA7F08020D010A0A0AFB122476BA
:102F9300E964012290032E12543BC322A42CFB901C
:102FA3000330E02AFAA3E03BFB8A828B83E0540FD1
:102FB3002274EF120A598A828B83A385820E85833A
:102FC3000F125EA2EA240BF508EB124B138508825D
:102FD300125EA0751000EA2403F50CEB3400F50D26
:102FE300122F8C7065750A00750B008055E50A7504
:102FF300F00BA4F8AAF075F00BE50B123054540F44
:10300300603DAE82AF83EE2403FCEF3400FDAA0CD7
:10301300AB0D122368E9640170258E828F83A3129E
:103023004B07850E82850F83E8F0A3E9123059E53B
:103033000AF0A3E50BF075100190032E125ACA1281
:103043002C6790032E123F9F40A3A9107F09020D06
:10305300011230E3E02212305D22F08508828509F7
:10306300832274F3120A59EAFEEBFF8E828F83A345
:1030730085820A85830B125EA2EE2403F508EF1204
:103083004B137C007D000A0A0AFB12247CEEFAEF44
:10309300FB1224A6E9F50C7401650C703EEE125A7E
:1030A300B9EF1230ED75F00BA4F8AAF075F00BE947
:1030B3001230E3A3125437850A82850B831248CA60
:1030C300E82403FEE93400FFEEFAEF122F8F700BB2
:1030D300EEFCEFFDAA08AB0912247CA90C023BB558
:1030E300122DA8F8A3E0390257961248BB124E6C72
:1030F300E82274EE120A5974E612108CEAFEEBFF12
:10310300EE240BF50AEF122C6F850A82125EA0756E
:103113000E01750800750900751000751100E4852E
:103123001882851983F0EE2403FCEF3400FD740349
:103133001212A6AA82AB8312247C8E828F83A3856C
:10314300820C85830D851882851983AA82AB83122D
:10315300259CE964017034740B1212A6124B078587
:103163000A82850B83124A8974011212A6124B0735
:10317300850C82850D83E0687003A3E06960558543
:103183001882851983858208858309740D1212A616
:10319300E4125E65F8A3E0F9740E1212A6124A89CE
:1031A300740D1212A6AA82AB83121B8EE9640170FE
:1031B3000B740D1212A68582108583117810120FDD
:1031C300E7AC08AD09EEFAEFFB1224887402120F84
:1031D300FAE9F50EEEFAEFFB12245EA90E741A0259
:1031E3005C4CC082C083780079008003123952128C
:1031F3002F97E89AE99B500DE8FAE9FB12320D701C
:10320300EB790080027901024B6BEA75F00BA4FAAB
:10321300ACF075F00BEBA42CFB9003301268E5F5D2
:1032230083E0540F22C082C083902B26123ABCEC59
:1032330075F012A4FCAAF075F012EDA42AFD79FF33
:103243007ABC7B16121C7E024B6B74F6120A597EF3
:10325300007F007C007D0080348C088D09E50875B3
:10326300F012A4F508ABF075F012E509A42BF509EB
:10327300E50824C0F582E5093416F583E0FBC3991C
:103283004008EAC39B4003123D2712373C1236D451
:10329300C3EC9508ED950940C00268DEC082C08387
:1032A300780079008003123952902B26123C9C50EF
:1032B3000912364664FF70EE80047A007B00024BED
:1032C3006B74F0120A5974F312108C8A0A8B0BEC8C
:1032D300FEEDFF890CEE7001EF6011EEFAEFFB12C9
:1032E3001BAC8A088B09EA7001EB705212253C8AE9
:1032F300088B09EA7001EB60457401851882851912
:1033030083F01212A6E50AF0A3E50BF0EEFCEFFD45
:1033130074031212A6123458740B1212A61238290F
:10332300A3A3124A89E4850882850983A3A3A3A3DF
:10333300A3A3125E57AA0AAB0B1217BC800BE508B6
:103343007002E50970030233D07A00E50C6007C30D
:10335300940550027A04850882850983125E83A34B
:10336300A3A3E50CF0EA850882850983A3A3A3A39D
:10337300A3F07402850882850983A3A3A3A3A3A34F
:10338300A3A3F07401850882850983A3A3A3A3A340
:10339300A3A3A31233E4A3A3A3F0E5082410F582A7
:1033A300E509125EB8E4F01233E4F0125AB7E50906
:1033B300125EB8E4F09080E3780C12122DE5082435
:1033C3000CF582E509125EB8780C12124B1235A780
:1033D3004005E4901BC5F01216A8AA08AB09022FFA
:1033E30082A3124A470258E574F2120A5974F3127F
:1033F300108C8A088B09ECFEEDFF750A00EEFAEFDC
:10340300FB121BAC8A0C8B0DA80CA90DE87001E90B
:10341300603E88828983E065087004A3E0650960E3
:103423002F88828983A3A3A3A3E0C3940550211209
:103433005E707401851882851983F01212A6125EDC
:1034430074EEFCEFFD74031212A6123458750A01D0
:10345300A90A02447A1241201225542274F6120A50
:10346300591234A07002E5836010A3A3A3A3E06004
:1034730009C394055004790180027900024B237437
:10348300F6120A591234A07002E583600BA3A3A3BA
:10349300A3E07004790180027900024B2312249A7D
:1034A3008A828B83E58222C082C083EAFCEBFD7AA9
:1034B300007B001212C4024B6BC082C0837C007D70
:1034C3000080F074F2120A5974F312108C8A0C8B78
:1034D3000D8C0A8D0B7E007F00802112382F121273
:1034E300A612353E601374031212A6AC82AD83AAF2
:1034F3000CAB0D122368E97035123D27902B261271
:103503003D3750301236F060F0E50C7002E50D7077
:10351300CA74FF650A700474FF650B60DC8508825A
:10352300850983E0650A7004A3E0650B70CBAA08E4
:10353300AB0980047A007B0002447AE8F0A3E91225
:10354300414412256CE92274F4120A5974F31210DF
:103553008C750800121BAC8A0A8B0BAE0AAF0BEEFC
:103563007001EF602A7401851882851983124A80DD
:10357300F8A3E0F9740B1212A612413C1224647CE6
:10358300127D0079FFEEFAEFFB121C7E7508011223
:1035930035A750097401901BC5F01216A8A9087429
:1035A3000D024B797A047900122542902B26123DA5
:1035B3003DEA98EB992274F7120A59E9FE74FE6A00
:1035C300700374FF6B780079007005804D123952D7
:1035D300902B2612393D5042E8FCE9FDEC75F012C0
:1035E300A4FCAFF075F012EDA42FFDEC24BCFCEDB0
:1035F3003416FD8C828D83A3A3A3A3E064FF60CD67
:103603008C828D83E06A7003A3E06B70C08008EC4A
:103613006005C39405401C123952902B26123C9C22
:10362300501A123646FCEE70E674016C60057403A2
:103633006C70E48A828B8312543780047AFE7BFF9A
:10364300023C05E8FAE9FBEA75F012A4FAACF0755E
:10365300F012EBA42C12375B221212D0024B6BC078
:1036630082C083790180F274F0120A598A0A8B0BA3
:103673007A0479011225428A0CEA7001EB6040EA70
:10368300C333FAEB33FB121D088A088B09AE08AF6C
:1036930009EE7001EF60237AFE7BFF1212D674FEEF
:1036A3006A700374FF6B601B850882850983124867
:1036B300CAE5082402124B0F80E1750C0080047EDA
:1036C300007F00850A82850B83E50C125035022F9B
:1036D30087902B261236DB22E493F508740193F5C9
:1036E3000922902B26E493FA740193FB22EEF8EF60
:1036F300F9E875F012A4F8AAF075F012E912380E81
:10370300A3A3A3A3E064FF2274F7120A597C007DEC
:103713000080041912373C123733500D123745C35A
:10372300940550F0E970EC80047A007B00023C05BC
:103733001236E5C3EC9AED9B22EC24010CED340028
:10374300FD22ECFAEDFBEA75F012A4FAAEF075F087
:1037530012EBA42E12375B22FBEA24BCFAEB3416DD
:10376300FB8A828B83A3A3A3A3E02274F3120A59D7
:1037730074F312108C750A00750B008052E50C125D
:103783005E2E8E828F83123829E0687003A3E0696E
:10379300602574011212A6E0687003A3E069601744
:1037A300EE2402FCEF3400FD74031212A6AA82ABCE
:1037B30083122368E96007EEFAEFFB1217C8050CC2
:1037C300902B2DE493FAE50CC39A40B1122C6712A7
:1037D3003821E50A98E50B99502CE50A75F012A4F7
:1037E300F8AAF075F012E50B12380EE064FF7004CE
:1037F300A3E064FF60D612382F1212A612353E6082
:10380300CB750C0080BA740D023BB2A42AF9E824EC
:10381300BCF508E93416F509850882F58322902B57
:1038230026E4123D3E22124E6C02305E740185186E
:1038330082851983124A47124E6C740B2274F61256
:103843000A59123E41123ABCEC8508F0A4CCAAF006
:103853008509F0A42AFA8508F0EDA42AFD79FF7AF8
:10386300737B1B121C7E9003337400F0A37413F05C
:1038730090033574FAF0A37412F09003377424F0B4
:10388300A37413F09003397436F0A37413F0900308
:103893003B743CF0A37413F090033D7442F0A374A3
:1038A30013F090033F7448F0A37413F0E4900332D1
:1038B300F0024B23C082C083780079008003123961
:1038C30052123C995024E8FAE9FBEA75F00EA4FA87
:1038D300ACF075F00EEBA42CFBEA2473F582EB122B
:1038E300432C70DAAA82AB8380047A007B00024BFC
:1038F3006B74F7120A597A007B0078007900802FE5
:10390300E8FCE9FDEC75F00EA4FCAEF075F00EEDED
:10391300A42EFDEC2473F582ED12432C600EA3A3B9
:10392300A3A3A3E0FCEA2CFAEB3400FB1239529078
:103933002B2412393D40C9023C05E493FC740193E6
:10394300FDC3E89CE99D22120FFA7F03020D01E8F3
:10395300240108E93400F92274EC120A5989108A07
:10396300088B098C0D8D0C74141212A6125ACA7E80
:10397300007F00121360AA08AB091213668A0E8B2C
:103983000F850882850983A3A3A3A3A3A3A3A3E00D
:10399300640170077508018E0980058E08850D097D
:1039A30074FE650E700474FF650F7003023A9F8EF8
:1039B3000D8002050D850D12902B2412658F507119
:1039C300E50D75F00EA42473FEE5F0123DFA6510C3
:1039D30070E1A3E0650870DB8E828F83A3A3E065AB
:1039E3000E7004A3E0650F70CA8E828F83A3A3A316
:1039F300A3E0650970BD750D00E50DC3950C40038B
:103A0300023A9FE50DC333F8E433F9E50A28F508D4
:103A1300E50B39F50985088212639112130CE970DD
:103A23000C850882850983126393121318050D8090
:103A3300C81212F48A128B13AE12AF13EE7001EF99
:103A4300605A8E828F83E510F0A3E508124AF3A330
:103A5300E50EF0A3E50F124AF3A3A3A3E509F09043
:103A63002B33E493C3950C5004E493F50C8E828FAF
:103A730083A3A3A3A3A3E50CF0850A08850B09750B
:103A83000A007808120FE3E50CC333FCE433FDEEC0
:103A93002406FAEF3400125E7C120FFAEEFAEFFB03
:103AA3007F0C020D01C082C083123AB979FF121C48
:103AB3007E7901024B6B902B22E493FC740193FDFE
:103AC3002274F7120A59EA7001EB60498A828B83E8
:103AD300A3A3A3A3A3A3E5827002E58360377E00BB
:103AE30080010E8A828B83A3A3A3A3A3E0FFEEC36B
:103AF3009F5022EEC333F8E433F9EA28F582EB3919
:103B0300F583A3A3A3A3A3A3E06C7003A3E06D7049
:103B1300D1790180027900023C0574F3120A59EA53
:103B23002405F8EB3400F9E8FEE9FFEA7001EB60E5
:103B33006F8E828F83E06073EA240608EB3400F90A
:103B4300E0F50B750A00800B8E828F83E014F06022
:103B53005A050AE50AC3950B5046E50AC333F5082F
:103B6300E433F509EA2508F508EB3509F509740688
:103B73002508F508E43509F509850882F583E06C25
:103B83007003A3E06D60C1850882850983E0F508B1
:103B9300A3E0125E6EE824020808E93400F980B15C
:103BA3008E828F83E06004790180027900800312A2
:103BB3000FFA7F05020D0174F7120A59EA7001EB3F
:103BC300603712673BC0E0902B33E493FED0E0C331
:103BD3009E502688828983E0C333FEE433FFEA2EB6
:103BE300F582EB3FF583A3A3A3A3A3A3ECF0A3ED7B
:103BF30012624E04F07901800279008005740D127F
:103C03000FFA7F01020D0174F2120A5989088C0917
:103C1300123D467005125AC68003123D1F74FE659D
:103C23000A700474FF650B70067A007B0080647869
:103C330000790080187401650C700F8C828D83E00D
:103C4300650A7004A3E0650B6049123952123C996E
:103C530050D71240C88A828B83E0650870ECA3E0DA
:103C6300F50CEA2402FCEB3400FD8E828F83E064C2
:103C73000160C2E50C70D38C828D83E0650A700409
:103C8300A3E0650B70C48A828B83A3A3A3A3E0651F
:103C93000970B702447F902B241236E8C3E89AE9EF
:103CA3009B2274F2120A59EA2408F8EB124A776449
:103CB300017005125AC68003123D1F74FE650A7017
:103CC3000474FF650B60527E007F008047EEF8EFBF
:103CD300F9E875F00EA4F8AAF075F00EE9A42AF934
:103CE300E82473FAE9341BFB850882850983E064C1
:103CF30001701B8A828B83A3E0640170148A828B18
:103D030083A3A3E0650A7004A3E0650B7003121399
:103D130006123D27123D3440B402447F12134E8AEB
:103D23000A8B0B22123D2CFF22EE24010EEF3400EE
:103D330022902B24123D3D022DB1E493F87401939C
:103D4300F9C322EA2408F8EB125E8EE064012274C0
:103D5300F3120A59890C8A0A8B0B7508007509003E
:103D63007E007F00801B124079650C7011AC0AAD98
:103D73000BAA82AB8312130CE96003124B0B123DA7
:103D830027123D3440E0AA08AB09023BB574F11297
:103D93000A59890D8A0A8B0B8C0E750C0075080065
:103DA3007509008005050C124B0B902B2412382447
:103DB300E50898E509995038E50875F00EA4F8AAC6
:103DC300F075F00EE509A42AF9E82473FEE9123D23
:103DD300FA650D70D2AC0AAD0BEEFAEFFB12130CC1
:103DE300E960C4E50CC3950E40BBEEFAEFFB80041B
:103DF3007A007B00022D41341BFF022ED474F6128D
:103E03000A597508007509007808120FE7123E4138
:103E1300124056E9A42AF975832B758222E493286C
:103E2300FCA3E49339FD7A417B00121D6E740212E8
:103E33000FFAE9FE600312133CEEF9024B23902BB9
:103E4300221236DB902B242274F6120A5974FE12C6
:103E5300108C123E6F120FE775080275090078087F
:103E6300120FE77C007D007A41024B18851882858A
:103E73001983E4F0A31240BC85820885830978087E
:103E83002274F4120A5974E712108C7E007F0085A5
:103E930018828519838582088583097808120FE7BC
:103EA3007508028E097808120FE77C007D007A41BD
:103EB300123FAA120FFAE96003023F8E8E0A8E0B9D
:103EC300805874021212A6AC82AD83740D1212A62E
:103ED300125437121354740A1212A6E06039741183
:103EE3001212A68582088583097808120FE77412D7
:103EF3001212A6E0FD74111212A6E0FC7404121251
:103F0300A6AA82AB83740D1212A6E0F912130074F1
:103F130002120FFA123D27122C6785188285198326
:103F2300123F9F5066740B1212A68582088583097F
:103F33007808120FE7902B22120DED902B22123FDF
:103F430097E8850AF0A4C8AAF0850BF0A42AFA859D
:103F53000AF012406B123FAA120FFAE970B9740A01
:103F63001212A6E4F0740C1212A6E07003023EC50E
:103F7300740A1212A67401F0740D1212A6124B07E2
:103F830074021212A6124A89023EE1EEFAEFFB74A2
:103F930019024B79E493F8740193F922124E6CC31E
:103FA300E50A98E50B99227B00121D8074042274A4
:103FB300F5120A5974F012108C851882851983E45E
:103FC300F0A3F0FE805A12407964FF6050858208A6
:103FD300858309750A007808120FE3123AB974054C
:103FE3001212A6AA82AB83125E7D120FFA7402121A
:103FF30012A68582088583097808120FE7902B2281
:10400300120DED74041212A61240AC902B22124032
:104013005612406B1240B4120FFA12409C123D2C00
:10402300FF123D3440A08518828519838582088557
:1040330083097808120FE7750802750900780812DA
:104043000FE77C007D007A411240B4120FFA74101E
:1040530002394A123F97E88508F0A4C8AAF08509F7
:10406300F0A42AFA8508F022E9A42AF9740228FCAC
:10407300E439FD7A412212407EE022EEF8EFF9E8BE
:1040830075F00EA4F8AAF075F00EE9A42AF9E82455
:1040930073F582E9341BF58322851882851983E041
:1040A3002401F0A3E03400F022E0F508A3E0F509D1
:1040B300227B00121D7A7404221240C022F085185C
:1040C3008285198322E8FAE9FBEA75F00EA4FAACBB
:1040D300F075F00EEBA42CFBEA2473FAEB341BFB14
:1040E30022EAF0A3EB12414422C082C08374F3128C
:1040F300108C1242AD6402700E1241321212A612DB
:10410300413C121B8E800CEAFCEBFD74031212A6D9
:10411300124119024B6012412012259C22AA82AB44
:104123008312247C851882851983AA82AB83228A11
:10413300828B83124E6C740122E8F0A3E91241448E
:1041430022124148221240C080E074F7120A5974C7
:10415300F312108CECFEEDFF74048518828519832D
:10416300F0740B1212A6EAF0A3EB123542F50860C5
:104173001D74038E828F83A3A3A3A3A3A3A3A3F07E
:104183001212A6AC82AD83EEFAEFFB12236EA908DE
:10419300023C00C082C08374F312108C740485182F
:1041A30082851983F0740B1212A61240E412256C57
:1041B3007401024B6212543B740D2274F6120A59B5
:1041C30074F312108C900332E0706E7404851882BD
:1041D300851983F09003711241361212A6124A898F
:1041E300121672EAFCEBFD74031212A61234581273
:1041F300167E8A088B09A808A90974011212A6E081
:10420300687003A3E069602B74FE68700374FF6930
:10421300602174011212A6124A8974031212A6AA0B
:1042230082AB83121684851882851983AA82AB8395
:104233001225547401900332F0740D024B20C08296
:10424300C08374F312108C1242ADFC74026C701EA6
:104253001241321212A6E8F0A3E9125CB770488546
:104263001882851983AA82AB83122554803974037B
:104273006C7011EAFCEBFD74031212A6124119E9EA
:10428300702580DB74016C70128A828B83124B075A
:10429300740B1212A6E8F0A3E9800B740B1212A69A
:1042A30074FEF0A374FFF0024B60740485188285DA
:1042B3001983F08A828B83A3A3A3A302376874F5BF
:1042C300120A5978007900880888097C007D0080EB
:1042D3000312373C902B24E493FE740193FFC3EC49
:1042E3009EED9F5021ECFEED12431060E4AE08AF4B
:1042F3000974012EF508E43FF509EA6E7002EB6FCD
:1043030070CFA882A983E8FAE9FB02394DFFEE7565
:10431300F00EA4FE85F00A75F00EEFA4250AFFEE59
:104323002473F582EF12432C22341BF583E064FFE0
:1043330022C082C0839003467488F0A37415F09062
:1043430003487482F0A37415F090034C74E4F0A353
:104353007413F0024B6BC082C08390034A747CF0E9
:10436300A37415F0024B6B74F7120A59EAFEEBFFC4
:10437300900380E0FA74086A601974046A60148E0A
:10438300828F83E0640170461248B112553AE064AB
:1043930006703B8E828F83A3A3124B0774FE687053
:1043A3000374FF696028900371E0687003A3E069F8
:1043B300700BEE2415F582EF126048600AEEFA12D4
:1043C300163CE9F508800AEEFA12164280F47508E5
:1043D300C2EEFAEFFB121D0EA908023C0574F2129D
:1043E3000A598A088B098A828B83A385820A85836B
:1043F3000B8A828B83E0F8850A82850B83E028FA97
:10440300E43400FB121D088A0C8B0DAE0CAF0DEECD
:104413007001EF605C850882850983E0FC7D00798B
:1044230000121C7E8E828F83A3A3125EA2121678C3
:104433008E828F83A3A3A3A31248CA85088285090A
:1044430083E0F8EE28F8EF3400F91248B1124E4F2A
:10445300C0E0125EB2D0E0F012168AEE240E125EB5
:10446300B5E9124A43E0C0E0EE2411125EB5D0E094
:10447300F0EEFAEFFB8005740D120FFA7F06020DC2
:104483000174F4120A5974EB12108C8A088B098C8C
:104493000A8D0B900381780812124BE9900387125F
:1044A300473C12124B74051212A6E9F0740412125F
:1044B300A67401F074071212A6E4F074029003804C
:1044C300024B7674F4120A5974EB12108CEAFEEB69
:1044D300FF900342E07002A3E070677A077B00124B
:1044E3001D089003421248CA900342E07002A3E001
:1044F300604C900342125AC28F838E827407120F4C
:104503000A8E828F83780812122D8518828519836B
:10451300780812124B8E828F83A3A3A3A3E0C0E07B
:1045230074051212A6D0E0126248C0E0740412129D
:10453300A6D0E0F074071212A61246868006791000
:10454300800279017415024B79C082C083900342C3
:10455300E07002A3E06010900342125437121D0E64
:10456300900342E4F0A3F01215AC121768024B6BF0
:1045730074F3120A5974EB12108CECFEEDFF7422E3
:104583001212A6780812122D74261212A6E0FC74D9
:10459300271212A6E0FD74281212A6E0F50C740F80
:1045A3006C7005740F6D6012901C36E06402700528
:1045B30079C1024681ECC39D40F6900381780812CD
:1045C300124BE9900387F0EC900385F0ED9003869E
:1045D300F0E50C900388F074FF6A700374FF6B704E
:1045E3001F901C44E064FF7004A3E064FF70051295
:1045F3001C8A800C901C44124A3CE8F0A3E9800713
:1046030090037EEAF0A3EBF0EE7001EF6017EEFA91
:10461300EFFB121822E96401700BEEFCEFFD7A92B6
:104623007B0312236E900371E4F0A3F0900374F004
:10463300A3F0900391F0901C36E06402700A740FAB
:10464300900385F0900386F07405900380F0740462
:104653001212A6E4F0900381780812122D851882B5
:10466300851983780812124B900387E0C0E0740524
:104673001212A6D0E0F074071212A6124686741521
:10468300023BB2E412468B221241481223F82290D5
:1046930003CCE0F9121DB622C082C083900341E02F
:1046A3007003121F181213A8024B6BC082C08390B1
:1046B3000341E07007E4901BC4F080317401901B48
:1046C300C4F0900341E064FF60237C41E0C3944164
:1046D3005002E0FCECFAE0C39AF0EC75F0E8A4CCED
:1046E300AAF075F003A42AFD7A801246FC7AC47BF3
:1046F3001B79411223E0024B6B7B009003CCE0F962
:10470300121DAA2274F4120A5974EB12108C8A082F
:104713008B098C0A8D0B740190038012473C121293
:104723004B74051212A6E9F074041212A67403F076
:1047330074071212A6E4024B761240BC78082212C8
:10474300468B74152274F4120A5974FC12108CE906
:10475300851882851983F0EAFEEBFF90037E125AD7
:10476300C21215A68A0A8B0BEA7001EB700579CA8F
:104773000248ACEA2409F508EB124B13850882F5CD
:1047830083E064FE7004A3E064FF700579C302480C
:10479300AC90037E1254371217CEE50A240CF5822F
:1047A300E50B124A34124A5974021212A67402F02B
:1047B30074011212A6AA82AB831216E48A0A8B0B27
:1047C300AE0AAF0BEE7001EF70030248A31248B1BB
:1047D300124B07740688828983F0A3A882A9839069
:1047E300036BE088828983F0EE2417F582EF12537E
:1047F30043EE241A125EB51248CAEE2413125EB5B4
:104803007401125E4F7440F0A3E4124E658E828FE2
:1048130083A3A3E8F0A3E9125ED8E9FE600302488C
:10482300A57409900380F0AA08AB09794B124A2EAC
:10483300124B07900374124A89900373E0FA8518A8
:1048430082851983E06A600CE0900373124E6179EC
:10485300E11223E0901C24124B07901C26E06870A1
:1048630003A3E069601A900344124A89901C26123C
:1048730054371216A2901C26125AC27A011246FC11
:104883007A007B04124692901C261240AC74027884
:10489300081211A5AC08AD09FA7B041246FE80028A
:1048A3007E10E4901127F0EEF97404024B7912485C
:1048B300B522EE240BF582EF3400F583221248BBB8
:1048C30012543B88828983EAF0A3EBF02274F1123D
:1048D3000A5974E212108C851882851983ECF0A3AF
:1048E300EDF0EAFEEBFF742D1212A6E0F50E900335
:1048F30080E0FA74046A600574086A700579C2027C
:104903004A26851882851983E0FCEEFA1215A68AD9
:10491300088B09EA7001EB700579CA024A26EA247A
:1049230009F50AEB125EC7E064FE7004A3E064FFBE
:10493300700579C3024A267403900380124E61798D
:10494300501223E0AA0AAB0B794B1223E08518829D
:10495300851983124A3C124A89E5082402F50CE5BD
:1049630009125ED1900373124A51900374124A895B
:10497300E50E90036B124A5974CE550E4480C0E085
:1049830074121212A6D0E0F0E508240CF582E509B2
:10499300124A34F0740F1212A67402124A517407A9
:1049A3001212A6E8F0A3E9124A8F74101212A6E8B5
:1049B300F0A3E9125E65C0E074051212A6D0E0F020
:1049C300741B1212A6E4124A43A3A3E0900386F0D9
:1049D3007A867B037954124A2EA3A3A3E09003851E
:1049E300F07A857B0379471223E0900385E0C39433
:1049F3000F502474051212A6E0C0E074021212A62E
:104A0300D0E0F074041212A67401F074021212A61C
:104A1300AA82AB8312240474051212A6AA82AB8362
:104A23001223E6741E120FFA022D411223E0023004
:104A33005E1251AF0490039122124E6C90037E22BA
:104A4300124A4722F0850882850983A3A322124EC6
:104A530057F8A3E0F922F0EEFCEFFD7A927B031204
:104A6300236E22C082C083EB900388F01215940258
:104A73004B6BF8EF124C658882F583E022124AF7FC
:104A8300A3E022125E3FE8F0A3E9F022124B0202F8
:104A93004A5474F7120A5974F812108CEAFEEBFFA9
:104AA3007900900380E0640870418518828519833A
:104AB30074FD125EA412167274021212A61248CA70
:104AC30074051212A6E4124AF3E0C0E07404121251
:104AD300A6D0E0124AFEC0E074061212A6D0E0F09F
:104AE30074071212A6124E601216C67408023C0214
:104AF300124AF722F08E828F83A322F0022ED41261
:104B030040C0E022124E6C22E5082401F508E509B5
:104B13003400F509221240B4120FFA7402120FFA8C
:104B23007F02020D01C082C083900352746EF0A312
:104B33007414F09003EF7414F0A37417F0900356F9
:104B4300749EF0A37414F0900358746EF0A374145D
:104B5300F090035A74A4F0A37414F0800B740B1236
:104B630012A61241B8120FFAD083D082020F8E74AC
:104B7300078003124742120FFA7F04020D0174F0FB
:104B8300120A598A828B83125EBCEE7001EF7003A6
:104B9300024C62EA2402F8EB124C65900312E070B7
:104BA30002A3E0601388828983E0F9EEFAEFFB90B9
:104BB300031212553A122610EE2406F8EF3400F9C8
:104BC300880A890BEE2409080808EF3400F9880CD9
:104BD300890D8882F583E06402704B850A82850B18
:104BE30083E054026052850882850983E064E960AA
:104BF30047EE240A08EF126740700A901C38E0045D
:104C030088828983F0E014F07404850C82850D8317
:104C1300F0901C39125E49E8F0A3E9126755700160
:104C2300EB700312622D850C82850D83E0FA74020A
:104C33006A600574066A7027850A82850B83E0A281
:104C4300E0501C850882850983E0F9EEFAEFFB1238
:104C530024F4850A82850B83E054FEF0A3E0F0027E
:104C63002F873400F9880889092274EC120A5974D1
:104C7300DD12108CEAFEEBFF8C128D1374371212C7
:104C8300A6780C12122D75100074051212A6AC82B0
:104C9300AD831224DCEE240BF508EF124B137405DD
:104CA3001212A6E0A2E55019751001AC82AD8385FE
:104CB3000882850983125437122500E96003024EE6
:104CC3000874051212A6E0A2E6502274061212A678
:104CD300E05403701874051212A6E0540CFA740C15
:104CE3006A600A74086A6005751101800375110012
:104CF30074051212A6E05403FA74026A7013AC82AC
:104D0300AD838508828509831254371224CA024E63
:104D130008EE2406F50AEF122C6F74016A7037E56A
:104D2300116003124E3E74051212A6A882A9837461
:104D3300031212A6E8F0A3E9124E658518828519BD
:104D430083124E4FC0E074021212A6D0E0124E61DD
:104D53001225E4024E08EA6003024E08900368E05D
:104D63006401700C850A82850B83E07003024E0890
:104D730074221212A67402124E65741A1212A6122B
:104D83004A89E511600874051212A6124E3E740595
:104D93001212A6E0540C64047073EE240FF582EF34
:104DA300126048C0E074171212A6D0E0F09003140A
:104DB300E07002A3E0604E1216788A088B09A808F7
:104DC300A909741A1212A6E0687003A3E06970358A
:104DD300780C120FDFE510F5087808120FEB781244
:104DE300120FE7A911740C1212A6AC82AD837421C1
:104DF3001212A6AA82AB8390031412553A122610FC
:104E03007407120FFA7423120FFA023AA3780C12E2
:104E13000FDF7812120FE790037E120DC0A91074F2
:104E2300221212A6AC82AD83740D1212A6AA82AB13
:104E3300831224E87408120FFA80CAAC82AD83850A
:104E4300088285098312543B1224D622E8F0A3E991
:104E5300124E5722F0850A82850B83E022E4124129
:104E6300442212305D124E6C22E0024A54C082C0CA
:104E730083121E52024B6BC082C083121E58024B18
:104E83006BC082C083121E5E024B6BC082C0831252
:104E93001E64024B6B74F7120A5974091212A6E0CE
:104EA300F5087808120FEB121E707401023C02C061
:104EB30082C083121E76024B6BC082C083121E7C9B
:104EC300024B6BC082C083121E82024B6B74F712BB
:104ED3000A59EAFEEBFF740169701079001214B0ED
:104EE3007C1E7900EEFAEFFB12145C023C0574F4AD
:104EF300120A5974F912108C8A088B098C0A8D0BCB
:104F030074131212A6125437901149E07002A3E0F1
:104F13006027E9851882851983F074011212A67837
:104F23000812124BEAF8EBF974051212A612413C6F
:104F330090114912553A122610024B72C082C08357
:104F4300121EB2024B6B74F7120A59901BC7E0F999
:104F53007F00800B125188540D64017001190F12E8
:104F630051455003E970ED023C0574F7120A59905C
:104F73001BC8E0F97F00800B125188548D64817047
:104F830001190F1251455003E970ED023C0574F30A
:104F9300120A59890CE975F006A4F8A9F0740C28D3
:104FA300F508E439F509EA2508FAE43509FB121D89
:104FB300088A0A8B0BAE0AAF0BEE7001EF6027ACC9
:104FC30008AD097900121C7E1248B1E50CF0EE25FC
:104FD30008F8EF3509F98E828F83A3A3A3A3A3A3B4
:104FE300A3A3A3124A89EEFAEFFB023BB574F612B0
:104FF3000A59EAFEEBFF121438901BC6E0FAE9C324
:105003009A400990034E12543712143EEE2402F8CC
:10501300EF124C65900350E088828983F09003502F
:10502300E004125035121444850882850983E00296
:105033003E3DF0EEFAEFFB22C082C083790090037D
:105043004E8001091254378A828B83E5827002E510
:105053008370F0024B6B74F7120A59EAFEEBFFEE12
:105063007001EF605E90034EE07002A3E060549025
:10507300034E1257917A007B00800FAA82AB8312F2
:105083005791E5827002E5836039EE65827003EF24
:10509300658370E78E828F83124B0790034E125AFB
:1050A300C2EE6C7002EF6D700590034E80048A822D
:1050B3008B83124A89EEFAEFFB1225B4EEFAEFFB6B
:1050C300121D0E023C05C082C08390034EE0F8A37C
:1050D300E08003ECF8EDF9E87001E96009125ABECB
:1050E300EC7001ED70ED8A828B83E4F0A3F0E8703D
:1050F30001E9600688828983800390034E1248CABF
:10510300024B6B74F7120A5990034E80048A828B08
:1051130083125E987001EB60227F0080010F1251B1
:105123004550EAEF75F006A4FCADF0EA2CFCEB3D2C
:10513300FD741012519C6970E480047A007B0002B4
:105143003C051251A9FCEFC39C2274F7120A59784B
:10515300008001081251A5FDE8C39D5025E875F0B4
:1051630006A4FEAFF0EA2EFEEB3FFFEE2410F5821D
:10517300EF1260486970DCEE2411F582EF1260488B
:105183004CF0023C05EF75F006A4FCADF0EA2CFCF4
:10519300EB3DFD741112519C222CF582E43DF58305
:1051A300E0221251A922EA240BF582EB3400F583A5
:1051B300E02274F6120A591215287A00801B8A0815
:1051C300750900740378081211A5126027125BF3A6
:1051D300A3A3A3A3A3A3A3F00A902B36126588402D
:1051E300DD7A00801A8A08750900740378081211A1
:1051F300A5E50824FEF582E509341A125EA00A1219
:10520300658540E1902B28E49390035CF0125216DD
:10521300024B237CE87D037A107B009003CCE0F9FA
:10522300121DB02274F0120A5974FD12108CEAFE9A
:10523300EBFF89088C0912150A8A0A8B0BA80AA9A5
:105243000B900371E0687003A3E0697005790002B5
:105253005338AC087902EEFAEFFB121504E960ED5E
:10526300E508F50A780A120FEB1258FF120FFAE954
:105273006003025336E508C2E5F508900351E0F5F3
:105283000C900371125ACA780A120FE77D017C0051
:10529300900351E0F9AA0AAB0B1214BC7402120F6B
:1052A300FAE9FA900351E004F0EA6003025336741A
:1052B300011212A67406125EDFEA7001EB6070122F
:1052C300533DE50A241AF582E50B125EB81248CA6B
:1052D300E50A125AB9E50B125EB812413688828983
:1052E30083F07478550812604CA3A3E50CF0EE88A4
:1052F300828983A3A3A3F0EF88828983A3A3A3A3B3
:10530300F0E488828983A312534D74FD125EA4E5F1
:10531300096013C3941E500EE50A2413F582E50BAE
:10532300125EB8E509F0AA0AAB0B12137E80067968
:1053330010800279C77403022F84EA2417F582EBE5
:105343001248BB7401F012167222A3A3A3A3F08523
:105353000A82850B83A3A322C082C0839011EAE053
:105363006401901C377006E0FC79018004E0FC794D
:10537300037A007B0012145C024B6B74F4120A591B
:105383008A088B09E9FE1216FCE960077AFF7BFFA6
:10539300025419901C36E06402706E790012541C9A
:1053A300EA7001EB604212673BFC74016C7022905F
:1053B3000370E08A828B83A3A3A3A3F08A828B83E7
:1053C300A3A312543774FE6A700374FF6B601080DA
:1053D3004574036C601A74046C70047AFE80AF88A1
:1053E300828983E0640270089003BDE0640270194F
:1053F30090037E125AC2AA08AB091217AAEA7001D7
:10540300EB6006AA08AB09800DAA08AB099003520A
:1054130012553A122610024B7CAA08AB09125424E7
:105423002212150AEEF91214FE22EA240BF582EB7E
:105433003400F58312543B22E0FAA3E0FB2274F715
:10544300120A59EAFEEBFF121C06E9700AEEFAEFA4
:10545300FB122590E96006EEFAEFFB80047AFE7BEF
:10546300FF023C0574F2120A598A088B098C0A8DD3
:105473000BE9FE7F001216FCE97900600302553048
:10548300AA08AB091268C27002E5836017A3A3A33D
:10549300A3A3E0FA74026A704F9003BDE064027044
:1054A3000302552EAA08AB0990035812553A122647
:1054B3001012249A8A0C8B0DA80CA90DE87001E92F
:1054C3006069E82405F582E9126048A2E0505C7542
:1054D3000C01A2E1501C7901AC08AD09AA0AAB0B7F
:1054E30012148CE9700F804374036A703E750C02CA
:1054F3008003D2E1F0900371E0650A7004A3E065D4
:105503000B700E7C1EEEF9AA08AB0912145C0F8017
:105513001AA90CAC08AD09AA0AAB0B12148CE970DA
:105523000A0FEEF9AA08AB091214B0EFF902447F8F
:10553300EEFAEFFB90035412553E22E0F8A3E0F598
:105543008388822274E8120A5974F012108C8A1428
:105553008B158C088D0974281212A6E0F510A3E0B0
:10556300F5119003F5E07002A3E060121268C870B1
:1055730002E5836009A3E070057900025777E5141B
:10558300241DF516E5153400F51785168212578F7D
:10559300A3E0F50C88828983A3A3E0F50B888289B5
:1055A30083A3A3A3E0FA88828983A3A3A3A3E0F937
:1055B300EAFEE9FFAA08AB091214B6E9FA12579CEE
:1055C300E02AF50A530C78E514240BF50EE515349F
:1055D30000F50F7808120FE77D0012577C120FFABF
:1055E300E9FA74036A6092EA704290036AE0601E0B
:1055F300E50CF50D780D120FEB7901AC08AD0985BB
:105603000E82850F83125437125909120FFAE50CD3
:10561300F50D780D120FEB1258FF120FFAE9700C0B
:1056230085108285118374FFF0A3804985108285DC
:105633001183E064FF7004A3E064FF60399003BD4D
:10564300E06402700302557C850E82850F83E0FAC5
:10565300A3E0125536122610EA65087003EB6509BC
:10566300600302557C125533122610851082851172
:1056730083EAF0A3EBF07808120FE77D0112577C61
:10568300120FFAA90CEEFAEFFB12150A8A088B091E
:10569300A808A909900371E0687003A3E069600397
:1056A30002576EEEFAEFFB1234A07002E58360231B
:1056B300A3A3A3A3E0FA74016A600574026A7013DA
:1056C300851882851983AC82AD83EEFAEFFB122431
:1056D300708014121672EAFCEBFD8518828519831B
:1056E300AA82AB8312236E851482851583A3A3A399
:1056F300A3A3A3A3A3E06401701AE5142415F58200
:10570300E515125EB8125AC274081212A6AA82AB29
:105713008312236E85168285178312553AA3E044BC
:1057230030F5087808120FEB74011212A68582086F
:105733008583097808120FE7740B1212A685820875
:105743008583097808120FE7E50BF5087808120F2F
:10575300EB7900EEFCEFFD850E82850F8312543743
:105763001214867406120FFA02557C12579CE50A2E
:10577300F012168A7410026566AC0AA90B850E82B4
:10578300850F8312543B1214BC740222F583124E0C
:105793006C8001F98882898322851682851783129A
:1057A300553E0258E574EE120A5974F012108C8AB1
:1057B300108B11EA241DF50EEB3400F50F850E82D4
:1057C30012578FA3A3E0F50C888289831258DAE07D
:1057D300FBECFEEBFF88828983A3A31258DAA3A311
:1057E300E0FAE4CAFBECF508EBF50988828983A3A8
:1057F300A3A3A3A3A3A3E0F50A88828983A3E05408
:1058030078F50BA2E45016E82408FCE93400FD7493
:10581300081212A6AA82AB8312236E7A08E50BA2A2
:10582300E55024EAF8850E82850F83E028F8A3E08B
:105833003400F9740828FCE439FD8518828519833E
:10584300AA82AB8312236EAC0AA90CEEFAEFFB1209
:1058530014C2E9FA74036A6079900371E06E70030D
:10586300A3E06F605EEA7054E50BF50D780D120F3F
:10587300EB1258EB120FFAE97058780B120FEB7416
:10588300011212A685820E85830F780E120FE7741C
:105893000B1212A685820E85830F780E120FE7E591
:1058A3000CF50B780B120FEBA90AAC08AD09EEFA55
:1058B300EFFB1214867406120FFA801674046A70D2
:1058C3001180B7E50BF50A780A120FEB1258EB12A9
:1058D3000FFA7410025C4CA3A3A3E0FC88828983B3
:1058E3008001A3A3A3A3A3227901E510240BF582CE
:1058F300E5111248BB1268D41259092279027CFEC1
:105903007DFFEEFAEFFB1214AA74012274E8120A67
:105913005974F512108CEAFEEBFF8C088D0989127D
:1059230074231212A6E0F50F74241212A6E0F516E2
:10593300A3E0F51774281212A6E0F50EA90F1214AE
:10594300C88A108B1174011212A67408F0E50EA216
:10595300E450037410F0E50EA2E55004E02408F0CF
:10596300851882851983AA82AB831216E48A0C8B6D
:105973000DEA7001EB7003025AB212533DE50C2499
:105983001AF582E50D125EB81248CAE50C2418F523
:1059930014E50D3400F515E50C2416F50AE50D1292
:1059A3002C6F74031212A6AC82AD83AA10AB111232
:1059B3002470E9601E7401850A82850B83F07403E9
:1059C3001212A6A882A983851482851583E8F0A301
:1059D300E98025E50EA2E45020E5106E7003E51181
:1059E3006F70167401850A82850B83F08514828596
:1059F3001583E516F0A3E517F0E50C125AB9E50D8A
:105A0300125EB8125ACA7402850A82850B83F0A308
:105A1300E50E125351E50FF0EE850A82850B83A341
:105A2300A3A3F0EF850A82850B8312534DA3A3A38F
:105A3300E508F0E509850A82850B83A3A3A3A3A345
:105A4300A3F0AA10AB111214B6E92512850A8285B8
:105A53000B83A3A3A3A3A3A3A3F0750800E50EA23E
:105A6300E45014AC16AD17E50A2408FAE50B34002C
:105A7300FB12236E750808E50EA2E5501C7426126E
:105A830012A6125AC2E50A2508F8E50B3400F97488
:105A93000828FAE439FB12236E850C82850D83A353
:105AA300A3E510F0A3E511F0AA0CAB0D12137E745D
:105AB3000B026566E508240BF5822288828983122E
:105AC3005E5F228A828B83E0F50AA3E0F50B2274E2
:105AD300F2120A598A088B09ECFEEDFF890A790054
:105AE30012150A9003711230F06A7002E96B7004A8
:105AF3007901802A750B01E865087003E96509607F
:105B030012A90AEEFCEFFDAA08AB09121726E9F564
:105B13000B80097901EEFAEFFB12140EA90B024474
:105B23007F74F5120A597EA67F197A10125BE7700B
