:020000040000FA
:0600000002120E0207AC23
:03002B0002263773
:0300430002105F49
:03004B00020E9B07
:030053000206FFA3
:03005B00020EAAE8
:03006300020EB6D4
:10008300020748010101010503010F10FEFF0300F0
:100093000300030003000300030003000300030045
:1000A30005000A00140028004F009E000000E61A15
:1000B300E61AE61AE61A9C199619E61AC8270000EA
:1000C30000005029000000000C0000000C00010A91
:1000D300D007D00701CF04FF010100121100000077
:1000E3006D11E80364006400B8010202000010000F
:1000F300050207011E02051E020A03B80B02803E19
:1001030001033200020188880A01E002020630314D
:100113003233343536373839414243444546002873
:100123006E756C6C20706F696E74657229003F3F49
:100133003F000000807F0000803FF9021550B74365
:10014300BA510000204100E7DB2E0000A040100060
:100153000000080000000A00000012123C60461272
:10016300125A603DE9687008F618F618F618F62278
:10017300748067F7120191090909748067F72212E5
:10018300125A601D12123C7005191919801A1210A7
:10019300CC701F1210F6C37003E6673319191940A8
:1001A300071818182208080874FFF618F618F61826
:1001B300F6221210F660171212BA702192F0121280
:1001C300B07019501720F014080808090909E7F658
:1001D3001819E7F61819E7F61819E7F6221212B0FC
:1001E30060E6E869701F0808E62480F608E436F63E
:1001F30018547FB47F0CE654806007F6E418F618B1
:10020300F622181822E9C6CC08C6CD08C6CE08C601
:10021300CFC0E0E8C0E0EAC0E0EBC0E009E9F809DC
:10022300E7FA09E7FBE6F918E6F8C3EC98ED99EE6F
:100233009AEBC2E7F5F0EFC2E795F0500E600CEBD6
:10024300CFFBEACEFAE9CDF9E8CCF8EAA2E7D2E7A8
:10025300FAEB33FB13F5F0EEA2E7D2E7FEEF33FF41
:10026300C5F013A2E730E601B313C5F0C3C0E0C085
:10027300F07F00C39BFB605B9418600C401AD0E0D6
:1002830023F9D0E0F80203608AF0E9486003D2F072
:10029300E4AFF0FAF9F8803BEB30E40D89F0EA6063
:1002A30003D2F0E4AFF0F9CAF8EB30E30D88F0EFD6
:1002B3006002D2F0AFF0E4CAC9F8EB54076014FB54
:1002C300C3EA13FAE913F9E813F8EF135002D2E083
:1002D300FFDBEDD0E0C0E030E739C3E49FFFF5F08A
:1002E300EC98FC42F0ED99FD42F0EE9AFE42F0D01C
:1002F300E0F9D0E0F8E5F0607AE923F9EE20E7428F
:10030300D8028067C3EF33FFEC33FCED33FDEE33EC
:10031300FE80EAEC28FCED39FDEE3AFED0E023F94D
:10032300D0E0F84002801BC3EE13FEED13FDEC1387
:10033300FCEF135002D2E0FF08B800067F7F74FF82
:10034300802EEF3350178CF020F00260100CBC00AD
:100353000C0DBD00080EBE000408E860DFE933E8B9
:1003630013FFEE2313FE4F4D4C8008E95480FFE446
:10037300FEFDFCEE33EF33F47004FCFD7E80D0E031
:10038300FBD0E0FAD0E0F8D0E0CFC618CEC618CD47
:10039300C618CCC6F92212125A7004181818221261
:1003A300123C700D74FFF61819F61819F61819F6A1
:1003B30022E7548066F61212B0700F1212BA70F070
:1003C30014F608F608F608F680D11212BA700CF685
:1003D30008F608768008E6447F80EC1210F9700C6A
:1003E3001210CF60BFE65480F6E480BB1210CF70CA
:1003F3000519191980A5E869700C763F18768018DD
:10040300F618F6E8F922E6CDC0E018ECC0E0E633D2
:10041300CD33CDD313F6E719FCE7191933CC33C326
:10042300947F400ECD9D502408E65480F6E418F6E0
:10043300800FF4043D14501408E6447FF6187680C8
:10044300E418F618F6D0E0FCD0E0FD22CCD313CCB0
:10045300FD18E4C6CBC0E018E4C6CAC0E00808ED46
:1004630008C633E613F618E433C675F003C3CA9718
:10047300CA09CB97CB199C40047D08802EBD00038D
:1004830002054216B6FF050606081618C3CA33CA84
:10049300CB33CB33CA27CA09CB37CB193CC37D082F
:1004A300803E187D0820E75CC633C6CA33CACB3307
:1004B300CB33DDF1D5F0EB30E77BCA97CA09CB9795
:1004C3004ACB199C406F4B7025E620E021806618CB
:1004D3007D08C3CA97CA09CB97CB199CD3C633C629
:1004E300CA33CACB33CB3350C9DDE7D5F0E1D3E40C
:1004F300C636C608C636C608C636C608C636C618C1
:1005030018188031C3CA97CA09CB97CB199CB3403B
:1005130097C633C6CA33CACB33CB33DD34D5F02EBB
:10052300C6A2E0C640C8CA27CA09CB37194A70BE5B
:10053300CB3CB480B90808E63308E633601F1818CB
:1005430018D0E0FAD0E0FBD0E0FCD0E0FD22187D2B
:1005530008CA27CA09CB37CB193CD3808013F618B6
:10056300E4B67F11F618B6FF0EF618C60470D2086B
:1005730008768080CAF618F618F680C50012125A5B
:10058300604F12123C6012E7548066F61210CC7072
:10059300111212BA703B090909F4F618F618F61885
:1005A300F6221210F670151212B008080860EAE677
:1005B300447FF618768018E4F618F6221212B0601B
:1005C300161212BA7012E4F608F608F608E654801A
:1005D300F609090918181822EAC0E0EBC0E0ECC0DC
:1005E300E0EDC0E0E687F0A4FBACF008E687F0A4FA
:1005F3002CFCE435F0FA1809E687F0A42C4B6002D2
:100603007401CA35F0FCE433FB09E687F0D2F7A4A2
:100613002CCB35F0FC1908E687F0A42BCC35F0FB86
:10062300E433FD0819E687F0D2E7A42C4ACB35F072
:10063300CD3400FC09E687F0D2E7A42DCC35F0FDDC
:10064300E433FA0918E687F0D2F7A42CCD35F0CAC3
:100653003400FC08E687F0D2E7D2F7A42ACC35F0C1
:100663007A7E20E70B0ACB33CBCD33CDCC33CC33DF
:10067300CB3350147004ED30E00ED2F1E4CD3DCD18
:10068300CC3CCC3B5005DA05C2F1EB547FC63308B2
:10069300E63392F0FBE73309E733C39A502D2B700F
:1006A300190C0D4C4D70151806E608C333700D2058
:1006B300F10AA2F013F6E418800B4024E4F630F0BC
:1006C30002768018F618F618F68024D33B145010DF
:1006D30074FFA2F013F6187680E418F618F6800F6C
:1006E300A2F013F618E63303F618ECF618EDF6D07D
:1006F300E0FDD0E0FCD0E0FBD0E0FA22C0E074F2F1
:10070300120AC5E5A7F8E5A1F958541060081221AB
:100713006A53A1EF802AE8A2E0C0D0E9A2E092F0F8
:1007230012116C158182F05017906198E0F89016C1
:1007330076E0C398A2D265D0335002E8F053A1FE0D
:100743007F01020B7CC0E074F2120AC59061A4E041
:10075300F8759B00E59158540860087591F71221CC
:10076300AC802AE59158541060087591EF1221B2BC
:10077300801BE8A2E0C0D0E591A2E092F012116CD8
:10078300158182F05007E0C2E0F01222D29061A3FB
:10079300E0F8E5E9585404600E1222A875E9FB90CD
:1007A3006193E0A2E640F28097C0E074F2120AC5BA
:1007B3009061A5E0F8E5BF585404600653BFFB12EF
:1007C30022EA020743C3E498F8E499F9120809807E
:1007D30026C3E49AFAE49BFBE920E7E9120809E45B
:1007E30098F8E499F922C3E498F8E499F91208090E
:1007F300E498F8E499F9C3E49AFAE49BFB22EB202A
:10080300E7CFE920E7E0B90010BB0008E88AF084ED
:10081300F8AAF022E4FBC8FA22EB70227B10C8335B
:10082300C8C933C9335007C39AC3DBF280069A5051
:10083300012ADBEAC833F4C8C933F4C9FA2275F0D4
:1008430008E4C833C8C933C933C99AC99B5004C91A
:100853002AC93BD5F0ECFBC833F4C8E4C9FA221229
:1008630008A220F01430E72B74FFFCFBFA747F809E
:1008730022E4FCFBFA7480801AB48008BC00F2BB4B
:1008830000EF800F50EBF9E4C39AFAE49BFBE49C7E
:10089300FCE499C6CC18C6CB18C6CA18C6F922E41C
:1008A300C9C608CAC608CBC6D3330308CCC633921D
:1008B300F0C3947F402E94184019C9B90704CACBDA
:1008C300CC225025C309CA33CACB33CBCC33CC3368
:1008D300D9F422F4600DC9CCC313CB13CBCA13CA0A
:1008E300D9F6CC22E4FCFBFA2214FCFBFA2208081A
:1008F30008EAC0E0EBC0E086F0E7A4FA180986F046
:10090300E7A42AFA180986F0E7A42AFA180986F058
:10091300E7A42AFA1986F0E7A4FBE5F02AFA1908F6
:1009230086F0E7A42BFBE5F03AFA190886F0E7A472
:100933002BFBE5F03AFA18180986F0E7A4C5F02B6B
:10094300FBE43AFA1908E7C5F0C6A426F6E5F03B3E
:10095300FBE43AFA1886F0E7A4F6E5F00826F6E495
:100963003B08F6E43A08F6D0E0FBD0E0FA220808A8
:1009730008E630E71112111F120989080808C64456
:1009830080C618181822181818E9799EC608CAC60E
:1009930008CBC608CCC6C370207996CACBCC7019D5
:1009A300798ECBCC70137986CC700EF9802ACA333A
:1009B300CACB33CBCC33CC331930E7F2CCCBCA33ED
:1009C30050147004EA30E00DE4CA3ACACB3BCBCCF6
:1009D3003CCC500209C3E913C6CC182313C6CB1869
:1009E300C6CA18C6F922E4CFC0E0E4CEC0E0E4CD25
:1009F300C0E0E4CCC0E075F020C3E633F608E6338C
:100A0300F608E633F608E633F6181818EC33FCED6F
:100A130033FDEE33FEEF33FFC3EC9709ED9709EE99
:100A23009709EF97191919400FFFEC97FC09ED97F8
:100A3300FD09EE97FE191906D5F0BEECF709EDF79F
:100A430009EEF709EFF7191919D0E0FCD0E0FDD052
:100A5300E0FED0E0FF222518C582C0E0E51934FF8F
:100A6300C583C0E0E518C3958224F810AF088583D9
:100A7300198582188008858319858218D2AFCEF034
:100A8300A3E520F0A37808E608F0A3DEFAEFF0A3CD
:100A9300E58124FAF8E608F0A3E608F0A3E608F0F7
:100AA300A30808E608F0A3E608F0A315811581D092
:100AB300E0FED0E0F8158115811581E8C0E0EEC0B5
:100AC300E022C0D02518C582C0E0E51934FFC583F4
:100AD300C0E0E518C3958224F310AF088583198518
:100AE30082188008858319858218D2AFC8F0A3E9DC
:100AF300F0A3EAF0A3EBF0A37908E709F0A3D8FA8F
:100B0300ECF0A3EDF0A3EEF0A3EFF0A3D0E0F0A39D
:100B1300D0E0F0A3D0E0F0A3E520F0A3E5F0F0A34C
:100B23002212129BB90003020B66E490030178A61C
:100B330079198002F0A3D8FCD9FA901BA6AA82AB3C
:100B43008390008678D879018015E493A3AC82ADB5
:100B5300838A828B83F0A3AA82AB838C828D83D812
:100B6300E9D9E77582F57583C47403120F8875821A
:100B7300327583267400120F88851983851882E0E5
:100B8300C0E0A3E0F9A3E0FAA3E0FBA37808E0F652
:100B930008A3DFFAE0FCA3E0FDA3E0FEA3E0FFA3CC
:100BA300E0C0E0A3E0C0E0A3E0F5D0A3E0F520A31C
:100BB300E0A3F5F010AF08858319858218800885B6
:100BC3008319858218D2AFD082D083D0E0F8D0E0E9
:100BD3003212125A601C12123C60171212B07007C4
:100BE3001212BA7001D322C0D01212BA7006D0D03A
:100BF300B322C32233D0D0501430E0F6C3E79608B3
:100C030009E7960809E7960809E796B32220E0D595
:100C1300E6970809E6970809E6970809E697B322D5
:100C2300D083D082ECC0E0EDC0E0E493A3FCE49376
:100C3300A3FDED4C600D120D47EC24FFFCED34FFDA
:100C4300FD80EFE493A3FCE493A3FDED4C600D1250
:100C53000E46EC24FFFCED34FFFD80EFD0E0FDD029
:100C6300E0FCE493A3C0E0E493C0E02212125A60D4
:100C73001B12123C60161212B070071212BA600CEB
:100C8300B322C0D01212BA7005D0D022C32233D0FF
:100C9300D0501330E0EBC3E7960809E7960809E75D
:100CA300960809E7962220E0E4E6970809E6970804
:100CB30009E6970809E69722D083D082E9C0E0E4E9
:100CC30093A3C386F0C5F095F0F908E493A386F0E7
:100CD300C5F095F0700BE493A3C3994005E9048034
:100CE30002A3E475F002A42582F582E5F03583F5CD
:100CF30083D0E0F9E493A3C0E0E493C0E022851934
:100D030083851882E0A3FEE0A3F5207808E0A3F62C
:100D130008DFFAE0A3FFE0A3C0E0E0A3C0E0E0A3A4
:100D2300C0E0E0A3C0E0E0A3C0E010AF08858218F4
:100D33008583198008858218858319D2AFD083D023
:100D430082020F8EC0E0C3E4939608740193961851
:100D5300400FE4936670080874019366187000707E
:100D630019A3A3C3E49396087401939618A3A3400D
:100D73000DD0E0D0E0D0E0020C5FA3A3A3A3A3A314
:100D8300D0E022D083D082C5F0E493A3C5F0C3950D
:100D9300F0F5F0E493A3C395F04005E5F00480017A
:100DA300E475F002A42582F582E5F03583F583E44A
:100DB30093A3C0E0E493C0E022740480047402802F
:100DC30000CCC0E0EDC0E0E518C39CCCAD195001E8
:100DD3001D10AF068C188D1980068C188D19D2AF93
:100DE300120F0AD0E0FDD0E0FC2274028000CCC0D8
:100DF300E0EDC0E0E518C39CCCAD1950011D10AF68
:100E0300068C188D1980068C188D19D2AF120EE836
:100E1300D0E0FDD0E0FC2212125A602512123C6091
:100E2300201212B070030212BA080808E7667010A5
:100E33001819E766700A1819E76670041819E76647
:100E430022F422C0E0C0F088F0E4936670080874CE
:100E5300019366187000A8F0A3A3700BD0F0D0E044
:100E6300D0E0D0E0020C5FA3A3D0F0D0E022D08387
:100E7300D082CCC0E0E493A36006120F691470FA29
:100E8300E493A360061210761470FAD0E0FCE493A6
:100E9300A3C0E0E493C0E022C0E074F2120AC512DA
:100EA30020B07F01020B7CC0E074F2120AC512204D
:100EB300B680EFC0E074F2120AC51220BC80E3C012
:100EC30008C3E096F50808A3E096420808A3E09655
:100ED300420808A3E0964208A2D265D033E5087021
:100EE30001D3D00822CAC0E0E493A3C582CCC58253
:100EF300C583CDC583F0A3C582CCC582C583CDC5CB
:100F030083DAE5D0E0CA22CAC0E0E0A3C582CCC53B
:100F130082C583CDC583F0A3C582CCC582C583CDED
:100F2300C583DAE6D0E0CA22C008C3E096F5080814
:100F3300A3E096420808A3E096420808A3E096457A
:100F4300087001D3D0082270090808082260161817
:100F53001818C6C333C608C633C608C633C608C680
:100F630033C6D5E0EA22C0E0E493A3D39C5010E457
:100F730093A3C39C400AD0E0D0E0D0E0020E8EA33E
:100F8300A3A3D0E022C09FF59FE473D09F22D08318
:100F9300D082C09FE493C0E0740193C0E0740293D5
:100FA300F59F22C5822518C582C583351910AF0761
:100FB300F5198582188007F519858218D2AFC58384
:100FC300222518F58210AF08F5184002151980087C
:100FD300F51840021519D2AF851983227404800ACB
:100FE30074038006740280027401C0E0F404120FDB
:100FF300C4D0E012127622C0D0251810AF08F5181D
:10100300500205198008F51850020519D2AFD0D047
:1010130022BB0102E722C082C08389828A83BB008C
:1010230003E08002E493D083D0822260160808088C
:10103300C6C313C618C613C618C613C618C613C626
:10104300D5E0EA22C3E0C696F608A3E0C696F60802
:10105300A3E0C696F608A3E0C696F622C0E074F2B3
:10106300120AC5C2C0E5D1A2E450031220E67F01F3
:10107300020B7CC0E0E493A36C7009D0E0D0E0D015
:10108300E0020E8EA3A3D0E022251810AF08F518B6
:10109300400215198008F51840021519D2AF22C372
:1010A300E09608A3E09608A3E09608A3E096A2D2F0
:1010B30065D03322E066701008A3E066700A08A3C7
:1010C300E066700408A3E06622181818E6084608CC
:1010D300700AE608C3337005E633F4220822C3E737
:1010E300960809E7960809E7960809E796A2D265E4
:1010F300D03322191919E7094709700AE709C333DD
:101103007005E733F4220922C3E096F008A3E096C2
:10111300F008A3E096F008A3E096F022181818E46C
:10112300C396F608E496F608E496F608E496F622E3
:10113300E026F608A3E036F608A3E036F608A3E0B7
:1011430036F622E026F008A3E036F008A3E036F0F6
:1011530008A3E036F022E627F60809E637F6080981
:10116300E637F60809E637F622C0E0E8C0E0E58195
:1011730024FCF8E6A2E7D0E0F8D0E022E657F60830
:1011830009E657F60809E657F60809E657F622E096
:1011930056F008A3E056F008A3E056F008A3E05683
:1011A300F022700422600D18C6C333C608C633C6C6
:1011B300D5E0F41822E647F60809E647F60809E6FB
:1011C30047F60809E647F622E056F608A3E056F686
:1011D30008A3E056F608A3E056F622C6F4C608C6EE
:1011E300F4C608C6F4C608C6F4C622C3E09608A32C
:1011F300E09608A3E09608A3E09622C3E7960809C1
:10120300E7960809E7960809E7962275D0007581E5
:101213004075180175190300020B24600C08C6C33E
:1012230013C618C613C6D5E0F422E0F608A3E0F609
:1012330008A3E0F608A3E0F622E7094709C313472A
:1012430009336002E733F422E6F008A3E6F008A3CB
:10125300E6F008A3E6F022E6084608C3134608337F
:101263006002E633F422C5822518C582C583351989
:10127300C58322CAC0E0E6F0A308DAFAD0E0FA2276
:10128300E0FAA3E0FBA3E0FCA3E0FD22EAF0A3EB7A
:10129300F0A3ECF0A3EDF022E5C754F84401F5C741
:1012A3007901222518F582E43519F58322E6C33343
:1012B30018461846184622E7C333194719471947F2
:1012C30022120F913C3000120F91163100120F9130
:1012D300C73100120F91573200120F91473300129A
:1012E3000F918A3300120F91AF3300120F91013423
:1012F30000120F91263400120F914D3500120F91F9
:10130300C13500120F91E43500120F910C36001213
:101313000F911E3600120F91283600120F91AC3632
:1013230000120F911B3700120F91C43700120F9157
:10133300CC3700120F91363800120F917838001213
:101343000F91883800120F91703900120F91FB39F9
:1013530000120F915E3A00120F91303B00120F9171
:10136300A73B00120F91E43B00120F914B3C00127C
:101373000F91983D00120F91B43D00120F910D3E55
:1013830000120F91AA3E00120F91FA3E00120F9124
:10139300953F00120F91424000120F9180400012BE
:1013A3000F91F04000120F913B4100120F917441D5
:1013B30000120F91A44200120F91F74300120F91F4
:1013C300584400120F91A14400120F91C944001216
:1013D3000F914C4500120F91CC4500120F913F46DF
:1013E30000120F91644600120F91754600120F917F
:1013F300EB4600120F918F4700120F91D147001255
:101403000F91574800120F917E4800120F91A64981
:1014130000120F91B94900120F91124A00120F9155
:10142300534A00120F91DB4B00120F91714D0012C2
:101433000F91A04D00120F914D4E00120F91A64E29
:1014430000120F91924F00120F91955100120F91BC
:101453009F5100120F91A95100120F91B351001225
:101463000F91BD5100120F91D75100120F91E1510D
:1014730000120F91EB5100120F91F55100120F91D1
:10148300165200120F91645200120F916E52001205
:101493000F91925200120F91B65200120F911553F1
:1014A30000120F91605300120F917E5300120F919F
:1014B300EE5300120F912B5400120F91725400122D
:1014C3000F91DA5400120F914C5500120F91805670
:1014D30000120F91A35600120F91665700120F913D
:1014E3008C5700120F916C5800120F91CD5A0012B5
:1014F3000F91345C00120F91F75D00120F91495E5A
:1015030000120F912C5F00120F91795F00120F915F
:10151300E45F00120F91EE5F00120F910D62001253
:101523000F91326200120F91836200120F91846354
:1015330000120F91BC6300120F91FC6300120F9114
:101543005F6400120F91786500120F91D865001245
:101553000F91BE6600120F91C46800120F91E068EC
:1015630000120F91856A00120F91CB6A00120F913E
:10157300A96B00120F91136C00120F91446C0012AF
:101583000F91806C00120F910E6D00120F91116D6F
:1015930000120F917D6D00120F91FC8001120F91CB
:1015A3004E8101120F91858301120F91D183011294
:1015B3000F91938401120F910A8501120F913286C4
:1015C30001120F916F8801120F91068901120F9179
:1015D300A68F01120F912C9001120F91A992011263
:1015E3000F918D9301120F91329401120F914B952C
:1015F30001120F917C9601120F916F9701120F91B7
:10160300A09A01120F91639C01120F91C39C0112C6
:101613000F91799D01120F91269E01120F91519EF8
:1016230001120F91DE9E01120F91CB9F01120F91B8
:101633009FA001120F913DA101120F916AA1011206
:101643000F918CA101120F9185A301120F9160A438
:1016530001120F91ADA401120F910EA501120F916A
:10166300D0A501120F9105A601120F9153A60112E5
:101673000F9183A601120F91C1A601120F9119A711
:1016830001120F911EA701120F9179A701120F9159
:10169300A1A701120F91C0A801120F912CA9011249
:1016A3000F9196A901120F911FAA01120F913EAC3F
:1016B30001120F911CAD01120F918BAE01120F910C
:1016C3001DB001120F91ADB001120F91B4B101120F
:1016D3000F913DB201120F9184B201120F91FBB32E
:1016E30001120F910FB401120F9129B401120F913E
:1016F30044B401120F9150B401120F916EB4011250
:101703000F9125B601120F915EB601120F916BB6C0
:1017130001120F9174B601120F91E0B601120F91ED
:1017230036B701120F9141B801120F919DB8011202
:101733000F9190B901120F91D4B901120F9157BAB9
:1017430001120F915BBB01120F9117BC01120F9194
:1017530092BD01120F916CBE01120F9103BF0112D2
:101763000F9195BF01120F91ACBF01120F91D0BF22
:1017730001120F91DABF01120F91E6BF01120F910F
:1017830004C001120F9148C001120F9199C00112B8
:101793000F91BAC001120F91F7C101120F9143C209
:1017A30001120F913AC301120F9162C301120F91FB
:1017B300C4C301120F913DC401120F914EC5011212
:1017C3000F91FAC501120F91E7C601120F914BC792
:1017D30001120F91E2C701120F91B2C801120F91CA
:1017E300E1C801120F9140C901120F91EEC9011214
:1017F3000F9114CA01120F918CCA01120F91B1CA31
:1018030001120F91D4CA01120F910FCB01120F9144
:10181300EDCC01120F91DACD01120F9192CE01128C
:101823000F9129D001120F917DD001120F919CD0FD
:1018330001120F910BD101120F917FD101120F9160
:10184300D8D101120F91FED101120F9139D2011299
:101853000F9165D201120F91B0D201120F9109D3EA
:1018630001120F9185D301120F9169D401120F91C7
:10187300D6D401120F91FFD401120F9165D5011235
:101883000F91BAD501120F91F4D501120F9149D6D8
:1018930001120F916ED601120F91B4D601120F915E
:1018A300D1D601120F917BD701120F918FD9031259
:1018B3000F91DAD903120F916C8002120F91A0805D
:1018C30002120F91768102120F914A8202120F9136
:1018D300758302120F91F98402120F917785021218
:1018E3000F913E8602120F915F8702120F91D187EB
:1018F30002120F91338802120F91818802120F9105
:101903008B8802120F91C98802120F913289021239
:101913000F91D18902120F914F8A02120F91048BFA
:1019230002120F91768B02120F919C8B02120F9170
:10193300CC8B02120F91F98B02120F919F8C021222
:101943000F91AF8C02120F91028D02120F910E8D27
:1019530002120F911A8D02120F91238D02120F9111
:10196300848D02120F91E48D02120F91358E0212B3
:101973000F91508E02120F91808E02120F91A18E41
:1019830002120F91AD8E02120F91EE8F02120F9180
:101993000C9002120F91759002120F91889002120F
:1019A3000F919F9002120F91329102120F91319277
:1019B30002120F912D9302120F91AF9302120F9106
:1019C300B99302120F911C9402120F912D940212DB
:1019D3000F91709402120F91B79402120F91ED942C
:1019E30002120F91239502120F91419502120F914A
:1019F300659502120F91A69502120F919996021204
:101A03000F91DF9602120F911A9702120F91799795
:101A130002120F91A19702120F91DA9702120F91FE
:101A2300E89702120F91499802120F9186980212B9
:101A33000F91C89802120F91F99802120F912D99E4
:101A430002120F91389902120F91569902120F91B7
:101A53001E9A02120F91289A02120F91679A02128C
:101A63000F917D9A02120F91E79A02120F91FB9A3E
:101A730002120F91F39B02120F91069C02120F9117
:101A83001B9C02120F91BB9C02120F911F9D02120D
:101A93000F91E29D02120F91ED9D02120F910C9F87
:101AA30002120F91289F02120F91809F02120F9131
:101AB300B79F02120F91D19F02120F9145A00212FC
:101AC3000F91D6A002120F911EA102120F9139A3FA
:101AD30002120F91A3A302120F910EA402120F91EF
:101AE30067A602120F9177A602120F917AA602122D
:101AF3000F9186A602120F919AA602120F91A2A627
:101B030002120F91D7A602120F9185A702120F910D
:101B1300F5A702120F9159A802120F91F2A802120F
:101B23000F918CA902120F91BAA902120F914AAA1E
:101B330002120F9156AA02120F9185AA02120F9157
:101B4300A7AA02120F91CEAA02120F9134AB02126E
:101B53000F919EAC02120F91A1AC02120F9118AD1E
:101B630002120F9104AE02120F91DCAE02120F911A
:101B730066AF02120F919BB002120F914DB1021288
:101B83000F9186B102120F91B7B102120F91C0B13A
:101B930002120F91ACB202120F9128B302120F91ED
:101BA3000D2C00120F9182B402120F9106B502128E
:101BB3000F913CB502120F9185B502120F91F02FD0
:101BC30000120F910E8003120F91778003120F9171
:101BD300AF8003120F91028103120F919E820312B1
:101BE3000F917E8403120F915D8703120F918987F2
:101BF30003120F91A98703120F91078803120F9104
:101C03003D8803120F91788803120F91B68803124F
:101C13000F91FC8803120F91789A03120F91572F9B
:101C230000120F91B09A03120F91C19A03120F91F0
:101C33001A9B03120F91719B03120F91CD9B0312F9
:101C43000F91149C03120F91099E03120F9117BF5A
:101C530003120F91A4BF03120F91EFBF03120F9151
:101C630047C003120F9191C003120F91C2C0031218
:101C73000F91C5C003120F91C8C003120F91CBC0BF
:101C830003120F91F4C103120F91B0D803120F91F5
:101C9300009F03120F91489F03120F91B69F0312E7
:101CA3000F91D99F03120F9179A003120F9182A074
:101CB30003120F91CFA003120F91F8A003120F91FB
:101CC30058A103120F91EEA103120F9122A2031246
:101CD3000F916FA203120F91C9A203120F91F7A2E2
:101CE30003120F917FA303120F91C4A303120F9149
:101CF30003A403120F9138A403120F914AA40312F1
:101D03000F915CA403120F917BA403120F9144A5BE
:101D130003120F9115D303120F9148C703120F91AA
:101D2300ACC703120F91D0C703120F91C9C8031296
:101D33000F91D06D00120F91AF6E00120F91EB6EE9
:101D430000120F91887000120F91CA7000120F9148
:101D53007E7200120F91C27200120F91A3730012D0
:101D63000F91307400120F91BB7400120F91117513
:101D730000120F91517500120F91F37600120F911B
:101D83007C7800120F91937A00120F91A17A0012BE
:101D93000F91067B00120F91507B00120F91297E49
:101DA30000120F916CDA03120F9182DA03120F9172
:101DB300C0BB03120F91D3BB03120F9171BC03126B
:101DC3000F91ACBC03120F91C7BC03120F91ECBC73
:101DD30003120F9131BD03120F9162BD03120F91D4
:101DE30093BD03120F910ABF03120F91FFD4031285
:101DF3000F9173D503120F91B5D503120F91C5D56A
:101E030003120F91CFD503120F91649E03120F910A
:101E1300C6EE02120F910EEF02120F9110F0021292
:101E23000F91C7F002120F91DCF002120F9126F10D
:101E330002120F9175F102120F9188F102120F91A4
:101E4300C9F102120F91ADF302120F91CBF40212FA
:101E53000F9106F502120F910BF702120F9123F760
:101E630002120F9164F702120F9198F702120F9169
:101E7300F8F702120F9111F802120F912EF80212C5
:101E83000F9191F802120F9122FA02120F9144FA64
:101E930002120F9179FA02120F91A4FA02120F9112
:101EA300B4FA02120F91C0FA02120F912AFB021226
:101EB3000F91E5FB02120F9119FC02120F9123FC03
:101EC30002120F9133FC02120F91A7FC02120F9121
:101ED300D4FC02120F913AFD02120F9175FD02120A
:101EE3000F9184FD02120F9113D403120F9124D486
:101EF30003120F91ACD403120F91CBB502120F91C1
:101F0300F9B502120F9144B702120F91D2B7021220
:101F13000F914EB802120F91B1B802120F91F3B89C
:101F230002120F916CB902120F9110BA02120F91A3
:101F330087BA02120F91C9BA02120F9176BE02122A
:101F43000F9143C002120F91F3C002120F913AC1D5
:101F530002120F911FC302120F918BC502120F9130
:101F630005C602120F91FBC602120F9164CA021238
:101F73000F9174CA02120F91D4CB02120F914FCC5E
:101F830002120F9169CD02120F91D4CE02120F915A
:101F9300EDDF02120F91ACE002120F9123E1021266
:101FA3000F91A8E102120F91FFE102120F91FFE2DC
:101FB30002120F915CE302120F9161E602120F917C
:101FC3001BE702120F9180E702120F9127E9021219
:101FD3000F91DBE902120F9146EA02120F91F7EB20
:101FE30002120F9190EC02120F9186ED02120F91E3
:101FF3009AD603120F91A4D603120F91B7D60312E8
:102003000F9137C903120F9186C903120F913FCA6B
:1020130003120F91A5CA03120F9170C503120F91FA
:10202300C9C503120F9118D703120F9164D7031276
:102033000F91E5CC03120F91F3CC03120F91AADA9F
:1020430003120F9137D803120F9147D803120F9140
:102053005FD803120F91A7D803120F91F7D0031281
:102063000F911ED103120F91A3D103120F91FCD133
:1020730003120F91DD9E03120F91BDDA03120F912C
:10208300C0DA03120F915BB803120F9169B8031200
:102093000F91E3B803120F91AFB903120F915BBB1A
:1020A30003120F916A7E00120F91A37E00120F910B
:1020B300C07E00120F911E7F00120F91837F0012CA
:1020C3000F9198FA01120F9104FB01120F91BDFBBE
:1020D30001120F913AFC01120F915AFD01120F9157
:1020E300E9FE01120F9153FF01120F91ACFF011290
:1020F3000F91B8FF01120F91C7FF01120F91DAFF81
:1021030001120F91F0FF01120F916DA503120F91B0
:10211300C0A503120F91C8A703120F91FAA70312C8
:102123000F911CA803120F9135A803120F914EA80B
:1021330003120F9150A903120F91DEA903120F91FD
:1021430016CB03120F9148CB03120F9154CB0312FA
:102153000F9187CB03120F91B8CB03120F91E6CBEC
:1021630003120F915BCC03120F918ACC03120F91D0
:102173005FC203120F9185C203120F91C2C20312F1
:102183000F91D4C203120F91F0C203120F915EC3D9
:1021930003120F9167C303120F91C6C303120F916A
:1021A300EAC303120F91A9C403120F91B6C4031219
:1021B3000F91C7C403120F9123D903120F9170D942
:1021C30003120F9133B503120F917BB603120F91D4
:1021D30088B603120F919BB603120F91BAB603127E
:1021E3000F91D0B603120F91E4B603120F915EB7AD
:1021F30003120F91F4B703120F913CB803120F911E
:102203004CB803120F91EED503120F9112D603129D
:102213000F913AD603120F9162D603120F919BFDD1
:1022230002120F91B4FD02120F91C0FD02120F9121
:10223300D4FD02120F91F2FD02120F91FCFD021266
:102243000F9106FE02120F9119FE02120F916DFEFD
:1022530002120F91A6FE02120F91D5FE02120F91E8
:1022630023FF02120F9172FF02120F918DFF0212D0
:102273000F9197FF02120F91A8FF02120F91EEFF29
:1022830002120F91E4D903120F913E9203120F91A0
:102293006A9203120F91869203120F91999203127D
:1022A3000F91AF9203120F911B9303120F914E9351
:1022B30003120F91AB9603120F91D69703120F914E
:1022C300099803120F916E9803120F9156990312F6
:1022D3000F917E9903120F91939903120F91A39972
:1022E30003120F91E79903120F913C9A03120F9176
:1022F3004C9A03120F91A3CE03120F91BECE031279
:102303000F91E7CE03120F9101CF03120F9126CF46
:1023130003120F9145CF03120F915DCF03120F915B
:102323008BCF03120F91A5CF03120F912CDA031257
:102333000F916DB103120F9174B103120F9180B21B
:1023430003120F91B0B203120F91D6B203120F9181
:1023530009B303120F911BB303120F9155B3031269
:102363000F91BBB303120F91F4B303120F9140B457
:1023730003120F916DB403120F918DB403120F91D9
:10238300D6CF03120F91F8CF03120F91F4D003129B
:102393000F9115D203120F9174D203120F91B2D27F
:1023A30003120F91F3D203120F913A8903120F9183
:1023B3004E8903120F91908903120F91798B0312A7
:1023C3000F91DF8B03120F91238C03120F91568C05
:1023D30003120F91E08C03120F91579003120F9188
:1023E300429103120F91BE9103120F91FB910312BD
:1023F3000F91EF7F00120F911DAA03120F913CAAB8
:1024030003120F9187AA03120F91A3AA03120F912C
:10241300D4AA03120F91EBAA03120F91F8AA031285
:102423000F9115AB03120F91F8AB03120F912FAC61
:1024330003120F9139AC03120F9140AD03120F91A8
:102443004BAD03120F915DAD03120F9166AD0312F5
:102453000F9170AD03120F91D7AD03120F9151B1CC
:1024630003120F91C27F00120F918CDA03120F91A6
:10247300A9D703120F91D3D703120F919ECF021244
:102483000F91BCD402120F91EE2B00120F91DC2B93
:1024930000120F91BA2B00120F919B2B00120F9178
:1024A300682B00120F9166FA01120F9148FA01127C
:1024B3000F9166F901120F91CAF801120F9156F7A5
:1024C30001120F91CF2F00120F91008003120F9171
:1024D30002F501120F9134F401120F91332F001200
:1024E3000F91182F00120F915EF301120F9129F330
:1024F30001120F91F6F201120F91D7F201120F910F
:1025030077F201120F9129F201120F916DF101126D
:102513000F912BEE01120F9103EE01120F91A8ED13
:1025230001120F9185ED01120F91DFEC01120F9152
:1025330087EC01120F91E4EA01120F91E1EA011213
:102543000F91F0E901120F91D0E901120F9120E9E7
:1025530001120F91A2E701120F9169E701120F9186
:102563003AE701120F91DD2E00120F91932E001204
:102573000F91762E00120F91372E00120F91EB2D33
:1025830000120F9137E701120F9129E701120F9102
:1025930015E701120F91192D00120F9108E701128F
:1025A3000F912BE601120F91B7E501120F917DE513
:1025B30001120F9125E501120F91922F00120F9135
:1025C3009F9A03120F917E2C00120F91F4E40112D3
:1025D3000F9126E201120F91E4E101120F91D8E16C
:1025E30001120F914BE101120F9199E001120F912A
:1025F30038DE01120F91A2DB01120F916CDB011285
:102603000F910ADA01120F91B6D901120F91EFD887
:1026130001120F91C2D801120F911CD801120F9110
:10262300EFD701120F91B5D701120F91B8B3020082
:10263300000080FBC2C732E4738F000100E71187FB
:10264300000100E61124000200051C25000200071A
:102653001C26000200091C270002000B1C28000195
:10266300000D1C290001000E1C840004000F1C86B1
:10267300000100131C2A000100141C2B000100158B
:102683001C2C000100171C2D000800C2112E000194
:1026930000181C2F000100191C300001001A1C3106
:1026A3000001001B1C32000100CA1133000100CBE2
:1026B30011340001001C1C36000100CC1183000200
:1026C30000291C62001000D51163000100E51164AC
:1026D300000100BF1165000100161C6D00010028F8
:1026E3001C6E000200C011430001001D1C440002C7
:1026F300001E1C45000100201C46000200211C474F
:10270300000800CD1148000100231C4900010024EA
:102713001C4A000200251C4B000100271C04000179
:10272300002B1CA10001002D1C370001002C1C00F4
:102733000000000000000136360101000102010023
:102743000103010001040106060502000007010060
:10275300340801000F090401010D0100FF0E0800F8
:102763000017020000190100FF1A0100011B0100FC
:10277300FE1C0100081D0200001F010001200100D2
:1027830001210200002301000F24020000260100A2
:102793000127010008280200FF2A0100072B01027C
:1027A300402C0100002D0100012E0100012F01002A
:1027B300FF30010B1C310800003A0100083B010007
:1027C3000F2F010000030071003001600011007041
:1027D3000031022003500480001000610000001447
:1027E30000630073007200620043000000130006E0
:1027F30000000000000400120000000000000000C0
:102803000004000400370037003C024400000000CD
:102813000000000000650000003500810000000595
:102823000000008300000001017101010101011199
:102833000101013101010101018001100161013B2D
:10284300001400630173017201620143010001136B
:102853000106013D013500040112010001000100E0
:1028630001000104010401330133013C014401323D
:1028730001360000010001650100013500810100FE
:102883000105018201830100010304710402046054
:10289300041104700402040204010402041004611C
:1028A3000400041404630473047204620443040004
:1028B30004130406040004000404041204000400C6
:1028C30004000400045104640000040004000444F0
:1028D30004000400040004000465040004350481BA
:1028E300046400050400048304000403027102303D
:1028F3000160021102700201020202020280021050
:102903000261023A004100630273027202620243EF
:102913000200021302380000020002040212020045
:102923000200020002000204020402370037003CE6
:10293300024402000239000002000265020002356F
:102943000281020002050282028302000201037176
:102953000301030103010301030103220302030132
:10296300031003000300030003000300030003003C
:1029730003420300032403060300030003040312BA
:102983000325032303250323030403040300030094
:10299300030003440300030003230300036503212F
:1029A300003503810300030503000300030003361E
:1029B300000100060000000F0000000000000000FE
:1029C300000000000003FFFF00000403FFFF0000FE
:1029D300FFFF0FF4010005C4040320000100000BF6
:1029E300000000000000000003010F0000B41F13EB
:1029F300004E1F0100B41F0200181F03001E1F0416
:102A030000241F05002A1F0600361FFFFF000001D8
:102A1300D615060C160806160B1E16105E1502DCDC
:102A23001505FA1507E2150CBE150DCA15FF0000B2
:102A3300030003000400080010001F003E007B0099
:102A4300F600EC01D703AF075D0FB91E713D00001F
:102A530003EAF5E5D5D5C5B5A59595858575756560
:102A6300655555454535352525151505F619261A98
:102A7300FC19021A201A141A0E1A2C1A321A381AAE
:102A8300441A081AF019EA199C36063A703DD940DF
:102A93004344AD47174B814EEA5100160F00000B1C
:102AA300150B020002220F3200000600010203048C
:102AB30005060708090A0B0C0D0E0FE61AF81AFE95
:102AC3001AC019041BBA19C619FA18F418301936A2
:102AD300192A19E2185E1B7C1B821B641B701B6A7C
:102AE3001B0C0E020B040B0A0708000F30301618DC
:102AF3001920231A1C1E3000011916181616152347
:102B0300030000383C3E363B3B352B432C00034946
:102B130048424D1817250502303017181921301B6C
:102B23001D1F301A1A3E1A761B4A1A501A521B0AD4
:102B33001B101B1C1B161B06190C1900193C190032
:102B430005150D091008041219241900BE040A0EF4
:102B53000015000400010309280F100A0900000CE6
:102B6300040810080574F6120A5974FF12108CE455
:102B7300851882851983F085820885830978081270
:102B83000FE77508017509007808120FE71243A6CD
:102B9300120FFA7401024E4574F6120A598C088D0D
:102BA300097808120FE775080B7509007808120FEA
:102BB300E71243A6024E4574F6120A598C088D0992
:102BC3007808120FE775080B7509007808120FE7EC
:102BD3001243B112429C024E45C082C0838A828B4B
:102BE30083E0D2E7F0121EBE024E90C082C083790A
:102BF3000012575290032E125DE7C3EA9CEB9D50DF
:102C03000612336F600109024E9074F7120A59EAF3
:102C1300125DDEEB1261DD122E6CAEF075F00BED82
:102C2300A42EFD900330E02CFEA3E03DFFEA240335
:102C3300FCEB3400FD740169600574026970278A36
:102C4300828B83A312575C8E828F83A3124BD5741E
:102C53000269701DECFAEDFB1224DCE97013E48EBB
:102C6300828F83F0800BEE2403FAEF3400FB1224EF
:102C7300E2EEFAEFFB12248E023EF574F2120A59C9
:102C83008A088B09EA240BF50CEB1261C279008ADE
:102C9300828B83E06070890A890B805FE50A75F097
:102CA3000BA4FAACF075F00BE50B1231017049AED1
:102CB30082AF838508828509831268931231BBA38F
:102CC300126160A3124D94E5082403FCE509340066
:102CD300FDEE24030A0A0AEF3400FB1224E2850CFA
:102CE30082850D83E50AF0A3E50B12535A12248E55
:102CF300790190032E125DEF122D0C1230F9E50AC3
:102D03009AE50B9B409602478AE50A2401F50AE5FA
:102D13000B3400F50B2274F1120A59EAFEEBFF742F
:102D23000F1212A612439E750E01850882F583A326
:102D330085820C85830DEE240BF8EF3400F9EC70DB
:102D430001ED6030EC125DDEED124BCB7901EEFA52
:102D5300EFFB121BA0E5087002E5097003022DE4E6
:102D6300850C82850D831261C77902AA08AB09120B
:102D73001BA0806DEE2403F50AEF122D14E50870F5
:102D830002E5096033125DDCE509124BCBE508244B
:102D930003FAE50934001230F1700CEEFAEFFB127E
:102DA30025C6E9F50E80B9AA0AAB0B1230F27031D1
:102DB3007903EEFAEFFB80B78E828F83A3E064FE84
:102DC3007004A3E064FF700A0A0A0AAB0B1230F224
:102DD300700CEEFAEFFB1225C6E9F50E8003750EB3
:102DE30000A90E7F07020D0174F7120A5990032EF2
:102DF300124BD5EA7001EB6031EA75F00BA4FAAC23
:102E0300F075F00BEBA42CFBEAFEEBFF121D2690F2
:102E13000330124BD5900330E07002A3E06012EE52
:102E2300FCEFFD7900121C9C8007900330E4F0A3B3
:102E3300F0023EF574F6120A597508007509007818
:102E430008120FE790032E122E6CAAF075F00BED0B
:102E5300A42AFD7A237B00121D8C7402120FFAE957
:102E6300FE600312257202412C126184EC75F00B93
:102E7300A4FC2274F7120A597E007F00800AEEFA3E
:102E8300EFFB1224A0124017122ED140F1023EF59F
:102E930074F7120A597E007F008016EEF8EFF912DC
:102EA3002EBCFCA3E039FDEEFAEFFB122494124092
:102EB30017122ED140E5023EF5E875F00BA4F8AAEF
:102EC300F075F00BE9A42AF9900330E0282290036F
:102ED3002E125191C3EE98EF992274F7120A597E7C
:102EE300007F008028EEF8EFF9E875F00BA4F8AA4C
:102EF300F075F00BE91231B6A2E7500EC2E7F0AC61
:102F030082AD83EEFAEFFB12249A124017122ED1F0
:102F130040D3023EF5C082C083EC7001ED60051220
:102F230023A480097C087D007900121C9C024E902A
:102F330074F6120A597900EA7001EB60147C008C74
:102F430008126367600479017C080CECC3940840A1
:102F5300EE024E4874F7120A5974F312108CECFE09
:102F6300EDFFE4851882851983F074011212A6120D
:102F730043EF1212C474031212A6AC82AD83EEFAAD
:102F8300EFFB1224E2EEFAEFFB1224DC023EF074B4
:102F9300F7120A5974F312108CECFEEDFFE4851856
:102FA30082851983F0EAFCEBFD74031212A6124426
:102FB3002474011212A6124D9174FE68700374FFFB
:102FC300696004790180027900023EF074F7120A05
:102FD30059EAFEEBFF12301D701012302864FFFC1B
:102FE3008A828B83E05CF012248E0246E674F71229
:102FF3000A59EAFEEBFF7508008E828F83E06017A3
:1030030012301D7012123028FC8A828B83E05C70B0
:1030130006E04CF012248E0246E6122488E9F508F5
:103023007401650822124BC0125191122EBCFAA3EF
:10303300E039FB8E828F83E02274F0120A598A08EA
:103043008B09EA2403FEEB3400FF7C007D000A0AAF
:103053000AFB1224E2E508240BF50CE5091261C210
:103063007900850882850983A385820A85830BE01D
:1030730064FE7004A3E064FF6065890889098054D5
:10308300E50875F00BA4FAACF075F00BE509123105
:1030930001603E850A82850B83126A72A3E06C701D
:1030A30003A3E06D702BEA2403F50EEB3400F50F58
:1030B3001230EE700BAC0EAD0FEEFAEFFB1224E202
:1030C300850C82850D83126199790190032E124339
:1030D3009E124E1C1230F9E5089AE5099B40A18027
:1030E30005740D120FFA7F08020D010A0A0AFB127A
:1030F30024DCE964012290032E125760C322A42C1E
:10310300FB900330E02AFAA3E03BFB8A828B83E047
:10311300540F2274EF120A598A828B83A385820E7D
:1031230085830F1261C7EA240BF508EB124E248541
:1031330008821261C5751000EA2403F50CEB340014
:10314300F50D1230EE7065750A00750B008055E5BC
:103153000A75F00BA4F8AAF075F00BE50B1231B663
:10316300540F603DAE82AF83EE2403FCEF3400FDC9
:10317300AA0CAB0D12239EE9640170258E828F8306
:10318300A3124E18850E82850F83E8F0A3E912314E
:10319300BBE50AF0A3E50BF075100190032E125D59
:1031A300EF122D0C90032E12428F40A3A9107F091A
:1031B300020D01123245E0221231BF22F08508824E
:1031C3008509832274F3120A59EAFEEBFF8E828F7C
:1031D30083A385820A85830B1261C7EE2403F50856
:1031E300EF124E247C007D000A0A0AFB1224E2EE51
:1031F300FAEFFB122488E9F50C7401650C703EEEBE
:10320300125DDEEF12324F75F00BA4F8AAF075F0E1
:103213000BE9123245A312575C850A82850B831290
:103223004BD5E82403FEE93400FFEEFAEF1230F148
:10323300700BEEFCEFFDAA08AB091224E2A90C0205
:103243003EA5122EC8F8A3E039025ABB124BC61290
:103253005191E82274EE120A5974E612108CEAFEB8
:10326300EBFFEE240BF50AEF122D14850A8212618F
:10327300C5750E01750800750900751000751100FC
:10328300E4851882851983F0EE2403FCEF3400FDF6
:1032930074031212A6AA82AB831224E28E828F8356
:1032A300A385820C85830D851882851983AA82AB39
:1032B300831212CAE964017034740B1212A6124EFF
:1032C30018850A82850B83124D9474011212A6127B
:1032D3004E18850C82850D83E0687003A3E0696056
:1032E30055851882851983858208858309740D1293
:1032F30012A6E412618AF8A3E0F9740E1212A61260
:103303004D94740D1212A6AA82AB831212C4E964FF
:1033130001700B740D1212A685821085831178102B
:10332300120FE7AC08AD09EEFAEFFB122596740213
:10333300120FFAE9F50EEEFAEFFB121BBEA90E749B
:103343001A025F71C082C083780079008003123C47
:10335300421230F9E89AE99B500DE8FAE9FB12337F
:103363006F70EB790080027901024E90EA75F00BE1
:10337300A4FAACF075F00BEBA42CFB900330126CA9
:103383000AF583E0540F22C082C083902B54123D70
:10339300ACEC75F012A4FCAAF075F012EDA42AFDB2
:1033A30079FF7AA07B16121C9C024E9074F6120AC7
:1033B300597E007F007C007D0080348C088D09E5F8
:1033C3000875F012A4F508ABF075F012E509A42B0B
:1033D300F509E50824A4F582E5093416F583E0FB35
:1033E300C3994008EAC39B4003124017123A2C12B8
:1033F3003867C3EC9508ED950940C0026C03C082A1
:10340300C083780079008003123C42902B54123F12
:103413008C50091237A864FF70EE80047A007B0099
:10342300024E9074F0120A5974F312108C8A0A8BAC
:103433000BECFEEDFF890CEE7001EF6011EEFAEF7D
:10344300FB1213128A088B09EA7001EB70521212F5
:10345300EE8A088B09EA7001EB60457401851882D6
:10346300851983F01212A6E50AF0A3E50BF0EEFC32
:10347300EFFD74031212A61235BA740B1212A612C0
:103483003B19A3A3124D94E4850882850983A3A362
:10349300A3A3A3A312617CAA0AAB0B121840800B4F
:1034A300E5087002E50970030235327A00E50C6025
:1034B30007C3940550027A04850882850983126143
:1034C300A8A3A3A3E50CF0EA850882850983A3A337
:1034D300A3A3A3F07402850882850983A3A3A3A3EE
:1034E300A3A3A3A3F07401850882850983A3A3A3DF
:1034F300A3A3A3A3A3123546A3A3A3F0E508241013
:10350300F582E5091261DDE4F0123546F0125DDC67
:10351300E5091261DDE4F09080E4780C12122DE5E8
:1035230008240CF582E5091261DD780C12124B12A6
:1035330037094005E4901BA9F012172CAA08AB0920
:103543000230E4A3124D52025C0A74F2120A597457
:10355300F312108C8A088B09ECFEEDFF750A00EE5E
:10356300FAEFFB1213128A0C8B0DA80CA90DE8704D
:1035730001E9603E88828983E065087004A3E06501
:1035830009602F88828983A3A3A3A3E0C394055072
:10359300211261957401851882851983F01212A690
:1035A300126199EEFCEFFD74031212A61235BA757F
:1035B3000A01A90A02478512442B1212D62274F675
:1035C300120A591236027002E5836010A3A3A3A363
:1035D300E06009C394055004790180027900024E2A
:1035E3004874F6120A591236027002E583600BA37F
:1035F300A3A3A3E07004790180027900024E48126C
:10360300130C8A828B83E58222C082C083EAFCEB9F
:10361300FD7A007B00121318024E90C082C0837C97
:10362300007D0080F074F2120A5974F312108C8A30
:103633000C8B0D8C0A8D0B7E007F008021123B1FAB
:103643001212A61236A0601374031212A6AC82AD36
:1036530083AA0CAB0D12239EE97035124017902BF1
:103663005412402750301239E060F0E50C7002E547
:103673000D70CA74FF650A700474FF650B60DC8506
:103683000882850983E0650A7004A3E0650B70CBAB
:10369300AA08AB0980047A007B00024785E8F0A3FF
:1036A300E912444F1212D0E92274F4120A5974F346
:1036B30012108C7508001213128A0A8B0BAE0AAF14
:1036C3000BEE7001EF602A7401851882851983124D
:1036D3004D8BF8A3E0F9740B1212A612444712247F
:1036E300C47C127D0079FFEEFAEFFB121C9C750877
:1036F3000112370950097401901BA9F012172CA964
:1037030008740D024E9E7A0479001212E8902B542D
:1037130012402DEA98EB992274F7120A59E9FE74C4
:10372300FE6A700374FF6B780079007005804D1298
:103733003C42902B54123C2D5042E8FCE9FDEC75C1
:10374300F012A4FCAFF075F012EDA42FFDEC24A051
:10375300FCED3416FD8C828D83A3A3A3A3E064FF49
:1037630060CD8C828D83E06A7003A3E06B70C080B0
:1037730008EC6005C39405401C123C42902B541284
:103783003F8C501A1237A8FCEE70E674016C60058A
:1037930074036C70E48A828B8312575C80047AFE14
:1037A3007BFF023EF5E8FAE9FBEA75F012A4FAACF6
:1037B300F075F012EBA42C123A4B22121324024E92
:1037C30090C082C083790180F274F0120A598A0A88
:1037D3008B0B7A0479011212E88A0CEA7001EB6010
:1037E30040EAC333FAEB33FB121D268A088B09AE7A
:1037F30008AF09EE7001EF60237AFE7BFF12132AF4
:1038030074FE6A700374FF6B601B850882850983ED
:10381300124BD5E5082402124E2080E1750C00807E
:10382300047E007F00850A82850B83E50C12535AC0
:103833000230E974F6120A59750800750900780810
:10384300120FE7123867740378081211A51239D4DE
:103853007B00121D8C7402120FFAE9FE600312132F
:103863003C02412C902B5412386E22E493F50874D9
:103873000193F5092274F6120A5974FE12108C1280
:10388300415F024E2974F4120A5974DF12108C7EC0
:103893000085188285198385820885830978081233
:1038A3000FE77508028E097808120FE77C007D0088
:1038B30012429A120FFAE9600302395E1239651255
:1038C3004E12C3EA98EB99500302395E8077740F66
:1038D3001212A68582088583097808120FE77508F6
:1038E300087509007808120FE77403780A1211A506
:1038F3007402250AFCE4350BFD12429A120FFAE911
:10390300704274021212A67401F074111212A612FC
:103913004E18740D1212A6124D9474021212A6AA16
:1039230082AB831212D0E9601B74131212A6E0F962
:1039330074051212A6AC82AD83740F1212A612572D
:103943005C1212F40E8E8285820A750B00124E12DF
:10395300C3E50A98E49950030238D1EEF9742102C1
:103963004E9E902B54E493FA740193FB2274F61247
:103973000A5974FE12108C851882851983E4F0A30A
:10398300F0FE80331239E0602B7808120FE77508D8
:10399300087509007808120FE774041212A612437F
:1039A3009E740378081211A51239D41243A9120F79
:1039B300FA12438E12401CFF902B5412402740C42E
:1039C3008518828519838582088583097808024EC4
:1039D3002974022508FCE43509FD7A2222EEF8EF6A
:1039E300F9E875F012A4F8AAF075F012E9123AFE9C
:1039F300A3A3A3A3E064FF2274F7120A597C007DFA
:103A030000800419123A2C123A23500D123A35C38E
:103A1300940550F0E970EC80047A007B00023EF5D7
:103A2300123965C3EC9AED9B22EC24010CED3400B2
:103A3300FD22ECFAEDFBEA75F012A4FAAEF075F094
:103A430012EBA42E123A4B22FBEA24A0FAEB341613
:103A5300FB8A828B83A3A3A3A3E02274F3120A59E4
:103A630074F312108C750A00750B008052E50C126A
:103A730061538E828F83123B19E0687003A3E06960
:103A8300602574011212A6E0687003A3E069601751
:103A9300EE2402FCEF3400FD74031212A6AA82ABDB
:103AA3008312239EE96007EEFAEFFB12184C050C14
:103AB300902B5DE493FAE50CC39A40B1122D0C12DE
:103AC3003B11E50A98E50B99502CE50A75F012A411
:103AD300F8AAF075F012E50B123AFEE064FF7004E9
:103AE300A3E064FF60D6123B1F1212A61236A06039
:103AF300CB750C0080BA740D023EA2A42AF9E82407
:103B0300A0F508E93416F509850882F58322902B80
:103B130054E412402E221251910231C074018518CF
:103B230082851983124D52125191740B2274F6122D
:103B33000A59124131123DACEC8508F0A4CCAAF02D
:103B43008509F0A42AFA8508F0EDA42AFD79FF7A05
:103B5300577B1B121C9C900333746CF0A37413F0FB
:103B63009003357466F0A37413F09003377490F0E8
:103B7300A37413F090033974A2F0A37413F09003A9
:103B83003B74A8F0A37413F090033D74AEF0A374D8
:103B930013F090033F74B4F0A37413F0E490033272
:103BA300F0024E48C082C083780079008003123C43
:103BB30042123F895024E8FAE9FBEA75F00EA4FAB1
:103BC300ACF075F00EEBA42CFBEA2457F582EB1254
:103BD300463770DAAA82AB8380047A007B00024EF8
:103BE3009074F7120A597A007B0078007900802FCD
:103BF300E8FCE9FDEC75F00EA4FCAEF075F00EEDFB
:103C0300A42EFDEC2457F582ED124637600EA3A3D4
:103C1300A3A3A3E0FCEA2CFAEB3400FB123C429092
:103C23002B56123C2D40C9023EF5E493FC740193DC
:103C3300FDC3E89CE99D22120FFA7F03020D01E800
:103C4300240108E93400F92274EC120A5989108A14
:103C5300088B098C0D8D0C74141212A6125DEF7E65
:103C6300007F001213CCAA08AB091213D28A0E8B61
:103C73000F850882850983A3A3A3A3A3A3A3A3E01A
:103C8300640170077508018E0980058E08850D098A
:103C930074FE650E700474FF650F7003023D8F8E12
:103CA3000D8002050D850D12902B561268B45071CC
:103CB300E50D75F00EA42457FEE5F01240EA6510F9
:103CC30070E1A3E0650870DB8E828F83A3A3E065B8
:103CD3000E7004A3E0650F70CA8E828F83A3A3A323
:103CE300A3E0650970BD750D00E50DC3950C400398
:103CF300023D8FE50DC333F8E433F9E50A28F508EF
:103D0300E50B39F5098508821266B6121378E97056
:103D13000C8508828509831266B8121384050D8009
:103D2300C81213608A128B13AE12AF13EE7001EF39
:103D3300605A8E828F83E510F0A3E508124DFEA32F
:103D4300E50EF0A3E50F124DFEA3A3A3E509F09042
:103D53002B63E493C3950C5004E493F50C8E828F8C
:103D630083A3A3A3A3A3E50CF0850A08850B097518
:103D73000A007808120FE3E50CC333FCE433FDEECD
:103D83002406FAEF34001261A1120FFAEEFAEFFBE8
:103D93007F0C020D01C082C083123DA979FF121C62
:103DA3009C7901024E90902B52E493FC740193FD95
:103DB3002274F7120A59EA7001EB60498A828B83F5
:103DC300A3A3A3A3A3A3E5827002E58360377E00C8
:103DD30080010E8A828B83A3A3A3A3A3E0FFEEC378
:103DE3009F5022EEC333F8E433F9EA28F582EB3926
:103DF300F583A3A3A3A3A3A3E06C7003A3E06D7057
:103E0300D1790180027900023EF574F3120A59EA6E
:103E13002405F8EB3400F9E8FEE9FFEA7001EB60F2
:103E23006F8E828F83E06073EA240608EB3400F917
:103E3300E0F50B750A00800B8E828F83E014F0602F
:103E43005A050AE50AC3950B5046E50AC333F5083C
:103E5300E433F509EA2508F508EB3509F509740695
:103E63002508F508E43509F509850882F583E06C32
:103E73007003A3E06D60C1850882850983E0F508BE
:103E8300A3E0126193E824020808E93400F980B141
:103E93008E828F83E06004790180027900800312AF
:103EA3000FFA7F05020D0174F7120A59EA7001EB4C
:103EB3006037126A60C0E0902B63E493FED0E0C3E6
:103EC3009E502688828983E0C333FEE433FFEA2EC3
:103ED300F582EB3FF583A3A3A3A3A3A3ECF0A3ED88
:103EE30012657304F07901800279008005740D1264
:103EF3000FFA7F01020D0174F2120A5989088C0925
:103F03001240367005125DEB800312400F74FE659C
:103F13000A700474FF650B70067A007B0080647876
:103F230000790080187401650C700F8C828D83E01A
:103F3300650A7004A3E0650B6049123C42123F8995
:103F430050D71243D38A828B83E0650870ECA3E0D9
:103F5300F50CEA2402FCEB3400FD8E828F83E064CF
:103F63000160C2E50C70D38C828D83E0650A700416
:103F7300A3E0650B70C48A828B83A3A3A3A3E0652C
:103F83000970B702478A902B56123968C3E89AE939
:103F93009B2274F2120A59EA2408F8EB124D826448
:103FA300017005125DEB800312400F74FE650A7009
:103FB3000474FF650B60527E007F008047EEF8EFCC
:103FC300F9E875F00EA4F8AAF075F00EE9A42AF941
:103FD300E82457FAE9341BFB850882850983E064EA
:103FE30001701B8A828B83A3E0640170148A828B25
:103FF30083A3A3E0650A7004A3E0650B70031213A7
:104003007212401712402440B402478A1213BA8A2C
:104013000A8B0B2212401CFF22EE24010EEF340008
:1040230022902B5612402D022ED8E493F87401935C
:10403300F9C322EA2408F8EB1261B3E064012274A5
:10404300F3120A59890C8A0A8B0B7508007509004B
:104053007E007F00801B12436B650C7011AC0AADB0
:104063000BAA82AB83121378E96003124E1C124031
:104073001712402440E0AA08AB09023EA574F112CE
:104083000A59890D8A0A8B0B8C0E750C0075080072
:104093007509008005050C124E1C902B56123B141B
:1040A300E50898E509995038E50875F00EA4F8AAD3
:1040B300F075F00EE509A42AF9E82457FEE9124049
:1040C300EA650D70D2AC0AAD0BEEFAEFFB12137872
:1040D300E960C4E50CC3950E40BBEEFAEFFB800428
:1040E3007A007B00022DE6341BFF02303674F61291
:1040F3000A597508007509007808120FE712413153
:10410300124348E9A42AF975832B758252E4932854
:10411300FCA3E49339FD7A417B00121D8C740212D7
:104123000FFAE9FE60031213A8EEF9024E48902B32
:104133005212386E902B562274F6120A5974FE12DC
:10414300108C12415F120FE7750802750900780899
:10415300120FE77C007D007A41024E3D851882856F
:104163001983E4F0A31243C785820885830978087D
:104173002274F4120A5974E712108C7E007F0085B2
:1041830018828519838582088583097808120FE7C9
:104193007508028E097808120FE77C007D007A41CA
:1041A30012429C120FFAE9600302427E8E0A8E0BC2
:1041B300805874021212A6AC82AD83740D1212A63B
:1041C30012575C1213C0740A1212A6E060397411FC
:1041D3001212A68582088583097808120FE77412E4
:1041E3001212A6E0FD74111212A6E0FC740412125E
:1041F300A6AA82AB83740D1212A6E0F912136C7493
:1042030002120FFA124017122D0C8518828519839A
:1042130012428F5066740B1212A685820885830999
:104223007808120FE7902B52120DED902B52124289
:1042330087E8850AF0A4C8AAF0850BF0A42AFA85BA
:104243000AF012435D12429C120FFAE970B9740A24
:104253001212A6E4F0740C1212A6E070030241B528
:10426300740A1212A67401F0740D1212A6124E18DB
:1042730074021212A6124D940241D1EEFAEFFB74AE
:1042830019024E9EE493F8740193F922125191C3DB
:10429300E50A98E50B99227A227B00121D9E74048D
:1042A3002274F5120A5974F012108C85188285193C
:1042B30083E4F0A3F0FE805A12436B64FF605085E1
:1042C3008208858309750A007808120FE3123DA955
:1042D30074051212A6AA82AB831261A2120FFA749A
:1042E300021212A68582088583097808120FE790C7
:1042F3002B52120DED74041212A612439E902B52F0
:1043030012434812435D1243A9120FFA12438E124D
:10431300401CFF12402440A08518828519838582A2
:10432300088583097808120FE77508027509007874
:1043330008120FE77C007D007A411243A9120FFA9D
:104343007410023C3A124287E88508F0A4C8AAF028
:104353008509F0A42AFA8508F022E9A42AF974024F
:1043630028FCE439FD7A4122124370E022EEF8EF93
:10437300F9E875F00EA4F8AAF075F00EE9A42AF98D
:10438300E82457F582E9341BF583228518828519C1
:1043930083E02401F0A3E03400F022E0F508A3E079
:1043A300F509221243B17B00121D98740422EA75A9
:1043B300F00BA4FAACF075F00BEBA42CFBEAFCEBCE
:1043C300FD7A23221243CB22F0851882851983229A
:1043D300E8FAE9FBEA75F00EA4FAACF075F00EEB1F
:1043E300A42CFBEA2457FAEB341BFB22EAF0A3EBE1
:1043F30012444F22C082C08374F312108C1245B84A
:104403006402700E12443D1212A61244471212C4E3
:10441300800CEAFCEBFD74031212A6124424024E34
:104423008512442B1212CA22AA82AB831224E2857C
:104433001882851983AA82AB83228A828B831251C5
:1044430091740122E8F0A3E912444F22124453224B
:104453001243CB80E074F7120A5974F312108CECF8
:10446300FEEDFF7404851882851983F0740B121214
:10447300A6EAF0A3EB1236A4F508601D74038E823E
:104483008F83A3A3A3A3A3A3A3A3F01212A6AC8217
:10449300AD83EEFAEFFB1223A4A908023EF0C0821B
:1044A300C08374F312108C7404851882851983F009
:1044B300740B1212A61243EF1212D07401024E872C
:1044C300125760740D2274F6120A5974F312108C89
:1044D300900332E0706E7404851882851983F0901E
:1044E30003711244411212A6124D941216DEEAFC15
:1044F300EBFD74031212A61235BA1216EA8A088B60
:1045030009A808A90974011212A6E0687003A3E0C0
:1045130069602B74FE68700374FF69602174011273
:1045230012A6124D9474031212A6AA82AB8312161A
:10453300F0851882851983AA82AB831212D674017F
:10454300900332F0740D024E45C082C08374F3129F
:10455300108C1245B8FC74026C701E12443D12128A
:10456300A6E8F0A3E9125FDC7048851882851983F9
:10457300AA82AB831212D6803974036C7011EAFCE1
:10458300EBFD74031212A6124424E9702580DB7438
:10459300016C70128A828B83124E18740B1212A64E
:1045A300E8F0A3E9800B740B1212A674FEF0A37457
:1045B300FFF0024E857404851882851983F08A8280
:1045C3008B83A3A3A3A3023A5874F5120A59780064
:1045D3007900880888097C007D008003123A2C90BA
:1045E3002B56E493FE740193FFC3EC9EED9F502181
:1045F300ECFEED12461B60E4AE08AF0974012EF524
:1046030008E43FF509EA6E7002EB6F70CFA882A948
:1046130083E8FAE9FB023C3DFFEE75F00EA4FE854C
:10462300F00A75F00EEFA4250AFFEE2457F582EF8A
:1046330012463722341BF583E064FF22C082C08315
:1046430090034674F4F0A37415F090034874EEF0ED
:10465300A37415F090034C7450F0A37414F0024E3D
:1046630090C082C08390034A74E8F0A37415F002EB
:104673004E9074F7120A59EAFEEBFF900380E0FABA
:1046830074086A601974046A60148E828F83E0640C
:10469300017046124BBC12585FE06406703B8E8279
:1046A3008F83A3A3124E1874FE68700374FF6960AE
:1046B30028900371E0687003A3E069700BEE241582
:1046C300F582EF12636D600AEEFA1216A8E9F50897
:1046D300800AEEFA1216AE80F47508C2EEFAEFFB0A
:1046E300121D2CA908023EF574F2120A598A088B8E
:1046F300098A828B83A385820A85830B8A828B83B3
:10470300E0F8850A82850B83E028FAE43400FB1283
:104713001D268A0C8B0DAE0CAF0DEE7001EF605CA5
:10472300850882850983E0FC7D007900121C9C8E3C
:10473300828F83A3A31261C71216E48E828F83A391
:10474300A3A3A3124BD5850882850983E0F8EE283D
:10475300F8EF3400F9124BBC125174C0E01261D768
:10476300D0E0F01216F6EE240E1261DAE9124D4E85
:10477300E0C0E0EE24111261DAD0E0F0EEFAEFFBD4
:104783008005740D120FFA7F06020D0174F4120AEC
:104793005974EB12108C8A088B098C0A8D0B9003C9
:1047A30081780812124BE9900387124A4712124B81
:1047B30074051212A6E9F074041212A67401F074BF
:1047C300071212A6E4F07402900380024E9B74F465
:1047D300120A5974EB12108CEAFEEBFF900342E0CD
:1047E3007002A3E070677A077B00121D26900342D4
:1047F300124BD5900342E07002A3E0604C90034259
:10480300125DE78F838E827407120F0A8E828F8365
:10481300780812122D851882851983780812124B95
:104823008E828F83A3A3A3A3E0C0E074051212A614
:10483300D0E012656DC0E074041212A6D0E0F074EB
:10484300071212A612499180067910800279017429
:1048530015024E9EC082C083900342E07002A3E023
:10486300601090034212575C121D2C900342E4F037
:10487300A3F01216181217EC024E9074F3120A5991
:1048830074EB12108CECFEEDFF74221212A6780862
:1048930012122D74261212A6E0FC74271212A6E03F
:1048A300FD74281212A6E0F50C740F6C7005740FDA
:1048B3006D6012901C1BE06402700579C102498C83
:1048C300ECC39D40F6900381780812124BE99003E4
:1048D30087F0EC900385F0ED900386F0E50C9003F0
:1048E30088F074FF6A700374FF6B701F901C29E0DB
:1048F30064FF7004A3E064FF7005121CA8800C9091
:104903001C29124D47E8F0A3E9800790037EEAF0E3
:10491300A3EBF0EE7001EF6017EEFAEFFB1218A6AF
:10492300E96401700BEEFCEFFD7A927B031223A482
:10493300900371E4F0A3F0900374F0A3F09003915B
:10494300F0901C1BE06402700A740F900385F090D2
:104953000386F07405900380F074041212A6E4F049
:10496300900381780812122D85188285198378089F
:1049730012124B900387E0C0E074051212A6D0E038
:10498300F074071212A61249917415023EA2E412A2
:10499300499622124453122422229003CCE0F912A6
:1049A3001DD422C082C083900341E07003121F48CC
:1049B300121414024E90C082C083900341E070072A
:1049C300E4901BA8F080317401901BA8F090034180
:1049D300E064FF60237C41E0C394415002E0FCECBF
:1049E300FAE0C39AF0EC75F0E8A4CCAAF075F003F2
:1049F300A42AFD7A80124A077AA87B1B79411224E4
:104A03000A024E907B009003CCE0F9121DC8227479
:104A1300F4120A5974EB12108C8A088B098C0A8DD4
:104A23000B7401900380124A4712124B7405121241
:104A3300A6E9F074041212A67403F074071212A606
:104A4300E4024E9B1243C77808221249967415223A
:104A530074F4120A5974FC12108CE98518828519B2
:104A630083F0EAFEEBFF90037E125DE71216128AD3
:104A73000A8B0BEA7001EB700579CA024BB7EA2483
:104A830009F508EB124E24850882F583E064FE7075
:104A930004A3E064FF700579C3024BB790037E1251
:104AA300575C121852E50A240CF582E50B124D3FB0
:104AB300124D6474021212A67402F074011212A64B
:104AC300AA82AB831217688A0A8B0BAE0AAF0BEE6E
:104AD3007001EF7003024BAE124BBC124E187406FA
:104AE30088828983F0A3A882A98390036BE08882DC
:104AF3008983F0EE2417F582EF125668EE241A121A
:104B030061DA124BD5EE24131261DA740112617467
:104B13007440F0A3E412518A8E828F83A3A3E8F03A
:104B2300A3E91261FDE9FE6003024BB0740990032F
:104B330080F0AA08AB09794B124D39124E18900335
:104B430074124D94900373E0FA851882851983E0FB
:104B53006A600CE090037312518679E112240A9083
:104B63001C09124E18901C0BE0687003A3E06960E7
:104B73001A900344124D94901C0B12575C12170E9B
:104B8300901C0B125DE77A01124A077A007B04122C
:104B9300499D901C0B12439E740278081211A5AC18
:104BA30008AD09FA7B04124A0980027E10E49011D1
:104BB30009F0EEF97404024E9E124BC022EE240B50
:104BC300F582EF3400F58322124BC61257608882B8
:104BD3008983EAF0A3EBF02274F1120A5974E2120A
:104BE300108C851882851983ECF0A3EDF0EAFEEBB7
:104BF300FF742D1212A6E0F50E900380E0FA740400
:104C03006A600574086A700579C2024D318518829D
:104C1300851983E0FCEEFA1216128A088B09EA70F2
:104C230001EB700579CA024D31EA2409F50AEB124A
:104C330061ECE064FE7004A3E064FF700579C302D5
:104C43004D317403900380125186795012240AAABD
:104C53000AAB0B794B12240A851882851983124DEE
:104C630047124D94E5082402F50CE5091261F6900C
:104C73000373124D5C900374124D94E50E90036B15
:104C8300124D6474CE550E4480C0E074121212A605
:104C9300D0E0F0E508240CF582E509124D3FF074ED
:104CA3000F1212A67402124D5C74071212A6E8F0DA
:104CB300A3E9124D9A74101212A6E8F0A3E9126147
:104CC3008AC0E074051212A6D0E0F0741B1212A67B
:104CD300E4124D4EA3A3E0900386F07A867B03791A
:104CE30054124D39A3A3A3E0900385F07A857B0387
:104CF300794712240A900385E0C3940F5024740566
:104D03001212A6E0C0E074021212A6D0E0F07404FE
:104D13001212A67401F074021212A6AA82AB8312B5
:104D2300242E74051212A6AA82AB83122410741EB9
:104D3300120FFA022DE612240A0231C01254D404CF
:104D43009003912212519190037E22124D5222F030
:104D5300850882850983A3A32212517CF8A3E0F975
:104D630022F0EEFCEFFD7A927B031223A422C08291
:104D7300C083EB900388F0121600024E90F8EF12F6
:104D83004F8A8882F583E022124E02A3E022126149
:104D930064E8F0A3E9F022124E0D024D5F74F7129E
:104DA3000A5974F812108CEAFEEBFF790090038025
:104DB300E06408704185188285198374FD1261C906
:104DC3001216DE74021212A6124BD574051212A625
:104DD300E4124DFEE0C0E074041212A6D0E0124EBD
:104DE30009C0E074061212A6D0E0F074071212A6EE
:104DF30012518512174A7408023EF2124E0222F033
:104E03008E828F83A322F00230361243CBE02285B9
:104E1300188285198312519122E5082401F508E5CA
:104E2300093400F50922120FE775080275090078A5
:104E330008120FE77C007D007A221243A9120FFAB1
:104E43007402120FFA7F02020D01C082C083900325
:104E53005274DAF0A37414F09003EF7498F0A3740F
:104E630017F0900356740AF0A37415F09003587466
:104E7300DAF0A37414F090035A7410F0A37415F0CD
:104E8300800B740B1212A61244C3120FFAD083D0F4
:104E930082020F8E74078003124A4D120FFA7F04A9
:104EA300020D0174F0120A598A828B831261E1EEBA
:104EB3007001EF7003024F87EA2402F8EB124F8A66
:104EC300900312E07002A3E0601388828983E0F903
:104ED300EEFAEFFB90031212585F12263AEE240605
:104EE300F8EF3400F9880A890BEE2409080808EF63
:104EF3003400F9880C890D8882F583E06402704BD5
:104F0300850A82850B83E0540260528508828509F5
:104F130083E064E96047EE240A08EF126A65700AC9
:104F2300901C1DE00488828983F0E014F0740485EA
:104F33000C82850D83F0901C1E12616EE8F0A3E9CC
:104F4300126A7A7001EB7003126552850C82850D2B
:104F530083E0FA74026A600574066A7027850A8220
:104F6300850B83E0A2E0501C850882850983E0F964
:104F7300EEFAEFFB12251E850A82850B83E054FEB1
:104F8300F0A3E0F00230E93400F9880889092274BB
:104F9300EC120A5974DD12108CEAFEEBFF8C128DB1
:104FA3001374371212A6780C12122D7510007405A3
:104FB3001212A6AC82AD831224D0EE240BF508EFB7
:104FC300124E2474051212A6E0A2E55019751001C1
:104FD300AC82AD8385088285098312575C12252A2A
:104FE300E9600302512D74051212A6E0A2E65022D5
:104FF30074061212A6E05403701874051212A6E088
:10500300540CFA740C6A600A74086A60057511011D
:10501300800375110074051212A6E05403FA74029A
:105023006A7013AC82AD8385088285098312575C4D
:105033001224B202512DEE2406F50AEF122D147438
:10504300016A7037E511600312516374051212A6E9
:10505300A882A98374031212A6E8F0A3E912518A65
:10506300851882851983125174C0E074021212A646
:10507300D0E012518612260E02512DEA600302512E
:105083002D900368E06401700C850A82850B83E030
:10509300700302512D74221212A6740212518A74E3
:1050A3001A1212A6124D94E511600874051212A685
:1050B30012516374051212A6E0540C64047073EE6B
:1050C300240FF582EF12636DC0E074171212A6D09D
:1050D300E0F0900314E07002A3E0604E1216E48A3D
:1050E300088B09A808A909741A1212A6E0687003AC
:1050F300A3E0697035780C120FDFE510F508780826
:10510300120FEB7812120FE7A911740C1212A6AC4E
:1051130082AD8374211212A6AA82AB839003141268
:10512300585F12263A7407120FFA7423120FFA0209
:105133003D93780C120FDF7812120FE790037E1263
:105143000DC0A91074221212A6AC82AD83740D1285
:1051530012A6AA82AB831225127408120FFA80CA10
:10516300AC82AD838508828509831257601224BE01
:1051730022E8F0A3E912517C22F0850A82850B8391
:10518300E022E412444F221231BF12519122E00275
:105193004D5FC082C083121E82024E90C082C083C4
:1051A300121E88024E90C082C083121E8E024E9041
:1051B300C082C083121E94024E9074F7120A59746F
:1051C300091212A6E0F5087808120FEB121EA0745C
:1051D30001023EF2C082C083121EA6024E90C0821C
:1051E300C083121EAC024E90C082C083121EB20254
:1051F3004E9074F7120A59EAFEEBFF7401697010BE
:10520300790012151C7C1E7900EEFAEFFB1214C80C
:10521300023EF574F4120A5974F912108C8A088B41
:10522300098C0A8D0B74131212A612575C90112B62
:10523300E07002A3E06027E9851882851983F07482
:10524300011212A6780812124BEAF8EBF974051250
:1052530012A612444790112B12585F12263A024E9F
:1052630097C082C083121EE2024E9074F7120A594D
:10527300901BABE0F97F00800B1254AD540D640119
:105283007001190F12546A5003E970ED023EF57470
:10529300F7120A59901BACE0F97F00800B1254AD52
:1052A300548D64817001190F12546A5003E970ED33
:1052B300023EF574F3120A59890CE975F006A4F855
:1052C300A9F0740C28F508E439F509EA2508FAE48D
:1052D3003509FB121D268A0A8B0BAE0AAF0BEE7043
:1052E30001EF6027AC08AD097900121C9C124BBC7E
:1052F300E50CF0EE2508F8EF3509F98E828F83A3CC
:10530300A3A3A3A3A3A3A3A3124D94EEFAEFFB02BB
:105313003EA574F6120A59EAFEEBFF1214A4901B81
:10532300AAE0FAE9C39A400990034E12575C12149B
:10533300AAEE2402F8EF124F8A900350E088828984
:1053430083F0900350E00412535A1214B08508827C
:10535300850983E002412DF0EEFAEFFB22C082C003
:1053630083790090034E80010912575C8A828B83F4
:10537300E5827002E58370F0024E9074F7120A59C9
:10538300EAFEEBFFEE7001EF605E90034EE0700209
:10539300A3E0605490034E125AB67A007B00800F4C
:1053A300AA82AB83125AB6E5827002E5836039EEB6
:1053B30065827003EF658370E78E828F83124E18C8
:1053C30090034E125DE7EE6C7002EF6D7005900373
:1053D3004E80048A828B83124D94EEFAEFFB1225E2
:1053E300DEEEFAEFFB121D2C023EF5C082C0839065
:1053F300034EE0F8A3E08003ECF8EDF9E87001E96F
:105403006009125DE3EC7001ED70ED8A828B83E439
:10541300F0A3F0E87001E960068882898380039035
:10542300034E124BD5024E9074F7120A5990034E55
:1054330080048A828B831261BD7001EB60227F003E
:1054430080010F12546A50EAEF75F006A4FCADF028
:10545300EA2CFCEB3DFD74101254C16970E4800426
:105463007A007B00023EF51254CEFCEFC39C2274FB
:10547300F7120A5978008001081254CAFDE8C39D47
:105483005025E875F006A4FEAFF0EA2EFEEB3FFFD1
:10549300EE2410F582EF12636D6970DCEE2411F5D2
:1054A30082EF12636D4CF0023EF5EF75F006A4FC3B
:1054B300ADF0EA2CFCEB3DFD74111254C1222CF526
:1054C30082E43DF583E0221254CE22EA240BF582D6
:1054D300EB3400F583E02274F6120A591215947A1C
:1054E30000801B8A08750900740378081211A5123D
:1054F300634C125F18A3A3A3A3A3A3A3F00A902B47
:10550300661268AD40DD7A00801A8A087509007456
:105513000378081211A5E50824E2F582E509341A97
:105523001261C50A1268AA40E1902B58E4939003D4
:105533005CF012553B024E487CE87D037A107B00F9
:105543009003CCE0F9121DCE2274F0120A5974FDB7
:1055530012108CEAFEEBFF89088C091215768A0A71
:105563008B0BA80AA90B900371E0687003A3E06991
:105573007005790002565DAC087902EEFAEFFB1272
:105583001570E960EDE508F50A780A120FEB125C75
:1055930024120FFAE9600302565BE508C2E5F50839
:1055A300900351E0F50C900371125DEF780A120F2E
:1055B300E77D017C00900351E0F9AA0AAB0B1215B9
:1055C300287402120FFAE9FA900351E004F0EA603A
:1055D3000302565B74011212A67406126204EA7087
:1055E30001EB6070125662E50A241AF582E50B128C
:1055F30061DD124BD5E50A125DDEE50B1261DD12AA
:10560300444188828983F074785508126371A3A397
:10561300E50CF0EE88828983A3A3A3F0EF88828947
:1056230083A3A3A3A3F0E488828983A3125672748D
:10563300FD1261C9E5096013C3941E500EE50A24E7
:1056430013F582E50B1261DDE509F0AA0AAB0B1233
:1056530013EA80067910800279C774030230E6EA00
:105663002417F582EB124BC67401F01216DE22A347
:10567300A3A3A3F0850A82850B83A3A322C082C0C0
:10568300839011CCE06401901C1C7006E0FC79014E
:105693008004E0FC79037A007B001214C8024E9068
:1056A30074F4120A598A088B09E9FE121780E9601B
:1056B300077AFF7BFF02573E901C1BE06402706E6B
:1056C3007900125741EA7001EB6042126A60FC7480
:1056D300016C7022900370E08A828B83A3A3A3A33F
:1056E300F08A828B83A3A312575C74FE6A700374DF
:1056F300FF6B6010804574036C601A74046C700453
:105703007AFE80AF88828983E0640270089003BDCB
:10571300E06402701990037E125DE7AA08AB0912D8
:10572300182EEA7001EB6006AA08AB09800DAA08DF
:10573300AB0990035212585F12263A024EA1AA08EF
:10574300AB0912574922121576EEF912156A22EAAD
:10575300240BF582EB3400F58312576022E0FAA3A1
:10576300E0FB2274F7120A59EAFEEBFF121300E979
:10577300700AEEFAEFFB121306E96006EEFAEFFB8E
:1057830080047AFE7BFF023EF574F2120A598A08FE
:105793008B098C0A8D0BE9FE7F00121780E97900D3
:1057A3006003025855AA08AB09126BE77002E58340
:1057B3006017A3A3A3A3A3E0FA74026A704F900334
:1057C300BDE064027003025853AA08AB0990035862
:1057D30012585F12263A12130C8A0C8B0DA80CA9CF
:1057E3000DE87001E96069E82405F582E912636D4B
:1057F300A2E0505C750C01A2E1501C7901AC08AD2C
:1058030009AA0AAB0B1214F8E9700F804374036AF8
:10581300703E750C028003D2E1F0900371E0650ADB
:105823007004A3E0650B700E7C1EEEF9AA08AB09A9
:105833001214C80F801AA90CAC08AD09AA0AAB0B45
:105843001214F8E9700A0FEEF9AA08AB0912151C35
:10585300EFF902478AEEFAEFFB90035412586322E2
:10586300E0F8A3E0F58388822274E8120A5974F001
:1058730012108C8A148B158C088D0974281212A6A9
:10588300E0F510A3E0F5119003F5E07002A3E060EA
:1058930012126BED7002E5836009A3E070057900D5
:1058A300025A9CE514241DF516E5153400F51785F9
:1058B3001682125AB4A3E0F50C88828983A3A3E06D
:1058C300F50B88828983A3A3A3E0FA88828983A343
:1058D300A3A3A3E0F9EAFEE9FFAA08AB0912152284
:1058E300E9FA125AC1E02AF50A530C78E514240B9D
:1058F300F50EE5153400F50F7808120FE77D001259
:105903005AA1120FFAE9FA74036A6092EA7042909C
:10591300036AE0601EE50CF50D780D120FEB7901BB
:10592300AC08AD09850E82850F8312575C125C2E7D
:10593300120FFAE50CF50D780D120FEB125C241221
:105943000FFAE9700C85108285118374FFF0A38030
:1059530049851082851183E064FF7004A3E064FF2E
:1059630060399003BDE0640270030258A1850E8282
:10597300850F83E0FAA3E012585B12263AEA650822
:105983007003EB650960030258A112585812263AB6
:10599300851082851183EAF0A3EBF07808120FE7F4
:1059A3007D01125AA1120FFAA90CEEFAEFFB1215A0
:1059B300768A088B09A808A909900371E068700327
:1059C300A3E0696003025A93EEFAEFFB123602700A
:1059D30002E5836023A3A3A3A3E0FA74016A60052D
:1059E30074026A7013851882851983AC82AD83EEC5
:1059F300FAEFFB121C1E80141216DEEAFCEBFD8587
:105A03001882851983AA82AB831223A48514828505
:105A13001583A3A3A3A3A3A3A3A3E06401701AE51F
:105A2300142415F582E5151261DD125DE774081281
:105A330012A6AA82AB831223A4851682851783122A
:105A4300585FA3E04430F5087808120FEB74011295
:105A530012A68582088583097808120FE7740B1252
:105A630012A68582088583097808120FE7E50BF5EE
:105A7300087808120FEB7900EEFCEFFD850E8285A6
:105A83000F8312575C1214F27406120FFA0258A114
:105A9300125AC1E50AF01216F6741002688BAC0AAA
:105AA300A90B850E82850F83125760121528740285
:105AB30022F5831251918001F98882898322851608
:105AC30082851783125863025C0A74EE120A5974B2
:105AD300F012108C8A108B11EA241DF50EEB3400A2
:105AE300F50F850E82125AB4A3A3E0F50C888289C0
:105AF30083125BFFE0FBECFEEBFF88828983A3A3A9
:105B0300125BFFA3A3E0FAE4CAFBECF508EBF5098B
:105B130088828983A3A3A3A3A3A3A3E0F50A88820E
:105B23008983A3E05478F50BA2E45016E82408FC1B
