:020000040000FA
:0600000002120E0207AC23
:03002B000225FBB0
:0300430002105F49
:03004B00020E9B07
:030053000206FFA3
:03005B00020EAAE8
:03006300020EB6D4
:10008300020748010101010503010F10FEFF0300F0
:100093000300030003000300030003000300030045
:1000A30005000A00140028004F009E000000621A99
:1000B300621A621A621A18191219621A0E290000BA
:1000C30000004A28000000000C0000000C00010A98
:1000D300D007AB07ED04FF01010030110000008BD6
:1000E30011E80364006400B8010202000010000577
:1000F3000207011E02051E020A03B80B02803E011D
:1001030003320002018888010A01E002020630314D
:100113003233343536373839414243444546002873
:100123006E756C6C20706F696E74657229003F3F49
:100133003F000000807F0000803FF9021550B74365
:10014300BA510000204100E7DB2E0000A040100060
:100153000000080000000A00000012123C60461272
:10016300125A603DE9687008F618F618F618F62278
:10017300748067F7120191090909748067F72212E5
:10018300125A601D12123C7005191919801A1210A7
:10019300CC701F1210F6C37003E6673319191940A8
:1001A300071818182208080874FFF618F618F61826
:1001B300F6221210F660171212BA702192F0121280
:1001C300B07019501720F014080808090909E7F658
:1001D3001819E7F61819E7F61819E7F6221212B0FC
:1001E30060E6E869701F0808E62480F608E436F63E
:1001F30018547FB47F0CE654806007F6E418F618B1
:10020300F622181822E9C6CC08C6CD08C6CE08C601
:10021300CFC0E0E8C0E0EAC0E0EBC0E009E9F809DC
:10022300E7FA09E7FBE6F918E6F8C3EC98ED99EE6F
:100233009AEBC2E7F5F0EFC2E795F0500E600CEBD6
:10024300CFFBEACEFAE9CDF9E8CCF8EAA2E7D2E7A8
:10025300FAEB33FB13F5F0EEA2E7D2E7FEEF33FF41
:10026300C5F013A2E730E601B313C5F0C3C0E0C085
:10027300F07F00C39BFB605B9418600C401AD0E0D6
:1002830023F9D0E0F80203608AF0E9486003D2F072
:10029300E4AFF0FAF9F8803BEB30E40D89F0EA6063
:1002A30003D2F0E4AFF0F9CAF8EB30E30D88F0EFD6
:1002B3006002D2F0AFF0E4CAC9F8EB54076014FB54
:1002C300C3EA13FAE913F9E813F8EF135002D2E083
:1002D300FFDBEDD0E0C0E030E739C3E49FFFF5F08A
:1002E300EC98FC42F0ED99FD42F0EE9AFE42F0D01C
:1002F300E0F9D0E0F8E5F0607AE923F9EE20E7428F
:10030300D8028067C3EF33FFEC33FCED33FDEE33EC
:10031300FE80EAEC28FCED39FDEE3AFED0E023F94D
:10032300D0E0F84002801BC3EE13FEED13FDEC1387
:10033300FCEF135002D2E0FF08B800067F7F74FF82
:10034300802EEF3350178CF020F00260100CBC00AD
:100353000C0DBD00080EBE000408E860DFE933E8B9
:1003630013FFEE2313FE4F4D4C8008E95480FFE446
:10037300FEFDFCEE33EF33F47004FCFD7E80D0E031
:10038300FBD0E0FAD0E0F8D0E0CFC618CEC618CD47
:10039300C618CCC6F92212125A7004181818221261
:1003A300123C700D74FFF61819F61819F61819F6A1
:1003B30022E7548066F61212B0700F1212BA70F070
:1003C30014F608F608F608F680D11212BA700CF685
:1003D30008F608768008E6447F80EC1210F9700C6A
:1003E3001210CF60BFE65480F6E480BB1210CF70CA
:1003F3000519191980A5E869700C763F18768018DD
:10040300F618F6E8F922E6CDC0E018ECC0E0E633D2
:10041300CD33CDD313F6E719FCE7191933CC33C326
:10042300947F400ECD9D502408E65480F6E418F6E0
:10043300800FF4043D14501408E6447FF6187680C8
:10044300E418F618F6D0E0FCD0E0FD22CCD313CCB0
:10045300FD18E4C6CBC0E018E4C6CAC0E00808ED46
:1004630008C633E613F618E433C675F003C3CA9718
:10047300CA09CB97CB199C40047D08802EBD00038D
:1004830002054216B6FF050606081618C3CA33CA84
:10049300CB33CB33CA27CA09CB37CB193CC37D082F
:1004A300803E187D0820E75CC633C6CA33CACB3307
:1004B300CB33DDF1D5F0EB30E77BCA97CA09CB9795
:1004C3004ACB199C406F4B7025E620E021806618CB
:1004D3007D08C3CA97CA09CB97CB199CD3C633C629
:1004E300CA33CACB33CB3350C9DDE7D5F0E1D3E40C
:1004F300C636C608C636C608C636C608C636C618C1
:1005030018188031C3CA97CA09CB97CB199CB3403B
:1005130097C633C6CA33CACB33CB33DD34D5F02EBB
:10052300C6A2E0C640C8CA27CA09CB37194A70BE5B
:10053300CB3CB480B90808E63308E633601F1818CB
:1005430018D0E0FAD0E0FBD0E0FCD0E0FD22187D2B
:1005530008CA27CA09CB37CB193CD3808013F618B6
:10056300E4B67F11F618B6FF0EF618C60470D2086B
:1005730008768080CAF618F618F680C50012125A5B
:10058300604F12123C6012E7548066F61210CC7072
:10059300111212BA703B090909F4F618F618F61885
:1005A300F6221210F670151212B008080860EAE677
:1005B300447FF618768018E4F618F6221212B0601B
:1005C300161212BA7012E4F608F608F608E654801A
:1005D300F609090918181822EAC0E0EBC0E0ECC0DC
:1005E300E0EDC0E0E687F0A4FBACF008E687F0A4FA
:1005F3002CFCE435F0FA1809E687F0A42C4B6002D2
:100603007401CA35F0FCE433FB09E687F0D2F7A4A2
:100613002CCB35F0FC1908E687F0A42BCC35F0FB86
:10062300E433FD0819E687F0D2E7A42C4ACB35F072
:10063300CD3400FC09E687F0D2E7A42DCC35F0FDDC
:10064300E433FA0918E687F0D2F7A42CCD35F0CAC3
:100653003400FC08E687F0D2E7D2F7A42ACC35F0C1
:100663007A7E20E70B0ACB33CBCD33CDCC33CC33DF
:10067300CB3350147004ED30E00ED2F1E4CD3DCD18
:10068300CC3CCC3B5005DA05C2F1EB547FC63308B2
:10069300E63392F0FBE73309E733C39A502D2B700F
:1006A300190C0D4C4D70151806E608C333700D2058
:1006B300F10AA2F013F6E418800B4024E4F630F0BC
:1006C30002768018F618F618F68024D33B145010DF
:1006D30074FFA2F013F6187680E418F618F6800F6C
:1006E300A2F013F618E63303F618ECF618EDF6D07D
:1006F300E0FDD0E0FCD0E0FBD0E0FA22C0E074F2F1
:10070300120AC5E5A7F8E5A1F958541060081221AB
:100713003453A1EF802AE8A2E0C0D0E9A2E092F02E
:1007230012116C158182F05017906198E0F89016C1
:1007330092E0C398A2D265D0335002E8F053A1FEF1
:100743007F01020B7CC0E074F2120AC59061A4E041
:10075300F8759B00E59158540860087591F71221CC
:1007630076802AE59158541060087591EF12217C28
:10077300801BE8A2E0C0D0E591A2E092F012116CD8
:10078300158182F05007E0C2E0F012229C9061A331
:10079300E0F8E5E9585404600E12227275E9FB9003
:1007A3006193E0A2E640F28097C0E074F2120AC5BA
:1007B3009061A5E0F8E5BF585404600653BFFB12EF
:1007C30022B4020743C3E498F8E499F912080980B4
:1007D30026C3E49AFAE49BFBE920E7E9120809E45B
:1007E30098F8E499F922C3E498F8E499F91208090E
:1007F300E498F8E499F9C3E49AFAE49BFB22EB202A
:10080300E7CFE920E7E0B90010BB0008E88AF084ED
:10081300F8AAF022E4FBC8FA22EB70227B10C8335B
:10082300C8C933C9335007C39AC3DBF280069A5051
:10083300012ADBEAC833F4C8C933F4C9FA2275F0D4
:1008430008E4C833C8C933C933C99AC99B5004C91A
:100853002AC93BD5F0ECFBC833F4C8E4C9FA221229
:1008630008A220F01430E72B74FFFCFBFA747F809E
:1008730022E4FCFBFA7480801AB48008BC00F2BB4B
:1008830000EF800F50EBF9E4C39AFAE49BFBE49C7E
:10089300FCE499C6CC18C6CB18C6CA18C6F922E41C
:1008A300C9C608CAC608CBC6D3330308CCC633921D
:1008B300F0C3947F402E94184019C9B90704CACBDA
:1008C300CC225025C309CA33CACB33CBCC33CC3368
:1008D300D9F422F4600DC9CCC313CB13CBCA13CA0A
:1008E300D9F6CC22E4FCFBFA2214FCFBFA2208081A
:1008F30008EAC0E0EBC0E086F0E7A4FA180986F046
:10090300E7A42AFA180986F0E7A42AFA180986F058
:10091300E7A42AFA1986F0E7A4FBE5F02AFA1908F6
:1009230086F0E7A42BFBE5F03AFA190886F0E7A472
:100933002BFBE5F03AFA18180986F0E7A4C5F02B6B
:10094300FBE43AFA1908E7C5F0C6A426F6E5F03B3E
:10095300FBE43AFA1886F0E7A4F6E5F00826F6E495
:100963003B08F6E43A08F6D0E0FBD0E0FA220808A8
:1009730008E630E71112111F120989080808C64456
:1009830080C618181822181818E9799EC608CAC60E
:1009930008CBC608CCC6C370207996CACBCC7019D5
:1009A300798ECBCC70137986CC700EF9802ACA333A
:1009B300CACB33CBCC33CC331930E7F2CCCBCA33ED
:1009C30050147004EA30E00DE4CA3ACACB3BCBCCF6
:1009D3003CCC500209C3E913C6CC182313C6CB1869
:1009E300C6CA18C6F922E4CFC0E0E4CEC0E0E4CD25
:1009F300C0E0E4CCC0E075F020C3E633F608E6338C
:100A0300F608E633F608E633F6181818EC33FCED6F
:100A130033FDEE33FEEF33FFC3EC9709ED9709EE99
:100A23009709EF97191919400FFFEC97FC09ED97F8
:100A3300FD09EE97FE191906D5F0BEECF709EDF79F
:100A430009EEF709EFF7191919D0E0FCD0E0FDD052
:100A5300E0FED0E0FF222518C582C0E0E51934FF8F
:100A6300C583C0E0E518C3958224F810AF088583D9
:100A7300198582188008858319858218D2AFCEF034
:100A8300A3E520F0A37808E608F0A3DEFAEFF0A3CD
:100A9300E58124FAF8E608F0A3E608F0A3E608F0F7
:100AA300A30808E608F0A3E608F0A315811581D092
:100AB300E0FED0E0F8158115811581E8C0E0EEC0B5
:100AC300E022C0D02518C582C0E0E51934FFC583F4
:100AD300C0E0E518C3958224F310AF088583198518
:100AE30082188008858319858218D2AFC8F0A3E9DC
:100AF300F0A3EAF0A3EBF0A37908E709F0A3D8FA8F
:100B0300ECF0A3EDF0A3EEF0A3EFF0A3D0E0F0A39D
:100B1300D0E0F0A3D0E0F0A3E520F0A3E5F0F0A34C
:100B23002212129BB90003020B66E490030178C200
:100B330079198002F0A3D8FCD9FA901BC2AA82AB20
:100B43008390008678D879018015E493A3AC82ADB5
:100B5300838A828B83F0A3AA82AB838C828D83D812
:100B6300E9D9E77582CE7583BE7403120F88758247
:100B7300F67583257400120F88851983851882E022
:100B8300C0E0A3E0F9A3E0FAA3E0FBA37808E0F652
:100B930008A3DFFAE0FCA3E0FDA3E0FEA3E0FFA3CC
:100BA300E0C0E0A3E0C0E0A3E0F5D0A3E0F520A31C
:100BB300E0A3F5F010AF08858319858218800885B6
:100BC3008319858218D2AFD082D083D0E0F8D0E0E9
:100BD3003212125A601C12123C60171212B07007C4
:100BE3001212BA7001D322C0D01212BA7006D0D03A
:100BF300B322C32233D0D0501430E0F6C3E79608B3
:100C030009E7960809E7960809E796B32220E0D595
:100C1300E6970809E6970809E6970809E697B322D5
:100C2300D083D082ECC0E0EDC0E0E493A3FCE49376
:100C3300A3FDED4C600D120D47EC24FFFCED34FFDA
:100C4300FD80EFE493A3FCE493A3FDED4C600D1250
:100C53000E46EC24FFFCED34FFFD80EFD0E0FDD029
:100C6300E0FCE493A3C0E0E493C0E02212125A60D4
:100C73001B12123C60161212B070071212BA600CEB
:100C8300B322C0D01212BA7005D0D022C32233D0FF
:100C9300D0501330E0EBC3E7960809E7960809E75D
:100CA300960809E7962220E0E4E6970809E6970804
:100CB30009E6970809E69722D083D082E9C0E0E4E9
:100CC30093A3C386F0C5F095F0F908E493A386F0E7
:100CD300C5F095F0700BE493A3C3994005E9048034
:100CE30002A3E475F002A42582F582E5F03583F5CD
:100CF30083D0E0F9E493A3C0E0E493C0E022851934
:100D030083851882E0A3FEE0A3F5207808E0A3F62C
:100D130008DFFAE0A3FFE0A3C0E0E0A3C0E0E0A3A4
:100D2300C0E0E0A3C0E0E0A3C0E010AF08858218F4
:100D33008583198008858218858319D2AFD083D023
:100D430082020F8EC0E0C3E4939608740193961851
:100D5300400FE4936670080874019366187000707E
:100D630019A3A3C3E49396087401939618A3A3400D
:100D73000DD0E0D0E0D0E0020C5FA3A3A3A3A3A314
:100D8300D0E022D083D082C5F0E493A3C5F0C3950D
:100D9300F0F5F0E493A3C395F04005E5F00480017A
:100DA300E475F002A42582F582E5F03583F583E44A
:100DB30093A3C0E0E493C0E022740480047402802F
:100DC30000CCC0E0EDC0E0E518C39CCCAD195001E8
:100DD3001D10AF068C188D1980068C188D19D2AF93
:100DE300120F0AD0E0FDD0E0FC2274028000CCC0D8
:100DF300E0EDC0E0E518C39CCCAD1950011D10AF68
:100E0300068C188D1980068C188D19D2AF120EE836
:100E1300D0E0FDD0E0FC2212125A602512123C6091
:100E2300201212B070030212BA080808E7667010A5
:100E33001819E766700A1819E76670041819E76647
:100E430022F422C0E0C0F088F0E4936670080874CE
:100E5300019366187000A8F0A3A3700BD0F0D0E044
:100E6300D0E0D0E0020C5FA3A3D0F0D0E022D08387
:100E7300D082CCC0E0E493A36006120F691470FA29
:100E8300E493A360061210761470FAD0E0FCE493A6
:100E9300A3C0E0E493C0E022C0E074F2120AC512DA
:100EA30020747F01020B7CC0E074F2120AC5122089
:100EB3007A80EFC0E074F2120AC512208080E3C08A
:100EC30008C3E096F50808A3E096420808A3E09655
:100ED300420808A3E0964208A2D265D033E5087021
:100EE30001D3D00822CAC0E0E493A3C582CCC58253
:100EF300C583CDC583F0A3C582CCC582C583CDC5CB
:100F030083DAE5D0E0CA22CAC0E0E0A3C582CCC53B
:100F130082C583CDC583F0A3C582CCC582C583CDED
:100F2300C583DAE6D0E0CA22C008C3E096F5080814
:100F3300A3E096420808A3E096420808A3E096457A
:100F4300087001D3D0082270090808082260161817
:100F53001818C6C333C608C633C608C633C608C680
:100F630033C6D5E0EA22C0E0E493A3D39C5010E457
:100F730093A3C39C400AD0E0D0E0D0E0020E8EA33E
:100F8300A3A3D0E022C09FF59FE473D09F22D08318
:100F9300D082C09FE493C0E0740193C0E0740293D5
:100FA300F59F22C5822518C582C583351910AF0761
:100FB300F5198582188007F519858218D2AFC58384
:100FC300222518F58210AF08F5184002151980087C
:100FD300F51840021519D2AF851983227404800ACB
:100FE30074038006740280027401C0E0F404120FDB
:100FF300C4D0E012127622C0D0251810AF08F5181D
:10100300500205198008F51850020519D2AFD0D047
:1010130022BB0102E722C082C08389828A83BB008C
:1010230003E08002E493D083D0822260160808088C
:10103300C6C313C618C613C618C613C618C613C626
:10104300D5E0EA22C3E0C696F608A3E0C696F60802
:10105300A3E0C696F608A3E0C696F622C0E074F2B3
:10106300120AC5C2C0E5D1A2E450031220AA7F012F
:10107300020B7CC0E0E493A36C7009D0E0D0E0D015
:10108300E0020E8EA3A3D0E022251810AF08F518B6
:10109300400215198008F51840021519D2AF22C372
:1010A300E09608A3E09608A3E09608A3E096A2D2F0
:1010B30065D03322E066701008A3E066700A08A3C7
:1010C300E066700408A3E06622181818E6084608CC
:1010D300700AE608C3337005E633F4220822C3E737
:1010E300960809E7960809E7960809E796A2D265E4
:1010F300D03322191919E7094709700AE709C333DD
:101103007005E733F4220922C3E096F008A3E096C2
:10111300F008A3E096F008A3E096F022181818E46C
:10112300C396F608E496F608E496F608E496F622E3
:10113300E026F608A3E036F608A3E036F608A3E0B7
:1011430036F622E026F008A3E036F008A3E036F0F6
:1011530008A3E036F022E627F60809E637F6080981
:10116300E637F60809E637F622C0E0E8C0E0E58195
:1011730024FCF8E6A2E7D0E0F8D0E022E657F60830
:1011830009E657F60809E657F60809E657F622E096
:1011930056F008A3E056F008A3E056F008A3E05683
:1011A300F022700422600D18C6C333C608C633C6C6
:1011B300D5E0F41822E647F60809E647F60809E6FB
:1011C30047F60809E647F622E056F608A3E056F686
:1011D30008A3E056F608A3E056F622C6F4C608C6EE
:1011E300F4C608C6F4C608C6F4C622C3E09608A32C
:1011F300E09608A3E09608A3E09622C3E7960809C1
:10120300E7960809E7960809E7962275D0007581E5
:101213004075180175190300020B24600C08C6C33E
:1012230013C618C613C6D5E0F422E0F608A3E0F609
:1012330008A3E0F608A3E0F622E7094709C313472A
:1012430009336002E733F422E6F008A3E6F008A3CB
:10125300E6F008A3E6F022E6084608C3134608337F
:101263006002E633F422C5822518C582C583351989
:10127300C58322CAC0E0E6F0A308DAFAD0E0FA2276
:10128300E0FAA3E0FBA3E0FCA3E0FD22EAF0A3EB7A
:10129300F0A3ECF0A3EDF022E5C754F84401F5C741
:1012A3007901222518F582E43519F58322E6C33343
:1012B30018461846184622E7C333194719471947F2
:1012C30022120F918B8A01120F910F8B01120F9132
:1012D3007E8B01120F91278C01120F912F8C01121B
:1012E3000F91D08C01120F91338D01120F91058E46
:1012F30001120F917C8E01120F91B98E01120F9181
:10130300208F01120F916D9001120F91899001129C
:101313000F91E29001120F917F9101120F91CF91E2
:1013230001120F916A9201120F91179301120F91FB
:10133300559301120F91C59301120F91109401124D
:101343000F91499401120F91779501120F91B19664
:1013530001120F91129701120F915B9701120F91D6
:10136300839701120F91069801120F91869801122B
:101373000F91F99801120F911E9901120F912F9954
:1013830001120F91A59901120F91499A01120F9120
:101393008B9A01120F91119B01120F91389B01122D
:1013A3000F91609C01120F91739C01120F91CC9CC1
:1013B30001120F910D9D01120F91959E01120F9134
:1013C3002BA001120F915AA001120F91EDA001124F
:1013D3000F9146A101120F9132A201120F9135A470
:1013E30001120F913FA401120F9149A401120F9111
:1013F30053A401120F915DA401120F9177A401125E
:101403000F9181A401120F918BA401120F9195A446
:1014130001120F91B6A401120F9104A501120F91AD
:101423000EA501120F9132A501120F9156A50112BB
:101433000F91B5A501120F9100A601120F911EA6DF
:1014430001120F918EA601120F91CBA601120F91DB
:1014530012A701120F917AA701120F91ECA70112A3
:101463000F9120A901120F9143A901120F9106AA0E
:1014730001120F912CAA01120F910CAB01120F91C3
:101483006DAD01120F91D4AE01120F9197B00112FD
:101493000F91E9B001120F91CCB101120F9119B262
:1014A30001120F9184B201120F918EB201120F91AA
:1014B300ADB401120F91D2B401120F9123B50112F1
:1014C3000F9124B601120F915CB601120F919CB6D5
:1014D30001120F91FFB601120F9118B801120F916B
:1014E30078B801120F915EB901120F9164BB01121A
:1014F3000F9180BB01120F9125BD01120F916BBD9E
:1015030001120F9149BE01120F91B3BE01120F9147
:10151300E4BE01120F9120BF01120F91AEBF011261
:101523000F91B1BF01120F911DC001120F91252B15
:1015330000120F91772B00120F91AE2D00120F9115
:10154300FA2D00120F91BC2E00120F91332F0012AF
:101553000F915B3000120F91983200120F912F33CD
:1015630000120F91CF3900120F91553A00120F91CB
:10157300D23C00120F91B63D00120F915B3E001258
:101583000F91743F00120F91A54000120F919841E3
:1015930000120F91C94400120F918C4600120F9153
:1015A300EC4600120F91A24700120F914F48001210
:1015B3000F917A4800120F91074900120F91F449D5
:1015C30000120F91C84A00120F91664B00120F913F
:1015D300934B00120F91B54B00120F91AE4D0012B9
:1015E3000F91894E00120F91D64E00120F91374F73
:1015F30000120F91F94F00120F912E5000120F910C
:101603007C5000120F91AC5000120F91EA5000125F
:101613000F91425100120F91475100120F91A251A5
:1016230000120F91CA5100120F91E95200120F914B
:10163300555300120F91BF5300120F9148540012DB
:101643000F91675600120F91455700120F91B4582E
:1016530000120F91465A00120F91D65A00120F91A1
:10166300DD5B00120F91665C00120F91AD5C0012FE
:101673000F91245E00120F91385E00120F91525E9B
:1016830000120F916D5E00120F91795E00120F919F
:10169300975E00120F914E6000120F918760001247
:1016A3000F91946000120F91E36000120F91D661C5
:1016B30000120F911A6200120F919D6200120F9196
:1016C300A16300120F915D6400120F91D86500129F
:1016D3000F91B26600120F91496700120F91DB67F9
:1016E30000120F91F26700120F91166800120F910A
:1016F300206800120F912C6800120F914A680012A3
:101703000F918E6800120F91DF6800120F9100692C
:1017130000120F913D6A00120F91896A00120F9116
:10172300806B00120F91A86B00120F910A6C0012CC
:101733000F91836C00120F91946D00120F91406E04
:1017430000120F912D6F00120F91916F00120F91E4
:10175300287000120F91F87000120F912771001278
:101763000F91867100120F91347200120F915A7209
:1017730000120F91D27200120F91F77200120F91A3
:101783001A7300120F91557300120F9133750012E3
:101793000F91207600120F91D87600120F916F7877
:1017A30000120F91C37800120F91E27800120F918B
:1017B300517900120F91C57900120F911E7A001210
:1017C3000F91447A00120F917F7A00120F91AB7A36
:1017D30000120F91F67A00120F914F7B00120F91B6
:1017E300CB7B00120F91AF7C00120F911C7D001276
:1017F3000F91457D00120F91AB7D00120F91007E7A
:1018030000120F913A7E00120F918F7E00120F91FA
:10181300B47E00120F91FA7E00120F91177F00120F
:101823000F91C17F00120F910BD703120F9156D75F
:1018330003120F91DCC001120F9110C101120F911D
:10184300E6C101120F91BAC201120F91E5C3011251
:101853000F9169C501120F91E7C501120F91AEC631
:1018630001120F91CFC701120F9141C801120F91BD
:10187300A3C801120F91F1C801120F91FBC8011205
:101883000F9139C901120F91A2C901120F9141CAD7
:1018930001120F91BFCA01120F9174CB01120F9164
:1018A300E6CB01120F910CCC01120F913CCC01122B
:1018B3000F9169CC01120F910FCD01120F911FCD22
:1018C30001120F9172CD01120F917ECD01120F9172
:1018D3008ACD01120F9193CD01120F91F4CD011214
:1018E3000F9154CE01120F91A5CE01120F91C0CECC
:1018F30001120F91F0CE01120F9111CF01120F912E
:101903001DCF01120F915ED001120F917CD00112F5
:101913000F91E5D001120F91F8D001120F910FD161
:1019230001120F91A2D101120F91A1D201120F91B5
:101933009DD301120F911FD401120F9129D40112CB
:101943000F918CD401120F919DD401120F91E0D409
:1019530001120F9127D501120F915DD501120F913D
:1019630093D501120F91B1D501120F91D5D5011263
:101973000F9116D601120F9109D701120F914FD76C
:1019830001120F918AD701120F91E9D701120F911A
:1019930011D801120F914AD801120F9158D8011290
:1019A3000F91B9D801120F91F6D801120F9138D9BE
:1019B30001120F9169D901120F919DD901120F9153
:1019C300A8D901120F91C6D901120F918EDA011213
:1019D3000F9198DA01120F91D7DA01120F91EDDA14
:1019E30001120F9157DB01120F916BDB01120F9163
:1019F30063DC01120F9176DC01120F918BDC011273
:101A03000F912BDD01120F918FDD01120F9152DE29
:101A130001120F915DDE01120F917CDF01120F9114
:101A230098DF01120F91F0DF01120F9127E00112ED
:101A33000F9141E001120F91B5E001120F9146E1C0
:101A430001120F918EE101120F91A9E301120F917F
:101A530013E401120F917EE401120F91D7E60112F4
:101A63000F91E7E601120F91EAE601120F91F6E6F4
:101A730001120F910AE701120F9112E701120F9160
:101A830047E701120F91F5E701120F9165E8011283
:101A93000F91C9E801120F9162E901120F91FCE95C
:101AA30001120F912AEA01120F91BAEA01120F9162
:101AB300C6EA01120F91F5EA01120F9117EB011219
:101AC3000F913EEB01120F91A4EB01120F910EED5A
:101AD30001120F9111ED01120F9188ED01120F9177
:101AE30074EE01120F914CEF01120F91D6EF011218
:101AF3000F910BF101120F91BDF101120F91F6F14C
:101B030001120F9127F201120F9130F201120F917E
:101B13001CF301120F9198F301120F9128F4011293
:101B23000F91F2F401120F9176F501120F91ACF5BA
:101B330001120F91F5F501120F913BF601120F916E
:101B430049F601120F91B2F601120F91EAF6011252
:101B53000F913DF701120F91D9F801120F91B9FAC4
:101B630001120F9198FD01120F91C4FD01120F9103
:101B7300E4FD01120F9142FE01120F9178FE011252
:101B83000F919F8401120F91F1FE01120F9137FF04
:101B930001120F91869903120F91AD9903120F91C0
:101BA300818A01120F91CF9903120F91289A031280
:101BB3000F917F9A03120F91DB9A03120F91229BCD
:101BC30003120F91119D03120F91D2D503120F919E
:101BD300FAB303120F9102B503120F9105B5031265
:101BE3000F9146B503120F9192B503120F91C2B52F
:101BF30003120F91C5B503120F91C8B503120F91CC
:101C0300248A01120F91ABB603120F91679D031241
:101C13000F91829D03120F91D39D03120F91189E72
:101C230003120F91C29E03120F917CC803120F91EE
:101C3300C1C903120F91B1D603120F9118CA03122F
:101C43000F9131CA03120F9169CA03120F9116CB78
:101C530003120F913ECB03120F9110B703120F9192
:101C630088B703120F9193B703120F91B4B70312FE
:101C73000F91F58803120F913D8903120F91AB89E0
:101C830003120F91CE8903120F916E8A03120F91E3
:101C9300778A03120F91C48A03120F91ED8A0312FC
:101CA3000F914D8B03120F91E38B03120F91178C3E
:101CB30003120F91648C03120F91BE8C03120F91C8
:101CC300EC8C03120F91748D03120F91B98D0312D3
:101CD3000F91F88D03120F912D8E03120F913F8EEA
:101CE30003120F91518E03120F91708E03120F91F5
:101CF300398F03120F9159D103120F9121C103128E
:101D03000F9185C103120F91A9C103120F91A2C2B2
:101D130003120F916EB902120F914DBA02120F9175
:101D230089BA02120F9126BC02120F9168BC0212EB
:101D33000F911CBE02120F9160BE02120F9141BFA0
:101D430002120F91CEBF02120F9159C002120F91CE
:101D5300AFC002120F91EFC002120F9191C2021293
:101D63000F911AC402120F9131C602120F913FC68E
:101D730002120F91A4C602120F91EEC602120F9126
:101D8300C7C902120F9115D803120F912BD8031252
:101D93000F91A3B003120F91B6B003120F9154B178
:101DA30003120F918FB103120F91AAB103120F9176
:101DB300CFB103120F9114B203120F9145B2031264
:101DC3000F9176B203120F91EDB303120F9143D328
:101DD30003120F91B7D303120F91F9D303120F918B
:101DE30009D403120F9113D403120F917AFF011236
:101DF3000F9130E902120F9178E902120F9173EA01
:101E030002120F91FDEA02120F9147EB02120F919A
:101E130096EB02120F917AED02120F9198EE0212D5
:101E23000F91D3EE02120F91CEF002120F91E9F04F
:101E330002120F912AF102120F9166F102120F9111
:101E4300BFF102120F91D8F102120F91F5F10212B4
:101E53000F9158F202120F91E9F302120F910BF452
:101E630002120F9140F402120F9168F402120F91C3
:101E730075F402120F917AF402120F91E4F4021234
:101E83000F919FF502120F91D3F502120F91DDF519
:101E930002120F91E0F502120F9154F602120F9104
:101EA3006FF602120F91D5F602120F9110F702127C
:101EB3000F9113F702120F9157D203120F9168D2A9
:101EC30003120F91F0D203120F919B9F02120F91F5
:101ED300C99F02120F9114A102120F91A2A1021223
:101EE3000F911EA202120F9181A202120F91C3A29F
:101EF30002120F913CA302120F91E0A302120F9161
:101F030057A402120F9199A402120F9146A802122C
:101F13000F9113AA02120F91C3AA02120F910AABD7
:101F230002120F91EFAC02120F915BAF02120F91ED
:101F3300D5AF02120F91CBB002120F9134B402123B
:101F43000F9144B402120F91A4B502120F911FB660
:101F530002120F9139B702120F91A4B802120F9116
:101F630057DA02120F9116DB02120F918DDB021268
:101F73000F9112DC02120F9169DC02120F9169DDDD
:101F830002120F91C6DD02120F91CBE002120F91E4
:101F930085E102120F91EAE102120F9191E302121D
:101FA3000F9145E402120F91B0E402120F9161E622
:101FB30002120F91FAE602120F91F0E702120F914B
:101FC30061D803120F9163D803120F9110C3031248
:101FD3000F915FC303120F9118C403120F917EC4B4
:101FE30003120F9149BF03120F91A2BF03120F9166
:101FF30064FF02120F91B0FF02120F91BEC60312CB
:102003000F91CCC603120F9168D803120F9159D5C3
:1020130003120F9169D503120F9181D503120F910A
:10202300C9D503120F913BCF03120F9162CF031255
:102033000F91E7CF03120F9140D003120F91DD9E52
:1020430003120F91FB7F00120F913EAD03120F910C
:102053004CAD03120F91C6AD03120F9192AE031252
:102063000F913EB003120F918FCB03120F91C8CB88
:1020730003120F91E5CB03120F9143CC03120F917F
:10208300A8CC03120F91628F03120F91CE8F03120C
:102093000F91879003120F91049103120F912492D1
:1020A30003120F91B39303120F911D9403120F9117
:1020B300769403120F91829403120F919194031259
:1020C3000F91A49403120F91BA9403120F91C39426
:1020D30003120F91D69403120F91299503120F91B6
:1020E300319703120F91639703120F918597031290
:1020F3000F919E9703120F91B79703120F91B998FF
:1021030003120F91479903120F91EFC403120F911A
:1021130021C503120F912DC503120F9160C5031240
:102123000F9191C503120F91BFC503120F9134C6CE
:1021330003120F9163C603120F91DAB903120F91C1
:1021430000BA03120F913DBA03120F914FBA031253
:102153000F916BBA03120F91D9BA03120F91E2BA1E
:1021630003120F9141BB03120F9165BB03120F9131
:1021730024BC03120F9131BC03120F9142BC031212
:102183000F9145D603120F9192D603120F9116AAFF
:1021930003120F915EAB03120F916BAB03120F91FE
:1021A3007EAB03120F919DAB03120F91B3AB0312DE
:1021B3000F91C7AB03120F9141AC03120F91D7AC30
:1021C30003120F911FAD03120F912FAD03120F9145
:1021D30032D403120F9156D403120F917ED40312FB
:1021E3000F91A6D403120F9170BC03120F9189BCF7
:1021F30003120F9195BC03120F91A9BC03120F9107
:10220300C7BC03120F91D1BC03120F91DBBC0312A5
:102213000F91EEBC03120F9142BD03120F917BBDD0
:1022230003120F91AABD03120F91F8BD03120F9170
:1022330047BE03120F9162BE03120F916CBE0312CD
:102243000F917DBE03120F91C3BE03120F9160D78E
:1022530003120F912AF702120F9156F702120F91F0
:1022630072F702120F9185F702120F919BF7021278
:102273000F9107F802120F913AF802120F9197FB90
:1022830002120F91C2FC02120F91F5FC02120F9180
:102293005AFD02120F9142FE02120F916AFE0212C0
:1022A3000F917FFE02120F918FFE02120F91D3FE48
:1022B30002120F9128FF02120F9138FF02120F91A1
:1022C300E7CC03120F9102CD03120F912BCD031212
:1022D3000F9145CD03120F916ACD03120F9189CD52
:1022E30003120F91A1CD03120F91CFCD03120F91C2
:1022F300E9CD03120F91A8D703120F9150A6031231
:102303000F9157A603120F9163A703120F9193A77F
:1023130003120F91B9A703120F91ECA703120F91A8
:10232300FEA703120F9138A803120F919EA8031260
:102333000F91D7A803120F9123A903120F9150A94C
:1023430003120F9170A903120F911ACE03120F916A
:102353003CCE03120F9138CF03120F9159D00312C1
:102363000F91B8D003120F91F6D003120F9137D10A
:1023730003120F91008003120F910A8003120F9131
:10238300538003120F91518203120F91958203120E
:102393000F91C88203120F91528303120F91098781
:1023A30003120F91F48703120F91708803120F9198
:1023B300AD8803120F917BD803120F91009F031274
:1023C3000F911F9F03120F916A9F03120F91869F14
:1023D30003120F91B79F03120F91CE9F03120F9118
:1023E300DB9F03120F91F89F03120F91DBA00312DF
:1023F3000F9112A103120F911CA103120F9123A29B
:1024030003120F912EA203120F9140A203120F91F8
:1024130049A203120F9153A203120F91BAA20312FE
:102423000F9134A603120F91E8D703120F9135D8F9
:1024330003120F91CBD403120F91F5D403120F9112
:1024430008CA02120F9126CF02120F915384011270
:102453000F91328401120F91F58301120F91BA8308
:1024630001120F91968301120F917B8301120F9139
:102473000B8301120F91398201120F919E81011278
:102483000F912D8101120F916F8A01120F91BE9945
:1024930003120F910E8101120F91FC8001120F9113
:1024A300B08901120F91898801120F91709F021256
:1024B3000F91529F02120F917E9E02120F91E29D85
:1024C30002120F916E9C02120F911A9A02120F912F
:1024D300B59902120F916E9602120F91469602124F
:1024E3000F91EB9502120F91C89502120F9122954D
:1024F30002120F91CA9402120F91279302120F91A5
:10250300249302120F91339202120F91139202122B
:102513000F91639102120F91E58F02120F91AC8F0D
:1025230002120F917D8F02120F91648801120F9195
:10253300128801120F91ED8701120F91AA870112E0
:102543000F91BA8601120F917A8F02120F916C8F3D
:1025530002120F91588F02120F912A8601120F91C6
:102563004B8F02120F91738E02120F91FF8D021285
:102573000F91C58D02120F916D8D02120F91478A33
:1025830001120F91CBB503120F91798501120F91AF
:102593003C8D02120F916E8A02120F912C8A021245
:1025A3000F91208A02120F91938902120F91E188F1
:1025B30002120F91808602120F91EA8302120F9189
:1025C300B48302120F91528202120F9101820212FE
:1025D3000F913A8102120F910D8102120F916780C0
:1025E30002120F913A8002120F91008002120F9192
:1025F300B3FE0100000080FBC2C732E47387000111
:1026030000461C24000200201C25000200221C2678
:10261300000200241C27000200261C2800010028B9
:102623001C29000100291C840004002A1C860001C7
:10263300002E1C2A0001002F1C2B000100301C2C33
:10264300000100321C2D000800E0112E00010033B0
:102653001C2F000100341C30000100351C31000127
:1026630000361C32000100E81133000100E9113487
:10267300000100371C36000100EA11830002004408
:102683001C62001000F311630001000312640001D7
:1026930000DD1165000100311C6D000100431C6E5B
:1026A300000200DE1143000100381C44000200391F
:1026B3001C450001003B1C460002003C1C4700086F
:1026C30000EB11480001003E1C490001003F1C4A79
:1026D300000200401C4B000100421C0400010047A3
:1026E3001CA1000100491C37000100481C00000028
:1026F3000000000001363601010001020100010360
:102703000100010401060605020000070100340868
:1027130001000F090401010D0100FF0E080000175D
:10272300020000190100FF1A0100011B0100FE1C39
:102733000100081D0200001F01000120010001210A
:102743000200002301000F240200002601000127DC
:10275300010008280200FF2A0100072B0102402C78
:102763000100002D0100012E0100012F0100FF30A7
:10277300010B1C310800003A0100083B01000F2F38
:1027830001000003027102300160021102700201B4
:1027930002020202028002100261023A0041006357
:1027A3000273027202620243020002130238000043
:1027B30002000204021202000200020002000204EC
:1027C300020402370037003C0244020002390000D1
:1027D3000200026502000235028102000205028244
:1027E30002830200020101710101010101110101D2
:1027F300013101010101018001100161013B00145C
:1028030000630173017201620143010001130106B8
:10281300013D013500040112010001000100010026
:102823000104010401330133013C01440132013647
:10283300000001000165010001350081010001056F
:1028430001820183010001010371030103010301FB
:102853000301030103220302030103100300030026
:1028630003000300030003000300034203000324E7
:1028730003060300030003040312032503230325B4
:1028830003230304030403000300030003440300BE
:1028930003000323030003650321003503810300C1
:1028A300030503000300030003030471040204602F
:1028B30004110470040204020401040204100461FC
:1028C30004000414046304730472046204430400E4
:1028D30004130406040004000404041204000400A6
:1028E30004000400045104640000040004000444D0
:1028F300040004000400040004650400043504819A
:102903000464000504000483040004030071003020
:102913000160001100700031022003500480001098
:102923000061000000140063007300720062004342
:102933000000001300060000000000040012000065
:102943000000000000000004000400370037003CD2
:102953000244000000000000000000650000003594
:102963000081000000050000008300000036000124
:1029730000060000000F000000000000000000003F
:1029830000000003FFFF00000403FFFF0000FFFF40
:102993000FF4010005C4040320000100000B000034
:1029A30000000000000003010F0000841F13001E3D
:1029B3001F0100841F0200E81E0300EE1E0400F442
:1029C3001E0500FA1E0600061FFFFF0000016A1520
:1029D30006A015089A150BB21510F214027015050E
:1029E3008E150776150C52150D5E15FF00000300BA
:1029F30003000400080010001F003E007B00F600E7
:102A0300EC01D703AF075D0FB91E713D000003EA68
:102A1300F5E5D5D5C5B5A5959585857575656555D3
:102A2300554545353525251515057219A21978190A
:102A33007E199C1990198A19A819AE19B419C019CD
:102A430084196C1966199C36063A703DD940434483
:102A5300AD47174B814EEA5100160F00000B150BC3
:102A6300020002220F3200000600010203040506E1
:102A73000708090A0B0C0D0E0F621A741A7A1A3C16
:102A830019801A36194219DA1AF81AFE1AE01AECE2
:102A93001AE61A76187018AC18B218A6185E180C35
:102AA3000E020B040B0A0708000F00034948424DAE
:102AB3001817250502000119161816161523030009
:102AC300303017181921301B1D1F3000383C3E369B
:102AD3003B3B352B432C303016181920231A1C1E70
:102AE300309619BA19F21AC619CC19CE1A861A8C4D
:102AF3001A981A921A821888187C18B818000515A3
:102B03000D0910080400BE040A8E18A0180E000454
:102B1300001500010309280C100A09000005040828
:102B23000F08C082C083E99003CCF0E4900380F0E7
:102B330012234A9003DFE4F0A3F09003CDF0A3F057
:102B43001217A4122536121456122350900342E48E
:102B5300F0A3F09003F3E07002A3E060099003F3A5
:102B63001260A71225FE902B23E493FA7902122315
:102B7300FE02534E74F2120A59EAFEEBFF74805FB1
:102B8300F9E47001E960619003CCE0F9121CA28AB8
:102B9300088B09EA7001EB60467B0080010BEB7543
:102BA300F003A424D0F8E5F03429F988828983E47A
:102BB30093FA74FF6A6021850882850983E06A704D
:102BC300DCAA08AB0988828983A3E493C0E074017B
:102BD30093F583D0821225FEAA08AB09121C96EE48
:102BE300FA74806FFB022DA074105FF9E47001E9A1
:102BF300601D1216308A088B09EA7001EB600A1215
:102C0300155EAA08AB09121C96EEFA741080D4EE76
:102C130054207003022CED750C00124FEB7001EB86
:102C230070107C027D007A207B009003CCE0F912C7
:102C33001DB07C0079047A007B001215FA8A088B98
:102C430009800D740188828983F0850A08850B0940
:102C5300E5087002E509606D7C007904AA08AB09F8
:102C63001215FA8A0A8B0B750C01E50824041278F5
:102C73004324FFF0A3E034FF127C787002A3E070DA
:102C8300C9E5082409F8E5093400F98508828509AE
:102C930083A3A3A3A3A3A3A3A3A3A3E0640170A3F8
:102CA300850882850983A3A3A3A3A3A3E054047087
:102CB30092740688828983F07AB7850882850983AE
:102CC300122EB180851215CA7C0079017A007B002F
:102CD3001215FAEA7001EB7009E50C70057A2012FF
:102CE3002DA374206EFAEF022BE7EE541060071247
:102CF3001492741080EEEE544060071214DA74409C
:102D030080E2EE548060071213A2748080D67401AF
:102D13005FF9E47001E9601A9003F5E07002A3E043
:102D230060099003F51260A71225FEEEFA74010202
:102D33002BE674085FF9E47001E9602D12146290C8
:102D430011E8E06401701B9011E9E06015FC75F077
:102D5300E8A4CCAAF075F003A42AFD7A007B08123C
:102D63002F2AEEFA7408022BE674025FF9E470016D
:102D7300E9600A12176EEEFA7402022BE674045F1E
:102D8300F9E47001E96012126433125DA079011253
:102D93003DACEEFA7404022BE67A007B00023A4063
:102DA3007B009003CCE0F9121DB62274F7120A5986
:102DB30074E112108CEAFEEBFFEE7001EF603385D5
:102DC3001882851983AC82AD8312165A74061212C7
:102DD300A6E0601E74171212A6E0FD74011212A67B
:102DE300E0FCEEFAEFFB79001224B2E9600479A467
:102DF3008002790002529374F6120A59EAFEEBFF3D
:102E03008E828F83A3A3A3A3A3A3E0544060178E52
:102E1300828F831260A71265AB60067AFF7BFF8007
:102E230024122EA5801590036BE0A2E1500A7900CD
:102E3300122EA5121468800312167E74FE6A7003A4
:102E430074FF6B60458E828F831260A71265C71271
:102E530016FCE98E828F836006122E9EE480051293
:102E63002E9E7401F07C3A7D158E828F83125E4E06
:102E73001223F8E9F5087015EE7001EF6009790186
:102E8300EEFAEFFB1215D602609D7508CDAA088EE7
:102E9300828F83122EB1E960DF80ECE0240D12589B
:102EA3009E228E828F831267C0FAA3E0FB22E02466
:102EB3000C1252E4F91215462274F6120A59E9FE6D
:102EC300EAFF7A0F7B00121C90EA7001EB60197421
:102ED3000C8A828B83F0EEA3A3F0EF8A828B83A309
:102EE300F012629479008034EEF91216008A088B8E
:102EF30009A808A909E87001E9601F740688828996
:102F030083A3A3A3A3A3A3A3127611A3A3A3A3A3FE
:102F1300E0F91214ECEEF91215DC79100260BDEA47
:102F2300FCEBFD7A017B009003CCE0F9121DAA2291
:102F330074EE120A59EAFEEBFF8C088D09890E74B0
:102F4300121212A6E0F510A3E0F511851082F583A5
:102F5300E4F0A3F0123043EE241DF8EF3400F988B7
:102F63000C890D8882123050601F850A82850B837D
:102F73001233297014850A82850B8312571E85101C
:102F830082851183125DA08003750E00850C8285F6
:102F93000D831267BC120D8601093E30B32FCD2F6E
:102FA300D62FE12F3E3005303E3015302E303730EE
:102FB3007810120FE7AC08AD09EEFAEFFB12147AA2
:102FC3007402120FFAE9F50E8071EEFAEFFB121498
:102FD300808068A90EEEFAEFFB12172C80E7127CB3
:102FE3008864027056E50E7010850A82850B831281
:102FF3006C7D7003A3E0697042EEFAEFFB1216CC0E
:103003008039127C8864027032EEFAEFFB1216B438
:1030130080299003F7E07002A3E0601FEEFAEFFB54
:103023009003F71260A71225FE8010EEFAEFFB1251
:1030330017388007EEFAEFFB121744A90E024D97DB
:10304300EE2409F8EF3400F9880A890B22F583127C
:1030530067C0F91216DEE92274ED120A5974DE1202
:10306300108CEAFEEBFFEE2402125A19F912160035
:103073008A088B09EA7001EB7003023147EE240CD6
:10308300F50CEF1249E0EA2409F50AEB127512EA8E
:103093002406F50EEB1239468E828F83A3AE82AFE0
:1030A30083E064F16017E064CD6012E0641A600DA0
:1030B300E064E96008E064E160030231C8850E82E0
:1030C300850F83A3E05408F9E47001E9700302312A
:1030D300547405850A82850B83F09003FBE070022C
:1030E300A3E060099003FB1260A71225FE9003FD85
:1030F300E07002A3E0603490036BE0A2E1502C8502
:103103000882850983127856A3A3A3A3A3A3A3A329
:1031130012529D123964EA7001EB600F8E828F8325
:10312300E0F99003FD1260A71225FE850A82850B44
:1031330083E0640270037406F0851082851183E0D6
:10314300F91215DC1215CA7422120FFA7F0B020D45
:103153000179001215D6E9606C90036BE0A2E1508F
:10316300588508828509831270137002A3E06049B1
:1031730074031212A6126FFA8E828F83E064E970D1
:1031830018123289120FEB8E828F83E0F5127812B8
:10319300120FEB124486120FFA740C1212A6125E6F
:1031A3004E1260A11265C77900740E1212A6125650
:1031B30049740C1212A612395D850E82850F831293
:1031C30056530230DC8E828F83E0C0E07402121209
:1031D300A6D0E0123994126388124460127C8E8563
:1031E3001882851983AA82AB8370051213D28003D8
:1031F3001216D88E828F83E064F16034E064CD6070
:103203002FE0641A602AE064E16025E064F0602046
:1032130074021212A6E0FC74B76C601412328912A5
:103223000FEBECF5127812120FEB124486120FFA21
:1032330090036BE0A2E1400302312E850A82850BE5
:1032430083E06402702A850E82850F83E054046054
:103253001F1260A11265AB70131260A174FFF0A37B
:10326300F07405850A82850B8302313B740380F376
:103273008E828F83E064E9600302312EAA08AB09D2
:1032830012174A02312E8508828509831267C97590
:10329300120178122274F5120A598A088B09750AE9
:1032A30000EA2409125429FEE9FF8E828F83123328
:1032B300297003750A018E828F83125CA47003A3A5
:1032C300E06B7006E50AD2E1F50AE5082402FEE5A3
:1032D300093400FFE50A60138E828F83E07006E5F0
:1032E3000AD2E58004E50AD2E6F50A1216FCE9647F
:1032F300017006E50AD2E0F50A8E828F83E060173B
:10330300E508241DF582E50934001230506401609C
:1033130006E50AC2E0F50AE50AA2E14004D2E7F5B0
:103323000AA90A026B6C1265AF64022274E8120ADE
:103333005974DC12108CEAFEEBFF74031212A6120E
:10334300639975140075150074051212A6AC82AD4D
:10335300838E828F83A3A3A3126598125E4E1216E7
:103363005AEE241B12571874121212A6125DA0747F
:103373000B1212A6E06022741C1212A6E0FD740662
:103383001212A6E0FC8E828F83A3A3125E4E7901F4
:103393001224B2E9600302393974051212A6AA8213
:1033A300AB83121558E9F508740B1212A6E0700EE0
:1033B300900368E06008E9A2E14003023939EE2492
:1033C30012F516EF3400F517EE242A12750FEE24CA
:1033D3002C12394E123F6DE0687003A3E069701C34
:1033E3007509007809120FEB7809120FEBEE242E02
:1033F300123955123970124496120FFA74081212C8
:10340300A6E0FA90036EE06A6003023939740B1286
:1034130012A6E070030234B21239701239648A0AB8
:103423008B0BA80AA90BE87001E9700302355674E7
:10343300061212A612396BFAA3E03400FB740D2AAC
:10344300F582E43BF583E0FAE82404F50AE9127512
:1034530012E82403F582E9127C8E6A600DEAF0908B
:1034630080F4780C12122D1239B9790474061212F1
:10347300A612396BFCA3E034008C82F583A3AA82E5
:10348300AB83121C848A0C8B0D8C0E8D0F850A82E4
:10349300850B83781012122D7810790C1211FE50BF
:1034A300030239399080DC780C1211331239B9EEEA
:1034B3002424123943EE2430F50CEF1249E0EE24B4
:1034C3002F12750F90036BE0A2E150030235ED90CC
:1034D3000380E0FA74046A600874096A60030239BD
:1034E30039E508A2E5400302359C1239A0C0E07417
:1034F300011212A6D0E01244C0C0E074021212A658
:10350300D0E0F074161212A6E06401702074101259
:1035130012A61239887003A3E0697011740E121297
:10352300A6123329700774161212A6E4F0850E82D0
:10353300850F83120DBC74041212A6AC82AD837482
:10354300091212A6AA82AB831213D87404120FFABB
:103553000239399003C5E0640160030234B2742276
:103563001212A61267BC64067009E508A2E65003AE
:103573000234B274121212A6E064FF7004A3E06472
:10358300FF7003023939EEFCEFFD74051212A6AA8F
:1035930082AB83121564023939A2E640030239393A
:1035A30074221212A6123980701C741C1212A6E027
:1035B3006402600302393974051212A6AA82AB832E
:1035C3001216CC02393974076A6003023939741C44
:1035D3001212A6E06404600302393974051212A6BC
:1035E300AA82AB831216C002393974161212A6E0EE
:1035F300601D8E828F83A3A31244B214125BB0A307
:103603001244B2C0E074161212A6D0E0F07006E5C0
:1036130008C2E7F508900380E0FA74046A60057451
:10362300096A7061740E1212A6125CA47003A3E0FF
:103633006B60171216FCE96402600F740A1212A67B
:10364300E054036401600302393974071212A6E0DF
:10365300701B1239A0C0E074011212A6D0E012440C
:10366300C0C0E074021212A6D0E002352F742212F9
:1036730012A612398070030235AD74076A60030223
:1036830039390235D1750900746155087003023761
:10369300A1E508A2E050708516828517831256496A
:1036A30074051212A6AA82AB831214E0E9705512B4
:1036B300168AE9F50974161212A6E0700F74101237
:1036C30012A61239887003A3E069603BA909851625
:1036D3008285178312564974051212A6AA82AB83F8
:1036E3001214E6E96013740E1212A6126C0412127D
:1036F300A6125DA0751404800EE508C2E5F50875F1
:103703000900800353089FE508A2E5503C1239A045
:10371300C0E074011212A6D0E01244C0C0E07402EB
:103723001212A6D0E0F0850E82850F83120DBC74B1
:10373300041212A6AC82AD8374091212A6AA82AB3C
:10374300831213D87404120FFAE508A2E6400302A9
:10375300386074031212A685820A85830B780A12D5
:103763000FE7A90985168285178312564974071234
:1037730012A6AA82AB8312154C7402120FFAE9F552
:1037830009700302386074221212A61267BC640126
:10379300600302386074104514F51402386074072E
:1037A3001212A6E06401703B74221212A61267BCC7
:1037B3006405702F74031212A68582088583097825
:1037C30008120FE77900851682851783125649740C
:1037D300071212A6AA82AB8312154C7402120FFAB7
:1037E30002393974161212A6E070030235891215D4
:1037F300D0E96003023939740E1212A6126C041256
:1038030012A6125DA07809120FEB741E1212A6AC59
:1038130082AD83740F1212A6125E4E740A1212A6A0
:10382300E0F91215107401120FFAE9600F751420F4
:103833008E828F83A3A31267BC543FF07900741068
:103843001212A6125649740E1212A612395DE960BD
:103853000674204514F51412168AE9F50974031247
:1038630012A6E064FE7004A3E064FF700375090010
:10387300E508A2E74003023939E509700302393943
:1038830074031212A61239887003A3E069700B74D3
:103893001D1212A6E070030235898E828F83A3A3C3
:1038A300A3A3E0FA7B00121D088A0A8B0BEA7001BE
:1038B300EB70030239398E828F83A3A3E0F50CA347
:1038C300E0F50D750E00780C120FE38E828F83A343
:1038D300A3A3A3E0FC7D00124AB1120FFA740712EE
:1038E30012A6E0851882851983F074011212A6E4EA
:1038F300F0A312399485820C85830D780C120FE79F
:103903007814120FE7E509F5087808120FEB8E8299
:103913008F83A3A3A3A3E0F974081212A612564936
:10392300AA0AAB0B1216487405120FFAE96007AA2C
:103933000AAB0B121D0E7424120FFA7F10020D0135
:10394300F50EEF3400F50F22EE240BF582EF12781B
:103953006A22F582EF126457F9221252E0121474AC
:10396300221252E01217D422126F5E2A22850A8293
:10397300850B83125442851682851783221267C0F2
:10398300FA74046A22125730851682851783E06819
:103993002212399822F085188285198322EE242E6B
:1039A3001264548518828519831239B022F0850A6E
:1039B30082850B83E022850A82850B83E50CF0A3C5
:1039C300E50DF0A3E50EF0A3E50FF02274F2120A61
:1039D30059EAFEEBFF8C088D091230437900888287
:1039E300F583125E4E1214FE8A828B83E582700287
:1039F300E583603AA3A3A3A3A3A3E05418602FE530
:103A030008241BF582E509123951120DC0E508247B
:103A130012F582E509123951120DC0EE241812393C
:103A230055123A4512151C7404120FFA80087900D6
:103A3300123A4512148C80057403120FFA7F0602A2
:103A43000D01850A82850B83125442EE240B125218
:103A5300D92274EE120A5974EA12108C8A0C8B0D57
:103A6300EA2402F50EEB1239460A0AFB121BA08A5E
:103A7300088B09AE08AF09750901850C82850D8392
:103A8300A3E0F508750A01AC0EAD0F851882851900
:103A930083AA82AB8312236E74081212A61263994F
:103AA300740A1212A67402F074131212A6E4F0E55B
:103AB3000C240AF50CE50D1249E0901BC4E07010CC
:103AC300EE7001EF700AE50870067509C3023C2B1E
:103AD300900380E0640860067509C2023C27850CE8
:103AE30082850D83E0A2E1500EA2E35005750A041E
:103AF300800C750A038007A2E35003750A02EE7077
:103B030001EF60648E828F83A3A3A3A3E0FA7404FE
:103B13006A600574036A700C7404650A601C74039C
:103B2300650A601674026A600574016A7020740283
:103B3300650A60067401650A700F8E828F831247CF
:103B43009C1212A6125DA0801F74026A60057401A4
:103B53006A700A8E828F831248FD1225FEAA0EAB6D
:103B63000F1212CA7E007F0074081212A6E064FED0
:103B73007004A3E064FF703812253CE97032E50855
:103B830060179003BDE06402700F901BCB12479C3B
:103B93001212A6E8F0A3E98016850C82850D83E056
:103BA3005402F912149874081212A6EAF0A3EBF067
:103BB30074081212A6123CCB700374FF6B70057568
:103BC30009C78060E508F50B780B120FEB850C82B3
:103BD300850D83E0F9AC0EAD0F1213F67401120FCD
:103BE300FAE97040A90AAC0EAD0F74081212A612BE
:103BF3003DA58A108B11AE10AF11EE7001EF601C62
:103C030074026508700BEE2405127C8B54FB440888
:103C1300F0740A1212A6E4F0F5098008740812126F
:103C2300A6126399E508700F851882851983AA8205
:103C3300AB831223DA8010FCA90A851882851983C5
:103C4300AA82AB831216BAE9FAEE7001EF603EEE78
:103C53002405F8EF3400F9E508601288828983E0CF
:103C6300D2E6F0740265087004E0D2E5F0850C82B8
:103C7300850D83E0A2E6500888828983E0D2E7F0CD
:103C83008E828F83A3A3A3A3A3A3E004F0E509700B
:103C930003EA602FFC7D007A017B10122356EE703D
:103CA30001EF6007AA0EAB0F1212CA74081212A614
:103CB300123CCB700374FF6B600990035A1260A728
:103CC3001225FE7416024D941252E074FE6A227499
:103CD300F6120A5974F712108C8A088B0990038024
:103CE300E0FA74036A600D74016A600874096A601B
:103CF30003023DA28508828B83A3AE82AF83E0607B
:103D030003023D877C007D007A027B00122356E587
:103D1300082402124D9C126A74125DA07953122377
:103D2300CE7900123DAC900380E0640960099003F2
:103D33007E125E4E1217CE74011260DA7404900381
:103D430080F074011212A6AA82AB83794A1223C8A7
:103D530074011212A6AC82AD837A767B0312236EB2
:103D6300790074011212A6AC82AD83900374123DE4
:103D7300A590036BE0A2E35004D2F08002C2F012DC
:103D830060C28018FC7D007A037B101223568E825A
:103D93008F83E0F9123DACE4900380F01215AC027E
:103DA30060B81252E01224A62290037E1252E0124F
:103DB30013F022C082C083900342E07002A3E0703C
:103DC30041900380E0120E71000301D83D05E73DE9
:103DD30006F63D053E90034AE07002A3E06076904C
:103DE300034A806B900346E07002A3E06067900390
:103DF30046805C900348E07002A3E060589003485B
:103E0300804D900342E07002A3E060091244AFFCCE
:103E130074016C702379009003CD800909EA126D57
:103E230087EB1239511250777001EB70EF9003CD8D
:103E3300125E4E1213DE801D74026C70051217623F
:103E430080139003F9E07002A3E060099003F91274
:103E530060A71225FE02534E74F4120A5974FB1222
:103E6300108C8A088B097A0F7B00121C908A0A8BAC
:103E73000BAE0AAF0BEE7001EF7003023F687402E2
:103E83008E828F83126B7279501223C885088285C4
:103E93000983A3858208858309E06003023F51906B
:103EA300037E12760A700374FF69602F74FE6870D4
:103EB3000374FF696025851882851983E0687003A0
:103EC300A3E069601674EA85088285098312467443
:103ED3007A7E7B0379501223CE80738518828519ED
:103EE30083123F6D125DA07A717B0379531223C84D
:103EF300900371125D9A7A747B03794B1223C87A0B
:103F0300737B0379E11223C8900385E0C3940F50B8
:103F130022900373E0C0E074021212A6D0E0F074A2
:103F2300041212A67401F074021212A6AA82AB83C1
:103F33001223F2750A00780A120FEB780A120FEBBC
:103F4300901C4CE0F9124B57124496120FFA850855
:103F530082850983124472F07403900380F0EEFAB1
:103F6300EFFB12629474050253B712573090037E2D
:103F73002274F4120A5974EB12108CEA125423FAC5
:103F8300E9FB8A828B83780812122D78081211DEDE
:103F930090038178081211927F7F7E7F7C007508E1
:103FA30001750900750A00750B00EC7808120F4AB9
:103FB30090038178081211CB9080F478081210B71F
:103FC300602A7D009003CD801288828983A3A3E0B9
:103FD3006C70010D126D86E91239511250E57001B2
:103FE300E970E6EDC39F5004EDFFECFE0CECC394C7
:103FF3001B40AB8A828B83780812122D9080F47851
:10400300081210B76045900381780812124B8A8218
:104013008B83780812122D851882851983780812EC
:10402300124B74041212A67401F0900387E0C0E0EF
:1040330074051212A6D0E0F074071212A612419072
:10404300805B12141A90037E1265C79003CD125041
:10405300E57001E9602290037E127180E06A7003CB
:10406300A3E06B700A88828983A3A3E06E60D312F6
:104073006D86E912395180D6EE900373F0121594D0
:10408300E9601AE4900380F090034CE07002A3E02F
:10409300600B79C490034C1260A71225FE741502BD
:1040A30053B774F0120A5974EB12108C8A828B8303
:1040B300A3A3A3A3A3A3A3A3A31267C57C00750C07
:1040C30001750D00750E00750F00EC780C120F4A88
:1040D300850C08850D09850E0A850F0B90038178E1
:1040E300081211CB9080F478081210B76025901B4A
:1040F300CAE0C0E08C08EA2508F582EB127C8EFD4D
:10410300D0E0C39D500D780C1211DE900381780C22
:104113001211920CECC3941B40A4900381780812F3
:10412300122D9080F478081210B7603985188285B3
:104133001983780812124B74041212A67401F074D6
:10414300071212A67401F0900387E0C0E074051211
:1041530012A6D0E0F074071212A6124190740690D2
:104163000380F08023E4900380F0FCFD7A047B104D
:1041730012235690034CE07002A3E0600B79C490C5
:10418300034C1260A71225FE7415027829E4126B02
:10419300761223E62274EC120A5974ED12108C8AFB
:1041A300828B83A3124477EA2408125429FEE9FF81
:1041B300851882851983AC82AD838E828F831244E6
:1041C3009FA3A3A3A3125E4E1215BE851882851961
:1041D30083E070768E828F83E0C3940B406C8508F6
:1041E30082850983A3A3A3A3A3A3A3A3E06402706B
:1041F30059900380E0FAE5082410F510E50934002E
:10420300F511E50824091249DC74026A6041740659
:104213006A603C900342E07002A3E060071244AF7F
:104223006401605474086A600574046A701C740243
:104233001212A6E0F974071212A6AC82AD83850CA4
:1042430082850D83125E4E1215C47413026EF690AE
:104253000342E07002A3E0701F750A00780A120F90
:10426300EB780A120FEB85108285118312446912D1
:104273004DA4124496120FFA9003CD1278BD900309
:10428300CD126EEEE508240DF50EE50912394680D0
:10429300318E828F83E0F8A3124469E0687003A330
:1042A300E06970128E828F83A3A3E0FA850E828564
:1042B3000F83E06A606B8E0A8F0BEE126D87EF122D
:1042C30078BAEE7001EF70C97A187B00121D088A64
:1042D300128B13AE12AF13EE7001EF700302424D57
:1042E3007C18127AA1126390EE240C12394E74FFDB
:1042F300F0E508240B127843124457127C77C4125A
:104303004457A3A3F09003CDE07002A3E07005909F
:1043130003CD800AE50A126D87E50B12395112723B
:10432300CC74011212A6124481A3F074021212A6D5
:10433300124481F0850E82850F83124472A31244C6
:10434300C012444E125BBB240DFAEF3400FB74021F
:104353001212A6E06401600E74071212A6AC82ADBD
:104363008312236E80097C087D0079FF121C7E7402
:10437300121212A6E0C0E0EE241512394ED0E0125C
:1043830044B7FC901C4CE0C39C400302424D1244D2
:1043930060123951A3E05480F9E47001E970099087
:1043A3001127E0700302424D7D00EE240CF8EF3438
:1043B30000F9EE240BFAEF3400FB9003BDE0640236
:1043C300701D8A828B83E0F50AC39C500D7405121D
:1043D30012A6E0C39405401B801AE50A6C7015749D
:1043E300051212A6E0C0E088828983E0FCD0E0C316
:1043F3009C50010D74041212A6E06020ED601D852F
:104403000882850983126B9CECF0A3ED1244B78AF2
:10441300828B83F074051212A612565A7406121276
:10442300A6E0600D74018E828F83A3A3A3A3A3A32D
:10443300F074041212A6E0700302424D74018E82DE
:104443008F83A3A3A3A3A3F002424DF8A3E0F98EA5
:10445300828F8322540F8E828F83A3A322E50824A5
:104463000BF582E50922E0F9850C82850D83221282
:1044730049D8A322A3A3E0F508A3E0F50922124932
:10448300D88021850C82850D8312449F12543E8A65
:10449300828B831252E0121690740222E0F98A8210
:1044A3008B838002A3A3A3A3A3A3A32290034212FB
:1044B30058AEE022F0851082851183E022F0850C4E
:1044C30082850D83E02274F6120A5974C912108C86
:1044D300900380E064086062900391E0F824BAF5E9
:1044E30082E43416F583E0FA900362F0E824BBF526
:1044F30082E43416F583E0FB900360F07508FF75E2
:1045030009FFEA78081211A5E508F4FCE509F4FDB2
:104513003395E0FE9003891246697508FF7509FF1C
:10452300EBC39A78081211A5E508F4FCE509F4FD3C
:104533003395E0FE90038D124669E41260D079044E
:104543001223CE900391E07009741E1212A6740117
:104553008006741E1212A6E4F0740F851882851962
:1045630083F0901BC9126B7279461223CE74011229
:1045730012A6E4F0901C2FE0C0E074021212A6D041
:10458300E0F090036EE0C0E074031212A6D0E0F0F6
:1045930074041212A6E4F074051212A6E4F0740770
:1045A3001212A6E4F0900391E0FAC3940F7406503C
:1045B300061212A6EA80051212A6740FF07C927DF1
:1045C3000374081212A6AA82AB8312236E7C037DA6
:1045D3000079FF74101212A6AA82AB83121C7E907C
:1045E30003CBE0C0E074131212A6D0E01261D01224
:1045F30012A61261BF1216A8900385E0C0E0741CD6
:104603001212A6D0E0F0900386E0C0E0741D1212EF
:10461300A6D0E0F0900373E0C0E0741A1212A6D0A3
:10462300E0F090037E12571E74181212A6125DA0BA
:1046330074201212A6E4F0900388E0C0E0741F1205
:1046430012A6D0E0F074341212A6E4F07429121208
:10465300A6E412467474141212A6AA82AB83122320
:10466300EC74370260BAECF0A3EDF0A3EEF0A3F024
:1046730022F07A717B03795312467F221223CE7A7A
:10468300747B03794B1223CE22C082C0838A828B30
:1046930083A3E06007E4900380F0804A74089003EA
:1046A30080F0900391E0701F90034CE07002A3E050
:1046B300600B790090034C1260A71225FE90037ED5
:1046C3001256497A05801A79001213EA900371127F
:1046D30056497A067B001223569003741256497A80
:1046E300047B0012235602534E74F4120A5974EADF
:1046F30012108CEA2402FEEB3400FF0A0AFB121BA1
:10470300A08A088B09EA7001EB70030247978A823B
:104713008B83A3A3A3A3E0FA74016A600F74026AF4
:10472300600A74036A600574046A7068EEFCEFFD46
:1047330085188285198312673212479C1212A612BA
:104743005DA0740A1212A67401F074131212A61259
:104753006B711223E0890AAC0A7D007A077B001291
:104763002356850882850983A3A3A3A3A3E0C2E0FC
:10477300F07401850882850983A3A3A3A3A3A3A33C
:10478300A3A3F07402850882850983A3A3A3A3A32B
:10479300A3A3A3F074160253B712573074082274FC
:1047A300F0120A5974F812108C8A0C8B0D8C0A8D36
:1047B3000B890E851882851983AC82AD837583803E
:1047C3007582B97408120F0AF50FAC0CAD0D85187C
:1047D30082851983AA82AB83126F8C7003750F01D4
:1047E3009003CD8030AC0CAD0DEE240DFAEF340008
:1047F300127BC7601A850882850983E0650E700FF6
:104803008E828F83E0650A7004A3E0650B6036EE49
:10481300241612394E12513B7001EF6028EE240228
:10482300F508EF3400F509E50F70BA8E828F83E047
:10483300650A7004A3E0650B70D58508828509833A
:10484300E0650E70CAEEFAEFFB02782774F7120ADE
:10485300599003CDE0FAA3E0800CEA24161278B74E
:10486300121D0EEEFAEFFBEA7001EB70ED9003CD33
:10487300E4F0A3F002529874F4120A598A088B09DF
:10488300EA240BFEEB3400FFEA2413F582EB127CDF
:104893008E64037009EEFAEFFB121BA0800CE06438
:1048A3000270548E828F8312784FEA7001EB604757
:1048B300EA2406F8EB123048850882850983A3E0D1
:1048C3007007E488828983802D64F16005E064E1E8
:1048D300701A88828983E0640170118A828B831243
:1048E30048FD1225FEEEFAEFFB1212CA850A8285F5
:1048F3000B83E0600214F00253BA1252E090035AA1
:104903001260AB2274F1120A598A088B09ECFEED8E
:10491300FF890A8A828B83126F238A828B831249CF
:10492300D7F0EEF8EFF9A30EAF838A828B83A3A3AC
:10493300E0C454F0FA88828983E04A1249EA1249B2
:10494300D81249E5E0333354FCFA8E828F83E04A70
:104953001249E5A3E033333354F8FA8E828F83E0B0
:104963004AF008EFF9A30EAF838508828B83A3A3D4
:10497300A3A3A3A3E0A2E0E492E013135480FA8874
:10498300828983E04AF0E5082407F50CEB1249E03D
:10499300750E00780C120FE37C08125A02120FFAFC
:1049A300126F0DE508240F1249DC780C120FE37C1B
:1049B30003125A02120FFAE50AC3940F4011E508D5
:1049C3002412F582E509123951124472A3A3F07F30
:1049D30007020D01A3E0024452F50CE5093400F58A
:1049E3000D221249EAA322F08508828B83A3A3A395
:1049F3002274F1120A59EAFEEBFF890A8C088D0929
:104A03008E828F83E08C828D83125BB0AE82AF8304
:104A1300E0125C56124AC3C4125C56124AB7E05401
:104A2300038C828D83124AC1A2E2E492E08C828DD0
:104A330083124AC0131313541F125C56A3124AC0A5
:104A4300A2E7E492E08C828D83A3A3A3A3124AB7C7
:104A53008E0C8F0D750E00780C120FE37C087D0011
:104A6300E5082407124AAB120FFA126F0D8E0C8F52
:104A73000D780C120FE37C037D00E508240F124A26
:104A8300AB120FFAE5082412F8E5093400F9E50A38
:104A9300C3940F400A8E828F83A3A3A3E08001E413
:104AA30088828983F00249D2FAE5093400FB121C9B
:104AB30072740322A3A3125BB40EAF8322A3A3A336
:104AC300A3F0026E3A74F4120A5974F912108CEAC4
:104AD300FEEBFF900342E07002A3E060101244AFCC
:104AE30064027009EEFAEFFB12175C806290037E9A
:104AF300E06E7003A3E06F705674016960097A92E7
:104B03007B03126F8C70487A007B02124FEF7001A7
:104B1300EB703C900381780812122D851882851959
:104B230083780812124B900387E0C0E074041212DA
:104B3300A6D0E0F074051212A67401F074061212E6
:104B4300A67402126B72121390E960981213967492
:104B5300070253B790037E12544290037422E0F984
:104B630002534E74F6120A599003DEE0701F7C0064
:104B730079017A007B001215FAEA7001EB600E8A64
:104B8300828B83E07002A3E060031215400260BDD4
:104B9300C082C083124FCF401079FF1215F4E9FA97
:104BA300902B1AE493C39A5004790180027900028E
:104BB300534E74EE120A598A088B09890D750E003B
:104BC300EA2408F50AEB12563CE0F91216008A10A3
:104BD3008B11AE10AF11750C01EE7001EF60030283
:104BE3004C6A850882850983A3A3125661F9850857
:104BF30082850983125E4E1215E88A0A8B0BAE0A70
:104C0300AF0BEE7001EF7003024D8D8E828F83A385
:104C1300A3A3A3E4F0A3F0E508240B124D9CE0C08A
:104C2300E012394BD0E0F0121708EE240C1265C0E5
:104C3300750E01EE2406F8EF124FDEE0547FF0A369
:104C4300E054FC124E8454046003024CFC901C2874
:104C5300125ACF740778081211A58A828B83E04514
:104C630008F0A3E04509F0EE2406F8EF12542BFCFC
:104C7300E9FD8C828D83125E4E74805AF5087403AD
:104C83005BF5097407780812121EE508F510EE2487
:104C93000412750FEE2409F508EF3400F509E50D4C
:104CA30060607402850882850983124AC4240D1248
:104CB300589AE0A2E2500F90036C12571E850A82A5
:104CC300850B83125DA0E5107003024D5A747F5A61
:104CD300FA74FC5BFB74FF2510F51074FF3400F5C8
:104CE30011740778101211A5E5104AF8E5114BF974
:104CF3008C828D83125DA0805EE04480F0A3E0028D
:104D03004C69E5107005750C00804CEA5420601561
:104D1300121C8A8A10747F5510F8745F28850A82E2
:104D2300850B83801BEA5410600E121C8A8A107450
:104D33000F5510F8740F80E4850A82850B83740184
:104D4300F0A3E4F07404850882850983124FE670AA
:104D530001EB700312607A7401650E7030850A826C
:104D6300850B83124DA4E0F9EEFAEFFB1215EEE981
:104D7300601BEE240C12394E1250777001EB600366
:104D8300121D0EEEFAEFFB121D0E750C00A90C801E
:104D930003120FFA7F0A020D01FAE50934000257E4
:104DA3003F1254428508828509832274F6120A59F8
:104DB30074F712108C7E00121600EA7001EB700378
:104DC300024E7F8A828B83A3A3A3A3A3A3A3A3A33C
:104DD300E064066003024E7F8A828B83A3A3A3A3AE
:104DE300A3A3A3E0FF8A828B831258A8E0C0E074D8
:104DF300081212A6D0E0124E84F8A3E0F58388824D
:104E03001266AC125DA012161E74085FF9E47001FD
:104E1300E960678518828519831256497A007B00F9
:104E23001215E2EA7001EB705190037E12543012B6
:104E3300240A7C007D007A007B0080288E828F8389
:104E430012643DE064FF7004A3E064FF602C9003F0
:104E53007E1256491220DAE9641A601E7C007D0036
:104E6300EEFAEFFB1215E28A088B09AE08AF09EEE2
:104E73007001EF70C779001224107E01EEF9026011
:104E8300B812573CE02274F7120A59EA7001EB702A
:104E9300059003DF80068A828B83A3A31250777069
:104EA30001EB60288A828B83A3A3A3A3A3A3A3E01C
:104EB3005408F9E47001E960DDEC7001ED60111252
:104EC30067B86C7003A3E06D70CC80047A007B003C
:104ED30002529874F2120A59EAFEEBFF890A8C080F
:104EE3008D097A0E7B00121D08EA7001EB603BE42A
:104EF3008A828B83A3A3A3A3A3A3A3A3124F30E507
:104F03000A1252AD1263868A828B83A3A3A3A3E4FE
:104F1300F0124F30A3A3F01272C8EA240CF582EB0F
:104F2300127C5FA3125736F0A3F0023A40A3125249
:104F3300B10244AA74F5120A59EAFEEBFF890A8CFE
:104F4300088D09EE7001EF60567401650A701479DB
:104F5300011215F4E9FA902B22E493C39A500F79C6
:104F63001180667404650A7030124FCF40F18E824F
:104F73008F83A3A3A3A3A3A3A3A3A3E50A125BC243
:104F8300127D93E4F0A3F09003DFE07002A3E090BE
:104F930003DF602412571E800A7402650A60CF790A
:104FA300C18026E824020808E9124FDE1250E5709A
:104FB30001E970EF8A828B83EEF0A3EF124FE67064
:104FC30001EB700312607A7900026B6C790412159D
:104FD300F4E9FA902B20E493C39A2212542BFAE9B2
:104FE30002573FF0124FEB227A207B009003CCE074
:104FF300F9121DBCEA22C082C083E9FC7900900348
:10500300DF801D8A828B83A3A3A3A3A3A3A3A3A34C
:10501300E06C600574FF6C7001098A828B83A3A323
:105023001250777001EB70DB02534E74F7120A597A
:10503300EA7001EB70059003DF80068A828B83A3FD
:10504300A31250777001EB60248A828B83A3A3A3FE
:10505300A3A3A3A3A3A3E06970E1EC60148A828BEA
:1050630083E0240D126E34A2E240D080047A007BE8
:10507300000252981252E0EA22C082C0839003DFFA
:1050830080068A828B83A3A31250777001EB601290
:105093008A828B83A3A3A3A3A3A3A3A3E06970E240
:1050A30080047A007B0002534EC082C0839003DFEA
:1050B300800688828983A3A31250E57001E9601BEF
:1050C30088828983E0FCA3E0F5838C82E06A700325
:1050D300A3E06B70DDE8FAE9FB80047A007B000251
:1050E300534E125730E82274F1120A598A0A8B0B75
:1050F3008C0C8D0D750800750900EA7001EB6031A9
:105103009003DF80068E828F83A3A312513B70012D
:10511300EF601EAC0CAD0DEEFAEFFB850A82850B3A
:10512300831225FEE9640170DCEEF8EFF988088943
:1051330009AA08AB090249D2E0FEA3E0FFEE2279F7
:1051430000020F8E74F7120A599003DF12571E7C68
:10515300007D008007E8FCE9FD12571EE87001E9B5
:10516300603AE82402F582E9123951EA687002EBE9
:105173006970E2125E4E9003DF1278BDE86E700232
:10518300E96F70099003DFEAF0A3EB800EEAF8EB16
:10519300F98C828D83A3A3E8F0A3E9F002529874FB
:1051A300F7120A59EAFEEBFFEE7001EF60161216D2
:1051B300181252B7EA7001EB6003121D0EEEFAEFFC
:1051C300FB121D0E02529874F7120A591267B8FCAB
:1051D300A3E0FD9003DF12571E7508007E008033A5
:1051E30088828983A3A3A3A3A3A3A3A3A3E06405A2
:1051F30070180E88828983E0FFA3E0F5838F82E035
:105203006C7003A3E06D7002050888828983A3A3F1
:1052130012571EE87001E970C7EA2404F8EB340062
:10522300F9902B17E493FCE508C39C500B902B18C3
:10523300E493FCEEC39C400B888289837401F0A342
:10524300E4800A90036C12529DECF0A3EDF0740518
:105253008A828B83A3A3A3A3A3A31252AAA3A3E02B
:10526300F0A3E04408124E84FAA3E0FB8A828B8306
:10527300E064FF7004A3E064FF600E90037E1256A7
:1052830049122404E9641A70057901122410800577
:10529300741F120FFA7F01020D011254428003346E
:1052A30000F98882898322A3A3A31252B122125741
:1052B3003C0244AA8E828F83E0241C1252E4FAA398
:1052C300E0FB121D0E8E828F831252E0121D0EEE32
:1052D300240C1252D922F582EF3400F583E0022E1A
:1052E300AC1258A2E022C082C083EAFCEBFDEC7052
:1052F30001ED70047905804CEC24FBF582ED34FF5D
:10530300F583E07002A3E07011EC24FFF8ED34FFA5
:10531300F988828983E064FF6005121C9680D5902A
:1053230003CC12565A902B1CE493F97AE17B0312B7
:105333001CC6E96401700B7A007B1012607E790051
:105343008002790480057402120FFAD083D082029E
:105353000F8E74F4120A59A2AFE492E0F508C2AFBB
:105363009003E112513B7001EF603DEE24FBF582A7
:10537300EF34FFF583E07002A3E07A007B10900323
:10538300CC60051260818005E0F9121CD2750A0019
:10539300750B00780A120FE7EEFCEFFD7AE17B0351
:1053A300121CC07402120FFAE508A2E092AFEEFAE3
:1053B300EFFB8003120FFA7F04020D0174F7120A48
:1053C3005974E112108CEA2413F582EB127C8EC01F
:1053D300E074111212A6D0E012572974091212A612
:1053E300125722125423FCE9FD8C828D8312571E1F
:1053F300740B1212A61257222414F582EB127C8E20
:10540300C0E074121212A6D0E0F0EA240EF582EB8B
:105413001239588C828D831254301214E60252933F
:10542300240412542922F8EB3400F9E822125442DE
:10543300851882851983AA82AB8322A3A3A3A3E041
:10544300FCA3E0FD2274EE120A5974FC12108CEADC
:10545300FEEBFF1215D0E960057911025637EE24F1
:1054630012F510EF3400F511EE2402F50AEF12568F
:105473003C1265AB6008E4851082851183F0EE244D
:1054830013125A0B7003741EF0EE2411F8EF126519
:105493009070199011DDE0600D900368E0700D8E3F
:1054A300828F83E07006E488828983F0EE241408F7
:1054B3000808EF127846700C90035D12565A900359
:1054C3005DE004F0EE240FF508EF3400F509EE2457
:1054D3000B12394390036BE0A2E1504F850A82859A
:1054E3000B831265AB60448E828F83E0600B850E65
:1054F30082850F831230526032850882850983E0EA
:105503005440601A850C82850D83E06401700F8519
:105513000882850983E054FBF0A3E0F0800DEEFAE6
:10552300EFFB121636E9700302545C8E828F83E020
:105533006401701A850E82850F831267BC64027042
:105543000D850882850983E04440F0A3E0F08508D7
:1055530082850983E05440705790036BE0A2E150C9
:105563004F750C00780C120FEBEE2406FCEF3400A1
:10557300FD850A82850B83125E4E85108285118319
:10558300E0F91215107401120FFAE9600CE48510AA
:1055930082851183F012564DF079008E828F83122B
:1055A3005661FAA3E0FB121474E9600412564DF03D
:1055B300851882851983AC82AD83EEFAEFFB121650
:1055C3004E8A0C8B0D850A82850B83125649EA702D
:1055D30001EB605C8E828F83E0C0E074011212A63F
:1055E300D0E0F074021212A61272CC74011212A649
:1055F30085820A85830B780A120FE785088285095D
:1056030083120DC0EE240E127C8BF5087808120F5E
:10561300EB74051212A6E0F91216487405120FFA7C
:10562300E9FE74106E700BAA0CAB0D121D0E8002F6
:105633007E10EEF97404024D943400F50B850A8252
:10564300F5832212786712544222850882850983E2
:10565300E04420F0A3E022E088828983F022125400
:105663003E0239B1C082C08374DE12108C8A828BF1
:1056730083A3A3A3A312571E740E1212A6E8F0A3CA
:10568300E9125729740C1212A6125722240DF5821F
:10569300EB127C8EC0E0741A1212A6D0E0F0EA245A
:1056A3000BF582EB12571B74201212A612572224F9
:1056B30015F582EB127C8EC0E074081212A6D0E0BE
:1056C300F0EA241CF582EB12571B74121212A61275
:1056D3005DA074FF851882851983F074011212A6E8
:1056E30074FFF074021212A674FFF09080F4120D8E
:1056F300BC74041212A6AC82AD8374071212A6AA5C
:1057030082AB831213D87404120FFA790074220245
:10571300534BEE240BF582EF12786A12573022E8CE
:10572300F0A3E9F0EA2212573612573022E0F8A329
:10573300E0F92212573CA3A322F08001FB8A828B5B
:10574300832274EC120A5974F012108C8A128B1390
:10575300ECFEEDFF890F74241212A6E0F50C7425FC
:105763001212A612447974271212A6126EEE750D48
:10577300107A1E7B00121D0874021212A61265C74E
:1057830074021212A6E07002A3E07003025893752C
:105793000E00EEFAEFFB1224888A828B83E5827077
:1057A30002E583601CA3A3A3A3E0FA74016A600566
:1057B30074036A700CE5085440700674044509F5D7
:1057C3000974045509F9E47001E96003750E018554
:1057D3001882851983AA82AB837950125E457402BD
:1057E3001212A61258A8A31265C774021212A6E0D9
:1057F300240B12589A7402F01212A61258A87402BB
:10580300F01212A61260A71272CC74021212A61220
:1058130067B1E50FF074021212A6E0240C12589A35
:10582300E50CF074021212A6E0241C12589AE51239
:10583300F0A3E513F074081212A6126388740A1217
:1058430012A6E50CF0850A82850B83C082C083749F
:105853000D1212A6AC82AD83D083D0827403120FD3
:105863000AA90E74021212A6AA82AB831215D6E9F4
:1058730064017011E50E6008A90C121600121624BB
:10588300750D00800B74021212A6125E4E121D0ECD
:10589300A90D7410026EF612589E221258A222F815
:1058A300A3E00252A21258AEA3A3221260AF024495
:1058B300A874EA120A59EAFEEBFF8C088D098E825E
:1058C3008F83A385820A85830B7408F0EE24161256
:1058D3005A0B60097410850A82850B83F0EE241736
:1058E300125A19600A850A82850B83E02408F0EEB8
:1058F3002411F8EF1278466005750E0E8003750EBD
:1059030000EE240DF514EF3400F515850A82850B9E
:1059130083E0851482851583FAE02A250E8C828D17
:1059230083127C786013900369E0F91224ACE9FADE
:10593300850882850983E02AF0850882850983E04A
:10594300FAC3947540097508007509000259F97B7B
:105953000012722E7001EB70030259F9EEFAEFFB9D
:10596300121654EA8508828509831265C8EE24025B
:10597300F8126443125A31F0EE2404080812644307
:10598300A3A3125A31A3A3F0EE2413125A27F0EE65
:105993002414125A27A3F07A08850C82850D83E01C
:1059A300600FEE2418125646E5082408126EE47AB6
:1059B30010851082851183E0600FEE241A1256467B
:1059C3008A0CE508250C126EE4EE240B127C8BF591
:1059D30010A3E0F5117512007810120FE3851482FD
:1059E300851583E0FC7D00125D88E50E28FAE43915
:1059F300125A07120FFAAA08AB097F0E020D017D96
:105A030000EEFAEFFB024AB1F50CEF3400F50D8519
:105A13000C82F583E022F510EF3400F51185108236
:105A2300F583E022127867125A3BA3A3A322A3A310
:105A3300127606A3125A3B22E0850882850983A3C6
:105A4300A3A32274F6120A598A828B83E0FC900383
:105A53006E125ACF740278081211A5E5084CFCADFA
:105A630009EA2412125AC9740678081211A5E50826
:105A73004CFCE5094DFDEA2411125AC97409780852
:105A83001211A5E5094DFDEA2416125AC9740B78C3
:105A9300081211A5E5094DFDEA2417125AC9740C21
:105AA30078081211A5E5094DFD8A828B83A3A3A370
:105AB300A3A3A3125ACF740A78081211A5ECFAE52E
:105AC300094DFB0260BDF582EB12786AE0F50875BB
:105AD30009002274F2120A598A088B09ECFEEDFFC1
:105AE300E98E828F83F0125DD9C0E0EE2411123962
:105AF3004ED0E0125DD4C0E0EE241212394ED0E055
:105B0300125BB0A882A983125DA66010E508240881
:105B1300FAE5093400FBEE2413125BCE8E828F83E9
:105B2300A3A3A3A3A3A3A3A3E0601588828983E00F
